:020000040800F2
:10000000A0420020ED010008BD3900087F3900083A
:1000100000000000000000000000000000000000E0
:10002000000000000000000000000000F9010008CE
:100030000000000000000000AB010008CD3A0008FD
:10004000FF010008FF010008B53A0008FF010008A1
:10005000FF010008D10E0008E10E0008F10E0008B3
:10006000FF010008FF010008FF010008FF01000870
:10007000B10E0008FF01000885410008C9C400084E
:10008000FF010008FF010008FF0100080000000058
:10009000FF010008FF010008FF010008FF01000840
:1000A000FF010008FF010008FF0100086D41000882
:1000B000FF010008FF010008FF010008FF01000820
:1000C00000F002F800F030F80CA030C8083824180E
:1000D0002D18A246671EAB4654465D46AC4201D180
:1000E00000F022F87E460F3E0FCCB6460126334282
:1000F00000D0FB1AA246AB46334318471CF400005D
:100100003CF400000023002400250026103A01D30F
:1001100078C1FBD8520700D330C100D50B607047BF
:100120001FB51FBD10B510BD00F065FE1146FFF7ED
:10013000F7FF0CF08FFA00F07DFE03B4FFF7F2FF3B
:1001400003BC00F083FE000070B505460C46164661
:1001500002E00FCC0FC5103E102EFAD2082E02D3AB
:1001600003CC03C5083E042E07D301CC01C5361FBE
:1001700003E021782970641C6D1C761EF9D270BDD5
:10018000194B19680868203080F30988022080F331
:1001900014883FBCAE4662B600BD0000EFF310808D
:1001A00072B6704780F310887047EFF309800E4BEA
:1001B0001A6820381060F0C044464D4656465F46E7
:1001C000F0C008B572B60DF0BDFD62B60CBC11688A
:1001D00008681030F0C8A046A946B246BB4680F376
:1001E00009882038F0C81847D40000200948804703
:1001F00009480047FEE7FEE7FEE7FEE7FEE7FEE709
:10020000016808467047000004480549054A064B46
:1002100070470000E13A0008C1000008A03E00203D
:10022000A0420020A0400020A0400020F8B5042AF1
:100230002CD3830712D00B78491C0370401C521E2C
:1002400083070BD00B78491C0370401C521E830798
:1002500004D00B78491C0370401C521E8B079B0F67
:1002600005D0C91ADF002023DE1B08C90AE0FFF70A
:100270006BFFF8BD1D4608C9FD401C46B4402C4329
:1002800010C0121F042AF5D2F308C91A521EF0D466
:100290000B78491C0370401C521EEAD40B78491C91
:1002A0000370401C012AE4D409780170F8BDD2B271
:1002B00010B513029A1813049A1800F00EF810BD26
:1002C00001E004C0091F0429FBD28B0701D502807D
:1002D000801CC90700D00270704700290BD0C307EB
:1002E00002D00270401C491E022904D3830702D5A4
:1002F0000280801C891EE3E70022EEE70022DFE790
:10030000002203098B422CD3030A8B4211D3002312
:100310009C464EE003460B433CD4002243088B42EC
:1003200031D303098B421CD3030A8B4201D3944679
:100330003FE0C3098B4201D3CB01C01A524183096C
:100340008B4201D38B01C01A524143098B4201D326
:100350004B01C01A524103098B4201D30B01C01A51
:100360005241C3088B4201D3CB00C01A52418308CB
:100370008B4201D38B00C01A524143088B4201D3F8
:100380004B00C01A5241411A00D201465241104658
:1003900070475DE0CA0F00D04942031000D34042CD
:1003A000534000229C4603098B422DD3030A8B4203
:1003B00012D3FC22890112BA030A8B420CD38901A1
:1003C00092118B4208D3890192118B4204D3890187
:1003D0003AD0921100E08909C3098B4201D3CB01C5
:1003E000C01A524183098B4201D38B01C01A52417A
:1003F00043098B4201D34B01C01A524103098B427E
:1004000001D30B01C01A5241C3088B4201D3CB0068
:10041000C01A524183088B4201D38B00C01A52414B
:10042000D9D243088B4201D34B00C01A5241411A22
:1004300000D20146634652415B10104601D3404250
:10044000002B00D54942704763465B1000D3404201
:1004500001B50020C046C04602BD704770477047D6
:10046000F0B5F94D0C091E092C402E402F468BB0DB
:10047000A7437DD0B543FCD0002E7AD0002CFCD011
:100480000D465D40ED0F2543AC1BFF25AD046419FF
:100490000894C502440DC9022143500DDC020443F7
:1004A0000120C00701430443D2020191200C110C2A
:1004B00000958C46010423468B430A91614609044A
:1004C000E24D8A430991010A7D444919803909782E
:1004D00005464D4301266D18F605751B6943C90C89
:1004E000640B891C4C436418B5012C1B250C2E048D
:1004F000B4434C434D43210C691889090591009D73
:10050000E90701D00121C90704912C460199670828
:10051000CD072F434C08059DE10B4D432D0C29467B
:100520006646754302950D4645432E46029D7D1B4A
:10053000B44100950D465D4301942C0C2F040D46EB
:100540005543AE462D0C3D43029503947546049CDD
:100550002D04641B049406D2029C039D641C002697
:1005600075410395029401AC70CC009F7D1B01E0A6
:100570003EE162E1B44109040095079101940599B7
:10058000A4086143090C0C464443650BE7040C4680
:1005900066467443A646640B3C4303950294744636
:1005A000049DE4042C1B049406D2029C039D641C4D
:1005B000002675410395029401AC70CC009F7D1B11
:1005C000B44101940C465C430095650FE7000C466E
:1005D0005443A646640F3C43039502947446049D1D
:1005E000E4002C1B049406D2029C039D641C00268C
:1005F00075410395029401AC70CC009F7D1BB44102
:10060000AE09AF06049DC900AD092F43049DA406A1
:10061000AD060495079D344369180791059DE10BCC
:100620004D432D0C29466646754302950D464543BC
:100630002E46029D7D1BB44100950D465D430194FD
:100640002C0C2F040D465543AE462D0C3D43029510
:1006500003947546049C2D04641B049406D2029CEA
:10066000039D641C002675410395029401AC70CC77
:10067000009F7D1BB44101948C050694079C890A58
:10068000611800950791019C0599A4086143090C24
:100690000D464543680BEF040D46644665436C0BFD
:1006A0003C43049FED047D1BAC4602D20025641C34
:1006B0006841009E019D371B8541084658430195BE
:1006C0000C46460FC5005443600F28436546E400BE
:1006D0002C1B02D20025401C6E41019D3F1AB541E2
:1006E0002846BD09800628438446A009BF064E025D
:1006F0000699A40676180743079D002068410A99C9
:10070000079019430020099B00906046FF1913438E
:100710004041E20F64003A43A4460446D71A8C4194
:10072000A04203D90120009020463A46C70F9418F2
:1007300040416246D20F2243644664000494009C08
:10074000BE466400D71AA446044602978C417746F9
:10075000002F01D1A04204D96046401C8446029A71
:100760002046C40FA64694184041049A0546D20F6D
:10077000224364466400D31A8D417146002901D199
:10078000A84202D928461A46641C104301220028B8
:1007900000D0164361020020079B891904465C4182
:1007A0000223002C02DB491813466441089DCE0A3F
:1007B0002D145D194B056705E10A2C050D190899E3
:1007C0003E43C9076940002B08D0934006D300225E
:1007D000761C5141002B01D1760876001C4A002D71
:1007E00043DB154241D0AA433FD030460BB0F0BDA9
:1007F00006180D464D41174C7642AC411AD3951858
:100800001C465C41134A6D42A24113D3012252059A
:100810004C00D4420AD15C00D4420BD04B4002D5EC
:1008200092021143E2E749004908DFE75940C90F46
:10083000C90718E000200849D8E7054801420DD152
:100840000342F7D0F2E700000000FF074CEF000082
:100850000000F07F0000E0FF0000F87F11485940E1
:100860000143C01241400020C0E70123089A9B06C3
:100870009A4205DC032252078918C90FC907B5E758
:10088000052252078918074A1143D2125140ADE799
:1008900070B515461C4602460B4628462146FFF712
:1008A000DFFD70BDFFFFFF7F0346CA02400D10B59C
:1008B00010430A1504D00124E4072043002A05DB75
:1008C0000A4CA21A04D4D040FF2A00DD002010BD3B
:1008D0004A00002B01D0012000E000201018012266
:1008E0005205D042F2D8C817C04310BD1E04000004
:1008F00010B50B1E01D0202301E0011E2BD00C0CE3
:1009000001D10904103B0C0E01D10902083B0C0F68
:1009100001D109011B1F8C0F01D189009B1E0029E9
:1009200001DB49005B1E0446DC4021431C05A41882
:100930002022D21A90404B05C20AC90A1A4309194B
:10094000830501D1430818401623984002D30020A4
:10095000521C4141104610BDCA0FD20703D00B46AE
:10096000002140429941024B1A43C1E7004ABFE7C8
:100970000000D041F0B58B4C0F09254689B0BD432E
:100980007BD01D092646AE43FAD00E465E40274076
:10099000F60F3E43254071D024012142FBD0FF24B5
:1009A000AD19A4042D1B039501252D05DB02DB0ADF
:1009B000C9022B43C90A29431E010901040F130F61
:1009C000050121431701880B820391432D098C46B1
:1009D000A90B1E438A039543B30B9A0396433F0921
:1009E000BA0B9403A74302962E467E430497B6465D
:1009F0004E19D7190C460196544305977E43371B71
:100A00007646BF1B3601B646BE0B361900967646B3
:100A1000BC043719009C01D3641C00946400002FAF
:100A200001D001263443029E049F754366467E43EF
:100A30000496760034196E0034190094029C019ECD
:100A40001C196643751BAE46069465464519059C00
:100A500005956C43594375460891691A0191049EA6
:100A600001465143A41B0491611A009C0791E106C1
:100A700005D061090122114302E072E06EE06109D4
:100A8000089D00272C0A2D066918049D7C412A0A1E
:100A90002D066918019D6241AC0DAD026D185441DF
:100AA000079A910D920255196141029A6446584382
:100AB0005443069B059A5A43121A131B9A0E9B0124
:100AC0005B187A41010B0005C3185141220A200628
:100AD00044195A419A4200D2491C012040028142E5
:100AE00003D315230226F64302E014230326F6431C
:100AF0002020C51AA9401746AF40DA400A432046D5
:100B00000399D8400914731819055118039A3843EA
:100B1000D2075140AC4009D00122944006D30022B4
:100B2000401C5141002C01D1400840001E4A934214
:100B300012D3012203989206904207DB052040075A
:100B400009181A480143C012414004E0032040073D
:100B50000818C10FC907002009B0F0BD0020F10737
:100B6000FAE705180C464C4111486D42A04115D3D7
:100B700094181A465A410E48644290410ED30120FF
:100B80004A004005824209D35A00824206D35940A6
:100B9000C90F084AC90700201143DDE700200649B4
:100BA000DAE700000000FF07FE070000FFFFFF7FFD
:100BB0000000E0FF0000F07F0000F87FF0B5FF25A7
:100BC0002D04C609C209FF2704462E400137CB0970
:100BD0003E4348402A402B400746002A6BD0002B5A
:100BE00069D0AA4267D0AB4265D0002800DA32460D
:100BF0000125ED0529432C4309022002090AD21AD6
:100C00004B0C7F24E31A434C000A7C44E35C7D24B4
:100C10002404121914145B00A218884201D3521C38
:100C200000E0400049420C465C4324115C43DB0178
:100C30006415E318040A5C43C502200D0C464443C6
:100C40006419250A5D432303EC0C0D46654300033C
:100C50000019EB184C42A34201D35B18401CD40589
:100C60002018002B07D05B00C91804D3401C0029B2
:100C700001D1400840003F2189048A4209D3002A5B
:100C800008DC1106090F04D0032149074018C00FE2
:100C9000C007F0BD01224100120689187F225206CA
:100CA0009142F6D205214907C84201D59010F0BD06
:100CB000FF20C005F0BD002F00DA32461648AA42D8
:100CC00007D2AB4205D21902090E17D0F80FC007A0
:100CD000F0BDFF2563002D06AB42F9D84900A942BB
:100CE000F6D8AB4201D1A942F2D0A94201D10021EC
:100CF00001E061004908D0050843F0BD1102090E6A
:100D0000FBD0FF200243D005F0BD0A460146104645
:100D100054E700008AE800000000C07F10B50146DB
:100D20009E240002CA15A307002A02D01843002AF5
:100D300004DBA21A002A0CDDD04010BD1206120EF0
:100D400001D140004008A21A03D4D04040420028FC
:100D5000F3DDFF2248001206904201D9002010BDA9
:100D6000C817C043584010BD0102C21504D001236A
:100D7000DB071943002A0ADB9E239A1A02D408468D
:100D8000D0407047FF2241001206914201D9002055
:100D90007047C017C04370471F22030C02D10F22B7
:100DA00000041CD0030E01D10002083A030F01D148
:100DB0000001121F830F01D18000921E002801DB69
:100DC0004000521ED20551180212511819229040AB
:100DD00004D3491C002801D149084900084670473E
:100DE000C10FC90700D04042012292071143D3E747
:100DF00001218907D0E7754600F024F8AE460500CA
:100E000069465346C008C000854618B020B5FFF7B4
:100E1000FBF960BC00274908B6460026C0C5C0C51E
:100E2000C0C5C0C5C0C5C0C5C0C5C0C5403D4900DE
:100E30008D46704710B50446C046C0462046FFF7B1
:100E40007CF910BD00487047403E00200149182041
:100E5000ABBEFEE726000200704770B58C1805781F
:100E6000401C6B075B0F01D10378401C2A1106D18F
:100E70000278401C03E00678401C0E70491C5B1E83
:100E8000F9D12B0705D40023521E0DD40B70491C39
:100E9000FAE70378401CCB1A921C03E01D780D7012
:100EA000491C5B1C521EF9D5A142D8D3002070BD4D
:100EB00010B50CF05BFC044800F070FB034800F038
:100EC000E2F80CF061FC10BD3035002048390020FC
:100ED00010B50CF04BFC08F009F90CF055FC10BDF6
:100EE00010B50CF043FC08F031F90CF04DFC10BDCE
:100EF00010B50CF03BFC08F027FB0CF045FC10BDD6
:100F000070B5044600F044FD05460BE0601C002867
:100F100008D0002C04D000F03BFD401BA04201D9BA
:100F2000032070BD24488069C007C00F01214840DC
:100F300048400028EAD12048806902210840022860
:100F400001D11D4988611C488069FF210131084099
:100F5000000A002829D11848806949000840400A41
:100F6000002822D11448806949000840800A0028DE
:100F70001BD11148806949000840C00A002814D1DB
:100F80000D48806989000840400B00280DD10A48AF
:100F9000806909010840400C002806D10648806994
:100FA00049100840000C002803D005F053FD012033
:100FB000B7E70020B5E7000000200240F8B504467E
:100FC0000F460025002600BF5420005D012801D1F6
:100FD0000220F8BD01215420015500BF206880681F
:100FE0008007800F012806D120680068084000288B
:100FF00001D0012000E0002000282FD1A06DFF21AA
:101000000131884302210843A06520688068890770
:1010100008432168886000F0BBFC064611E000F040
:10102000B7FC801B0A280CD9A06D0221884310212F
:101030000843A06500BF00215420015500BF0120D6
:10104000C7E720688068C00FC0070028E7D1A06DFF
:101050000221884301210843A06504E0A06D2021FE
:101060000843A065012500BF00215420015500BFA1
:101070002846AEE7704770470146886D70470146C5
:101080000868006C704710B50446206800680421A9
:101090000840042804D120684068084004280AD089
:1010A0002068006808210840082840D1206840686E
:1010B000084008283BD1A06D10210840002803D12A
:1010C000A06D49010843A0652068C068032189021A
:1010D0000840002825D1A06A002822D12068006895
:1010E0000821084008281CD1206880680421084095
:1010F000800800280DD1206840680C2188432168B1
:101100004860A06DFF210131884301210843A0659B
:1011100007E0A06D20210843A065E06D0121084390
:10112000E0652046FFF7A6FF0C20216808602068D4
:1011300000688021084080280ED12068406808405F
:10114000802809D1A06D49020843A065204600F01F
:101150003FF980202168086020680068102108405D
:1011600010281AD1206840680840102815D1206C3A
:10117000002805D02068C068C007C00F002809D02B
:10118000E06D02210843E0651020216808602046D8
:10119000FFF771FF10202168086010BD10B50446EC
:1011A000002C01D1012010BDA06D002806D1E06502
:1011B000002154200155204600F00CF9A06D1021AB
:1011C0000840002806D12068806804210840800873
:1011D00000280AD0A06D10210843A06500BF00219F
:1011E0005420015500BF0120DDE7A06DFF21013132
:1011F000884302210843A065206880688007800F2B
:10120000012807D120680068C007C00F002801D05E
:10121000012000E0002000283AD100BF0321890707
:101220006069884207D049426069884203D049001A
:10123000606988420CD120680069800080082168BC
:10124000086120680069616908432168086112E04B
:10125000206800698000800821680861594880681A
:101260000F2189048843574988600846806861696E
:1012700008435449886000BF2068C068182188432B
:101280002168C8602068C068A16908432168C860F7
:101290004C4880680121490688434A4988600846CD
:1012A0008068A16C490608434649886020688068C8
:1012B000012109070840002804D1206880680843FC
:1012C000216888602068C0683F4908402168C8607C
:1012D000216A606A022901D1042100E0002108434B
:1012E000A16A49030843A16B49000843216C0843E4
:1012F000616C89030843E16CC90308432168C9682C
:1013000008432168C860FF21C231206B884207D0A2
:10131000616B206B08432168C96808432168C86075
:10132000E06A012812D1A06A002807D12068C068AD
:101330000121090408432168C86007E0A06D20214D
:101340000843A065E06D01210843E065606801285D
:1013500016D1206800691D49084021680861A1680C
:10136000E068084321690843216809690843216846
:1013700008612068006901210843216808610BE0C9
:1013800020680069C007C00F002805D020680069E8
:10139000400840002168086120684069C008C0001A
:1013A0002168486120684069E16908432168486113
:1013B0000020E065A06D0221884301210843A0655B
:1013C0000020F0E6002701401902FEFF03FCFF7F2A
:1013D0007047000010B504460448406B01214902E3
:1013E00008430249486306F041FD10BD0010024069
:1013F000F8B504460D46E06B082801D1082711E036
:101400002068C068C007C00F00280AD0A06D202146
:101410000843A06500BF00215420015500BF0120F2
:10142000F8BD0C2700F0B4FA064614E0681C00284A
:1014300011D0002D04D000F0ABFA801BA8420AD9CD
:10144000A06D04210843A06500BF00215420015570
:1014500000BF0320E4E72068006838400028E5D09A
:10146000A06D012149020843A0652068C0680321DE
:1014700089020840002825D1A06A002822D12068CE
:1014800000680821084008281CD1206880680421D1
:101490000840800800280DD1206840680C2188434E
:1014A00021684860A06DFF21013188430121084374
:1014B000A06507E0A06D20210843A065E06D012133
:1014C0000843E065606C002802D10C2021680860A8
:1014D0000020A5E770B50446002520688068042137
:1014E0000840800800282BD100BF5420005D01284F
:1014F00001D1022070BD01215420015500BFE06CD4
:10150000012803D0204602F049FE0546002D18D1DF
:10151000A06D0D490840FF2101310843A06500205E
:10152000E06500BF00215420015500BF1C20216848
:10153000086020688068042108432168886000E012
:1015400002252846D6E70000FEF1FFFF70B50446ED
:10155000002500BF5420005D012801D1022070BD8C
:1015600001215420015500BF204605F03DFA0546F3
:10157000002D0CD1204602F067FF0546002D06D154
:10158000A06DFF210131884301210843A06500BF00
:1015900000215420015500BF2846E0E770B50446FD
:1015A00015492068884202D10120400501E0012050
:1015B000800505460120400585420BD10F48406952
:1015C00029460840002805D008460C4948612046B5
:1015D00000F016F80120800585420BD107484069CC
:1015E00029460840002805D008460449486120469D
:1015F00000F006F870BD0000180001400004014032
:1016000070470000034840680221084301494860D0
:1016100000207047002002400D4840680221084029
:10162000002810D00A484068C007C00F002804D026
:1016300008480749C8600848C86008480449086164
:101640000748086101E0012070470020FCE7000026
:1016500000200240EFCDAB8905040302BFAE9D8C94
:1016600016151413F0B50B4600210022002479E072
:1016700001258D401D402A46002A72D005684F0082
:101680000326BE40B5430560CD08AE0005462035B3
:10169000AD594E07F70E0F26BE40B543CE08B60033
:1016A00007462037BD5185684F000326BE40B5432D
:1016B0008560456801268E40B5434560C5684F008A
:1016C0000326BE40B543C560294D8E08B600AC590F
:1016D0008D072E0F0F25B5402C4005252D07A8425C
:1016E00001D1002519E0234DA84201D1012514E0C4
:1016F000214DA84201D102250FE0204DA84201D181
:1017000003250AE01E4DA84201D1042505E01D4D28
:10171000A84201D1052500E006258E07360FB54009
:10172000A5421ED18D072E0F0F25B5402C46104D1A
:101730008E08B600AD59A5430D4E8F08BF00F55178
:10174000114D2D689543104E356035466D689543B3
:1017500075603546AD689543B5603546ED6895438F
:10176000F560491C1D46CD40002D81D1F0BD000023
:10177000080001400004005000080050000C005018
:1017800000100050001C00500004014070B50346DA
:10179000002200240020DFE0012696400D6835403D
:1017A0002C46002C77D04D68022D02D04D68122DAA
:1017B00015D1D508AE001D462035A8595507EE0EA7
:1017C0000F25B5400646AE4330465607F60E0D6966
:1017D000B5402843D508AD001E46203670514D68EF
:1017E000012D08D04D68022D05D04D68112D02D075
:1017F0004D68122D18D1986856000325B54006464D
:10180000AE4330465600CD68B540284398605868CE
:10181000012595400646AE43304610264D683540BA
:101820002D09954028435860186856000325B54097
:101830000646AE4330460D79AD07AD0F5600B540B4
:1018400028431860D86856000325B5400646AE43C5
:10185000304656008D68B5402843D86001263607CB
:101860004D683540B54276D13E4D6D6B012635430E
:101870003C4E75633C4D9608B600A85995072E0F4F
:101880000F25B5400646AE43304605252D07AB4231
:1018900002D100251AE05EE0344DAB4201D10125B2
:1018A00014E0334DAB4201D102250FE0314DAB4284
:1018B00001D103250AE0304DAB4201D1042505E0FA
:1018C0002E4DAB4201D1052500E006259607360FC7
:1018D000B5402843244D9608B600A851284D2868E5
:1018E0000546A5432846012636044D683540B542D5
:1018F00002D1054625432846214D286068680546E3
:10190000A5432846012676044D683540B54202D1EC
:101910000546254328461A4D6860A8680546A54334
:101920002846012636054D683540B54202D10546A8
:1019300025432846124DA860E8680546A543284679
:10194000012676054D683540B54202D1054625434E
:1019500028460B4DE860521C0D68D540002D00D084
:101960001AE770BD0010024008000140000400505A
:1019700000080050000C005000100050001C0050E7
:1019800000040140002A01D0816100E081627047BB
:1019900001480068704700003801002002480068D4
:1019A000401C0149086070473801002070B50446AA
:1019B00000F024FC05467D21C900FEF7A1FC401E75
:1019C000054948610720086100222146501E00F0A9
:1019D00087F9002070BD000000E000E070B504460B
:1019E000002600253520005D012803D03520005D4C
:1019F000022837D100BF3420005D012801D1022028
:101A000070BD01213420015500BF02213520015550
:101A1000FFF7BEFF06460FE0FFF7BAFF801B7D21F0
:101A2000C900884208D90220A06300BF00213420E9
:101A3000015500BF0320E3E72068806804210840C7
:101A400080080028E8D1002505E000212068143036
:101A5000AA0081506D1C0F2DF7D9204600F0AAF87E
:101A60000020CDE70120CBE770B504460026002515
:101A7000002C01D1012070BD3520005D002807D168
:101A800000BF00213420015500BF204600F07EF841
:101A90000221352001552068006840084000216877
:101AA0000860002506E0002120681430AA0081505B
:101AB000681CC5B20F2DF6D9206880680421084340
:101AC00021688860A16860680843A16A0843E16AE8
:101AD0000843E1690843216A0843A1690843616A30
:101AE000084321684968284A114008432168486032
:101AF000204601F048FF2169E06808436169084316
:101B0000216B084321680968FE229143084321683C
:101B10000860206800680121084321680860FFF719
:101B200037FF06460AE0FFF733FF801B7D21C9001F
:101B3000884203D90820A06303209CE720688068BE
:101B4000C007C00F0121484048400028EBD0FFF7F4
:101B50001FFF06460AE0FFF71BFF801B7D21C9001F
:101B6000884203D91020A063032084E7206880689E
:101B70001021084000090028EDD00020A0630121B9
:101B800035200155002076E70F0000FC10B5044613
:101B900004F0BAFD0548806B01214902084303495E
:101BA000886301200249088010BD00000010024037
:101BB0005E01002070B50446002508202168C86039
:101BC000206880680421084321688860FFF7E0FEF0
:101BD00005460FE0FFF7DCFE401B7D21C90088426F
:101BE00008D90420A06300BF00213420015500BFA4
:101BF000032070BD2068806808210840C0080028C4
:101C0000E8D001213520015500BF002134200155C5
:101C100000BF0020EDE7F8B504460D4616461F4606
:101C2000002000903520005D012803D03520005DA4
:101C300002283AD13520005D012829D100BF342087
:101C4000005D012801D10220F8BD01213420015599
:101C500000BF022135200155FFF79AFE009010E0E9
:101C6000FFF796FE0099401A7D21C900884208D9E5
:101C70000220A06300BF00213420015500BF0320D3
:101C8000E2E7206880680421084080080028E7D146
:101C900020681430A9004058F14388433843216834
:101CA0001431AA0088500020CEE70120CCE70000C4
:101CB00000BFC206D20E01219140024A116000BF4E
:101CC0007047000080E100E000BFC206D20E012193
:101CD0009140024A116000BF7047000000E100E03F
:101CE00070B504460D4616462946204603F0E4FF2B
:101CF00070BD0000034800680121890208430149C2
:101D000008607047007000400348006801214902E4
:101D100008430149086070470070004003480068AC
:101D2000FF210131084301490860704700700040FD
:101D300010B5024600200B4B18688008800003464F
:101D400013431846074B1860074B1B690424A34331
:101D5000054C2361012901D130BF02E040BF20BF03
:101D600020BF10BD0070004000ED00E010B502463D
:101D700000200E4B18688008800003461343184665
:101D80000A4B18600A4B1B6904242343084C236147
:101D9000012901D130BF02E040BF20BF20BF044B6A
:101DA0001B690424A343024C236110BD0070004052
:101DB00000ED00E070B504460025002620212068D3
:101DC0000840202804D0890120680840884277D143
:101DD0009148006803210905084003221205A16902
:101DE0001140884207D18C48006811460840E169DB
:101DF000114088420ED003210904A069084088429E
:101E000008D185480068012149040840002801D014
:101E1000012070BD8048806B0121090708437E497D
:101E200088637E480068891508437C490860FFF78D
:101E3000AFFD054606E0FFF7ABFD401B642801D966
:101E40000320E6E775480068FF21013108400028BB
:101E5000F1D0714840300069032109040840032291
:101E60001204A1691140884208D16B4840300069D2
:101E700011460840E169114088425CD06648403014
:101E8000006903210904884306466348403000691D
:101E90000121C904084360494031086108460069CE
:101EA0000121C90488435C49403108610846066144
:101EB00040153040002815D0FFF76AFD054608E0C0
:101EC00039E0FFF765FD401B5549884201D90320E1
:101ED0009FE7514840300069012149020840400A0B
:101EE0000028EED000BF03210904A0690840884201
:101EF0000BD1494800680901884303221205A169F2
:101F0000114008434449086006E043480068032143
:101F100009058843404908603F4840300069032173
:101F20000904884303221204A169114008433A4975
:101F30004031086100BF2078C007C00F002809D0D9
:101F400035484030C06880088000616808433249E5
:101F50004031C860022120680840022809D12E487B
:101F60004030C0680C218843A16808432A494031A9
:101F7000C86004212068084004280AD1264840305F
:101F8000C068032189028843E1680843224940313F
:101F9000C86008212068084008280AD11E4840303F
:101FA000C068032109038843216908431A49403165
:101FB000C860FF2101312068084088420AD11648D4
:101FC0004030C0680321090488436169084312490D
:101FD0004031C860402120680840402809D10E489F
:101FE0004030C06809058843216A08430A494031E6
:101FF000C86080212068084080280AD10648403007
:10200000C068032189048843616A0843024940315A
:10201000C8600020FDE60000001002400070004093
:102020008813000070B504460D460026704800680D
:10203000C007C00FA8420ED26D480068400840009B
:1020400028436B49086008460068C007C00FA842D3
:1020500001D0012070BD022120680840022807D16C
:102060006448C068F0218843A16808436149C8609A
:102070002078C007C00F00284CD06068022809D122
:102080005C480068012149040840400C002824D124
:102090000120DFE76068002809D156480068012167
:1020A00049020840400A002817D10120D2E76068A1
:1020B000032809D14F480068012149060840400E15
:1020C00000280AD10120C5E74A48006804210840D9
:1020D0008008002801D10120BCE74648C06880087C
:1020E0008000616808434349C860FFF751FC064619
:1020F000606802280FD107E0FFF74AFC801B3E49C9
:10210000884201D90320A5E73A48C0680C2108405D
:102110000828F1D134E0606803280FD107E0FFF709
:1021200037FC801B3449884201D9032092E73148AB
:10213000C0680C2108400C28F1D121E0606800281B
:102140000FD107E0FFF724FC801B2B49884201D9FF
:1021500003207FE72748C0680C2108400028F1D100
:102160000EE007E0FFF714FC801B2349884201D9E9
:1021700003206FE71F48C0680C2108400428F1D1F4
:102180001B480068C007C00FA8420ED3184800685B
:102190004008400028431649086008460068C00708
:1021A000C00FA84201D0012054E704212068084054
:1021B000042808D10F48C068072109028843E16854
:1021C00008430C49C860082120680840082809D144
:1021D0000848C0680721C90288432169C90008432B
:1021E0000449C8600020FFF7E1FB002032E700004F
:1021F00000200240001002408813000010B500F0DB
:1022000037F80649C968F02211400909044A515CAF
:10221000C840044908600846006810BD001002402C
:10222000B1F000083401002010B5FFF7E7FF0549C1
:10223000C968072212021140090A034A515CC840CA
:1022400010BD000000100240B1F0000810B5FFF70B
:10225000D5FF0549C9680722D2021140C90A034ABD
:10226000515CC84010BD000000100240B1F00008F1
:10227000F8B50024002600200090002700253248F1
:102280004068072149030840470B2F48C0680C21CC
:102290000840002806D0042809D0082811D00C28AE
:1022A00049D110E0781C01218140CD0348E0264847
:1022B000006810210840002801D0244D00E0244D82
:1022C0003EE0244D3CE02048C0680F2189040840CE
:1022D00004461D48C0680321890508400646A00C35
:1022E0001D490C5CB00D461C1748C068012109044B
:1022F000084000900098002815D11348006810216C
:102300000840002807D01149614308463146FDF7CF
:10231000F7FF05460EE00E49614308463146FDF7DA
:10232000EFFF054606E00B49614308463146FDF7DD
:10233000E7FF054604E0781C01218140CD0300BF82
:1023400000BF2846F8BD00000010024000093D0013
:102350000024F40000127A00A8F00008F8B5044642
:1023600000252078C007C00F00286FD0F948C0684A
:102370000C21084008280BD0F648C06808400C28FB
:1023800013D1F448C06801210904084088420CD1E7
:10239000F0480068012149040840400C002869D039
:1023A0006068002866D10120F8BD00BF0121090442
:1023B0006068884205D1E74800680843E54908603D
:1023C0002DE0052109046068884215D1E1480068C4
:1023D000012109048843DF4908600846006801219B
:1023E00089040843DB4908600846006801210904A4
:1023F0000843D849086012E0D64800680121090462
:102400008843D4490860084600680121090408404F
:102410000090D048006889008843CE49086000BF1A
:102420006068002813D0FFF7B3FA054606E0FFF70F
:10243000AFFA401B642801D90320B5E7C5480068FE
:10244000012149040840400C0028F0D012E0FFF7B9
:102450009FFA054606E0FFF79BFA401B642801D966
:102460000320A1E7BB480068012149040840400C53
:102470000028F0D102212068084002286AD1B5481E
:10248000C0680C21084004280BD0B248C06808403E
:102490000C281DD1AF48C06801210904084000285C
:1024A00016D1AC480068042108408008002804D0F8
:1024B000E068012801D0012076E7A64840681F2186
:1024C00009028843216909020843A249486041E0A2
:1024D000E068002824D09F48006809218843E1680B
:1024E00008439C490860FFF753FA054606E0FFF7EA
:1024F0004FFA401B022801D9032055E79548006890
:102500000421084080080028F1D0924840681F212B
:10251000090288432169090208438E49486019E08D
:102520008C48006809218843E168084389490860AC
:10253000FFF72EFA054606E0FFF72AFA401B0228AD
:1025400001D9032030E7834800680421084080084F
:102550000028F1D1102120680840102872D17D4850
:10256000C0680C210840002822D17A480068012167
:1025700049020840400A002804D0E069002801D13F
:10258000012011E773484068072149038843616AC5
:10259000084370494860084640680002000A218CE0
:1025A000090608436B4948600020FFF7FFF949E03E
:1025B000E06900282CD067480068FF2101310843FA
:1025C00064490860FFF7E4F9054606E0FFF7E0F923
:1025D000401B022801D90320E6E65E48006801217D
:1025E00049020840400A0028F0D05A4840680721B4
:1025F00049038843616A0843564948600846406871
:102600000002000A218C090608435249486019E07B
:1026100050480068FF21013188434E490860FFF7A8
:10262000B7F9054606E0FFF7B3F9401B022801D9C8
:102630000320B9E647480068012149020840400AE2
:102640000028F0D1082120680840082839D16069A5
:1026500000281BD03F4840300069012108433D4914
:1026600040310861FFF794F9054606E0FFF790F95D
:10267000401B022801D9032096E636484030006905
:102680000221084040080028F0D01AE031484030CC
:102690000069400840002F4940310861FFF778F990
:1026A000054606E0FFF774F9401B022801D9032014
:1026B0007AE6284840300069022108404008002896
:1026C000F0D1202120680840202850D1A06900289E
:1026D00026D000BF1F488068012108431D4988603B
:1026E0000846406B012108431A4948631A48006AAA
:1026F000491408431849086200BFFFF749F9054625
:1027000006E0FFF745F9401B022801D903204BE6FC
:10271000104880680221084040080028F1D026E0D7
:1027200000BF0C488068400840000A4988600A4899
:10273000006A0A4908400849086200BFFFF728F903
:1027400005460DE0FFF724F9401B022808D90320B5
:102750002AE600000010024000000140FEDFFFFFFB
:102760009B4880680221084040080028EAD10421E3
:102770002068084004287DD1002600279448806BFB
:1027800089060840002805D19148806B084390498C
:10279000886301268F480068FF2101310840002826
:1027A00017D18C48006808438A4908600127FFF761
:1027B000EFF8054606E0FFF7EBF8401B642801D967
:1027C0000320F1E583480068FF210131084000281B
:1027D000F1D000BFFF210131A068884207D17C48B9
:1027E0004030006908437A494031086140E0A06800
:1027F000002810D1764840300069FF21013188431C
:1028000073494031086108460069091588437049D9
:10281000403108612CE005210902A068884217D1E7
:102820006B4840300069FF210131884368494031DD
:102830000861084600690915084365494031086187
:1028400008460069891508436149403108610FE075
:102850005F4840300069FF21013188435C494031C5
:1028600008610846006909158843594940310861E3
:1028700000BF00E03EE0A068002815D0FFF788F810
:10288000054607E0FFF784F8401B5349884201D909
:10289000032089E54E484030006901214902084083
:1028A000400A0028EED014E0FFF772F8054607E072
:1028B000FFF76EF8401B4849884201D9032073E5B1
:1028C000434840300069012149020840400A00287D
:1028D000EED1012F05D13F480068390288433D49B8
:1028E0000860012E05D13A48806B3107884338498A
:1028F000886300BFA06A002867D03548C0680C21F3
:1029000008400C285FD0A06A022841D130480068F6
:102910000121090688432E490860FFF739F805466A
:1029200006E0FFF735F8401B022801D903203BE5FC
:1029300027480068012149060840400E0028F0D1D0
:10294000616B206B0843E16A08432149C968FD2295
:102950001204914308431E49C860084600680121DB
:10296000090608431A490860FFF712F8054606E011
:10297000FFF70EF8401B022801D9032014E5144884
:102980000068012149060840400E0028F0D01CE0F4
:102990000F4800680121090688430D490860FEF7C9
:1029A000F7FF054606E0FEF7F3FF401B022801D9BA
:1029B0000320F9E406480068012149060840400E5A
:1029C0000028F0D101E00120EEE40020ECE400005A
:1029D00000100240007000408813000010B504464B
:1029E000002C01D1012010BD206800680C21884313
:1029F0002168086020684068602188432168486039
:102A0000204600F06BF80020607100BF207100BF0D
:102A100000BFE8E7F8B504460D460026002700BFD2
:102A20002079012801D10220F8BD0120207100BFCA
:102A30006079012825D102206071FEF7A9FF0646C2
:102A40000EE0FEF7A5FF801B7D21C900884207D953
:102A50000420607100BF0020207100BF0320E3E765
:102A600020684068C007C00F012148404840002846
:102A7000E7D020688068A060A068286001206071AD
:102A800000E0012700BF0020207100BF3846CBE7DF
:102A900010B50446002C01D1012010BD00BF2079E3
:102AA000012801D10220F8E70120207100BF6079E0
:102AB000002803D12071204600F052F802206071F6
:102AC00020680068042108432168086001206071C3
:102AD00000BF0020207100BF00BFDEE710B598B036
:102AE00004461E48006B0121090508431B49086381
:102AF00038210AA8FDF702FC28216846FDF7FEFBF5
:102B000020200A900020149010900AA8FFF726FCBD
:102B1000002801D000BFFEE740200090000508908B
:102B20006846FFF747F9002801D000BFFEE70B48D1
:102B3000006B012109058843084908630846006ABB
:102B4000012109050843054908620846006A012178
:102B5000090588430149086218B010BD0010024001
:102B600010B598B0044638210AA8FDF7C7FB282104
:102B70006846FDF7C3FB20200A9000201490012036
:102B800010900AA8FFF7EAFB002801D000BFFEE77B
:102B900040200090000508906846FFF70BF90028D8
:102BA00001D000BFFEE70448006B0121090508437E
:102BB0000149086318B010BD0010024070B504460A
:102BC000002500BF2020005D012801D1022070BD3A
:102BD00001212020015500BF02212120015500BF05
:102BE000CA202168486253202168486200BF2068DB
:102BF0008068012189028843216888602068806894
:102C000001218903884321688860FEF7C1FE0546DB
:102C100015E0FEF7BDFE401B7D21C90088420ED99C
:102C200000BFFF202168486200BF03212120015519
:102C300000BF00212020015500BF0320C7E7206806
:102C4000C0680421084080080028E2D000BFFF20AF
:102C50002168486200BF01212120015500BF0021E9
:102C60002020015500BF0020B1E70000F8B5044660
:102C70000D461646002700BF2020005D012801D127
:102C80000220F8BD01212020015500BF0221212092
:102C9000015500BFCA20216848625320216848625C
:102CA00000BF20688068012189020840002820D0E8
:102CB000FEF76EFE074615E0FEF76AFEC01B7D219B
:102CC000C90088420ED900BFFF202168486200BFBA
:102CD00003212120015500BF00212020015500BF04
:102CE0000320CEE72068C06804210840800800283F
:102CF000E2D12068806801218902884321688860C8
:102D0000FEF746FE074615E0FEF742FEC01B7D219A
:102D1000C90088420ED900BFFF202168486200BF69
:102D200003212120015500BF00212020015500BFB3
:102D30000320A6E72068C068042108408008002816
:102D4000E2D02068456120688068C008C000216822
:102D50008860206880683043216888601548006872
:102D600001210905084313490860084680680121CC
:102D7000090508430F49886020688068012189039C
:102D8000084321688860206880680121890208431F
:102D90002168886000BFFF202168486200BF0121D0
:102DA0002120015500BF00212020015500BF002037
:102DB00067E700000004014010B5044614480068AD
:102DC000042108431249086012480088401C114938
:102DD000088011480068401C0F4908600F480068CF
:102DE000401C0E4908600E480068401C0C490860F1
:102DF00008480088782801DB09F064FC094800686D
:102E0000002804D008210748006809F0B9FD10BD6A
:102E1000007000403E0100202C0000203000002007
:102E2000280000202000002010B504462068C0685B
:102E3000012189020840800A00280AD02046FFF7B5
:102E4000BBFF2068C068802108400649084321680C
:102E5000C860012000050449486101212120015575
:102E600010BD00007FFBFFFF0004014010B50446C9
:102E7000002C01D1012010BD2120005D002805D1CA
:102E8000002120200155204600F054F80221212085
:102E9000015500BFCA20216848625320216848625A
:102EA00000BF204600F0E4FD002809D000BFFF204D
:102EB0002168486200BF0421212001550120DAE782
:102EC000206880681A490840216888602169606824
:102ED0000843A1690843216889680843216888601C
:102EE0002168E068086120680069218909040843B5
:102EF000216808612068C068802188432168C86013
:102F00002068C06C800880002168C8646169E0693D
:102F100008432168C96C08432168C86400BFFF20CA
:102F20002168486200BF0121212001550020A2E74D
:102F3000BFFF8FFF10B598B004461B48806B01217E
:102F40000907084318498863FEF7E8FE0C200A9039
:102F500000201490FF2001300C9000200F900AA850
:102F6000FFF7FCF9002801D004F025F8202000909C
:102F7000C00206906846FEF71DFF002801D004F04D
:102F80001AF80948403000690121890408430649BC
:102F900040310861002211460220FEF7A1FE022006
:102FA000FEF792FE18B010BD00100240F8B50446BE
:102FB0000D461646002700BF2020005D012801D1E4
:102FC0000220F8BD01212020015500BF022121204F
:102FD0000155002E09D1687810210840102804D12D
:102FE0006878EF2108400A306870002E11D1E87827
:102FF00000F031FD0304687800F02DFD000203436A
:10300000A87800F028FD03432878400303431F46B7
:1030100012E0687800F012FD0746A87800F00EFD77
:103020000746E8780004697809020843A97808434C
:10303000297849030843074600BFCA20216848622F
:1030400053202168486200BF204600F011FD00288F
:103050000ED000BFFF202168486200BF042121205C
:10306000015500BF00212020015500BF0120A8E725
:1030700019483840216848602068C068802188432A
:103080002168C8602068806820210840002813D18A
:10309000204600F0CDF800280ED000BFFF202168A8
:1030A000486200BF04212120015500BF00212020DB
:1030B000015500BF012084E700BFFF20216848625E
:1030C00000BF01212120015500BF00212020015512
:1030D00000BF002075E700003FFFFF00F8B5044681
:1030E0000D461646002700BF2020005D012801D1B3
:1030F0000220F8BD01212020015500BF022121201E
:103100000155002E1BD1206880684021084000280E
:1031100000D002E00020E87000BF287800F09BFC9F
:103120000304687800F097FC00020343A87800F0DD
:1031300092FC0343E878000403431F4618E020682C
:10314000806840210840002804D0287800F076FCF0
:10315000074602E00020E87000BF28780004697884
:1031600009020843A9780843E97809040843074697
:1031700000BFCA202168486253202168486200BF0E
:10318000204600F075FC00280ED000BFFF2021680B
:10319000486200BF04212120015500BF00212020EA
:1031A000015500BF0120A4E720483840216808608D
:1031B0002068806801218904884321688860296922
:1031C000E8680843216889680843216888602068A6
:1031D000C068802188432168C860206880682021F9
:1031E0000840002813D1204600F022F800280ED015
:1031F00000BFFF202168486200BF04212120015543
:1032000000BF00212020015500BF012071E700BF51
:10321000FF202168486200BF01212120015500BF25
:1032200000212020015500BF002062E77F7F7F0042
:1032300070B5044600252068C068A0218843216835
:10324000C860FEF7A5FB054608E0FEF7A1FB401BA2
:103250007D21C900884201D9032070BD2068C06863
:10326000202108400028F0D00020F6E710B50446E1
:10327000002C01D1012010BD3520005D002805D1B2
:10328000002134200155204600F00CF802213520A1
:103290000155211D206803F043FC01213520015513
:1032A0000020E8E710B504460748806B0121084379
:1032B00005498863002203210F20FEF711FD0F202E
:1032C000FEF702FD10BD0000001002400146086834
:1032D000C068012210430A68D060086800680122B3
:1032E00010430A681060002070470000014608681B
:1032F000C068400840000A68D06000BF0868006AE3
:10330000064A1040002805D10868006840084000BF
:103310000A68106000BF0020704700001111000013
:10332000704710B504462068006902210840400833
:1033300000281CD02068C06808404008002816D02B
:10334000481F216808610120207520688069800776
:10335000800F002803D02046FFF7E2FF05E020465B
:1033600000F09DF8204600F09BF8002020752068B2
:10337000006904210840800800281DD02068C0682A
:1033800008408008002817D0C8432168086102203F
:10339000207520688069032109020840002803D0B5
:1033A0002046FFF7BDFF05E0204600F078F82046F4
:1033B00000F076F800202075206800690821084098
:1033C000C00800281CD02068C0680840C008002839
:1033D00016D0C84321680861042020752068C069A0
:1033E0008007800F002803D02046FFF799FF05E0F3
:1033F000204600F054F8204600F052F800202075D6
:103400002068006910210840000900281DD02068AC
:10341000C06808400009002817D0C8432168086127
:10342000082020752068C06903210902084000288F
:1034300003D02046FFF774FF05E0204600F02FF888
:10344000204600F02DF80020207520680069C00794
:10345000C00F01214840484000280CD02068C068B7
:10346000084048404840002805D0C81E216808612F
:10347000204600F017F820680069402108408009C4
:1034800000280BD02068C06808408009002805D0BB
:10349000C84321680861204600F096F810BD7047C7
:1034A0007047000070B505460024012040490860BF
:1034B00040480088401C3F49088008460088012891
:1034C00008D13D4800698021084000286FD13B4960
:1034D00008706CE03748008813282CDA35480078EB
:1034E000C007C00F002862D034480078401033492C
:1034F00008703148006980210840044601F034FE1C
:103500002D48006980210840044301F02DFE2A481F
:10351000006980210840044301F026FE2648006926
:10352000802108400443002C41D0244800780843FF
:10353000224908703BE01F480088142837D108F062
:10354000CBFF08F0D9FB1C480069802108400446E5
:1035500001F00AFE1848006980210840044301F088
:1035600003FE1548006980210840044301F0FCFD7A
:1035700011480069802108400443002C12D01048F3
:103580000088202805DA0D4800780E490C4A128878
:1035900088540B480088401C0949088000200549D0
:1035A000088000E000BF00200449087000BF70BD23
:1035B0006801002062010020000400506401002026
:1035C00060010020E03900207047000000BF04497E
:1035D0000968096820221143014A12681160704786
:1035E0009038002010B50446002C01D1012010BDF8
:1035F00002216920015520680068400840002168C8
:10360000086000202168086021684860216888609F
:10361000204600F00BF90020E066002169200155EA
:1036200000BF6820015500BF0020E0E770B50446E8
:10363000206805686D086D00206805607D26F6002D
:1036400000E0761E002EFCD10120054320680560B5
:1036500005480068002804D004210348006809F0E8
:103660008FF900BF70BD00007000002010B5044647
:103670002068C069C007C00F00280FD0206800680C
:10368000FF2101310840002808D00120216808628C
:10369000E06E01210843E066692001552068C06999
:1036A0000221084000280FD020688068C007C00FA2
:1036B000002809D0022021680862E06E0421084336
:1036C000E0660121692001552068C0690421084095
:1036D00000280FD020688068C007C00F002809D0DC
:1036E000042021680862E06E02210843E06601219F
:1036F000692001552068C0690821084000280FD0C2
:1037000020688068C007C00F002809D00820216801
:103710000862E06E08210843E06601216920015536
:10372000E06E002802D02046FFF780FF2068C069C5
:1037300001210905084000280ED020688068890012
:103740000840002808D088102168086201216920FB
:1037500001552046FFF73AFF2068C0692021084044
:10376000002807D0206800680840002802D02046C2
:1037700001F034FF2068C06980210840002807D08C
:10378000206800680840002802D0204602F0D0FAE5
:103790002068C06940210840002807D020680068E0
:1037A0000840002802D0204603F004FD10BD10B5EB
:1037B0000446002C01D1012010BDA069002800D0D2
:1037C00000E000BF6920005D002805D100216820CD
:1037D0000155204600F048F8022169200155206873
:1037E00000684008400021680860204600F054FA54
:1037F000606A002802D0204600F0A6F920684068E0
:103800000921C902884321684860206880682A210C
:103810008843216888602068006801210843216886
:103820000860204600F008FAC6E7000010B504461C
:103830000B48806A0121C904084309498862084687
:10384000806A0121C90488430549886203218902ED
:103850000448FDF707FF0E20FEF72AFA10BD00000E
:10386000001002400008005010B5044603F0ACFF01
:103870000748806B0121C904084305498863012278
:1038800003210E20FEF72CFA0E20FEF71DFA10BDC4
:103890000010024010B503466920C05C012803D027
:1038A0006920C05C122865D1002901D0002A01D10D
:1038B000012010BD00BF6820C05C012801D102209A
:1038C000F7E701246820C45400BF00BF24039868B0
:1038D000A0420AD11869002803D1274C5C20C452A9
:1038E00020E0FF245C20C4521CE0986800280AD124
:1038F0001869002803D1FF245C20C45212E07F2401
:103900005C20C4520EE0012424079868A04209D12B
:103910001869002803D17F245C20C45202E03F24B0
:103920005C20C45200BF0020D8666920C05C122809
:1039300003D132246920C45402E022246920C454F3
:1039400018680068FF24013420431C682060186850
:103950008068012420431C68A06000BF0024682008
:10396000C45400BF18680068202420431C682060ED
:1039700000209EE702209CE7FF010000704708F04E
:10398000A1FE00BFFEE770B504460025FEF700F873
:1039900005460AE0FDF7FCFF401B7D21C900884277
:1039A00003D90120A063032070BD20688068202116
:1039B000084040090028EDD00020F5E708F082FE1D
:1039C00000BFFEE708B50021C9431B4AD16200BF12
:1039D0001146C96A01221143174AD1621146C96AC8
:1039E000C907C90F009100BF00BF1146C96A022272
:1039F0001143114AD1621146C96A02221140009155
:103A000000BF00BF0C49C96A042211430A4AD162AF
:103A10001146C96A04221140009100BF00BF064947
:103A2000C96A08221143044AD1621146C96A0822B0
:103A30001140009100BF08BD00100240014600BFC8
:103A4000F020084000110A23584302460807000FDF
:103A50008018C0B270470146002203E0521C08469D
:103A60000A38C1B20A29F9DA1007000E0843704774
:103A700070B5044600252068C06840210840002831
:103A800015D1401E2168C860FDF782FF054608E099
:103A9000FDF77EFF401B7D21C900884201D903202C
:103AA00070BD2068C068402108400028F0D0002088
:103AB000F6E7000010B509F059FE0348FFF7B4F926
:103AC00009F062FE10BD00006C35002010B5FDF756
:103AD00065FF09F045FB07F093FB08F0B3FF10BD4D
:103AE00015480068FF210131084313490860084662
:103AF000C068124908401049C8600846006810496B
:103B000008400D4908600846806840084000886009
:103B1000084600680121890488430749086008466F
:103B2000C068FD21090488430349C860002008617A
:103B3000C803044988607047001002400C40FF88A9
:103B4000F6FFF6FE00ED00E0818CC907C90F0029E1
:103B500008D001684968012252049143826A1143E6
:103B6000026851600222416A1140002907D00168B1
:103B70004968D2039143C26A11430268516004222A
:103B8000416A1140002907D0016849681204914335
:103B9000026B1143026851600822416A11400029FA
:103BA00007D00168496812039143426B11430268D0
:103BB00051601022416A1140002907D001688968CC
:103BC00012029143826B1143026891602022416A84
:103BD0001140002907D00168896812029143C26B25
:103BE0001143026891604022416A1140002915D0BA
:103BF0000168496892039143026C11430268516065
:103C000001221205016C914208D101684968032222
:103C100052059143426C1143026851608022416A0F
:103C20001140002907D00168496812039143826C52
:103C3000114302685160704710B50446206800685F
:103C400008210840082809D1124B0022810420468F
:103C500000F00CFA002801D0032010BD2068006895
:103C600004210840042809D10A4B002201052046FE
:103C700000F0FCF9002801D00320EEE700BF00218E
:103C80006820015500BF0020E06601216920015530
:103C90000020E2E7F0550000F0B58BB004460026A6
:103CA0000025002700200A90E2492068884201D1BF
:103CB000012000E00020002800D000E000BF2169C2
:103CC000A068084361690843E16908430646206823
:103CD0000068D9490840304321680860206840687E
:103CE000032109038843E168084321684860A66905
:103CF000D0492068884201D1012000E0002000283E
:103D000001D1206A0643206880680B21090288439C
:103D100030432168886000BFC8492068884216D1B6
:103D2000C748C0688007800F002806D0012808D047
:103D3000022804D0032808D105E0012506E0022569
:103D400004E0042502E0082500E000BF38E0BD499A
:103D50002068884216D1BA48C0680C210840002863
:103D600006D0042808D0082804D00C2808D105E083
:103D7000002506E0022504E0042502E0082500E015
:103D800000BF1DE0AB492068884219D1AC48C0682B
:103D9000032189020840002808D001218902401A25
:103DA00008D0401A04D0401A08D105E0002506E0EA
:103DB000022504E0042502E0082500E000BF00BF62
:103DC00000BF9C492068884201D1012000E000200A
:103DD00000287AD0002D06D0022D25D0042D53D0F6
:103DE000082D73D173E0626810460021FCF7BEFD18
:103DF00007910690FEF718FA002101910090FCF758
:103E0000B5FD0022904B03910290FCF7B3FD0591A4
:103E10000490079B069AFCF723FB09910890FCF796
:103E200043FD2168C86067E085484038006810217C
:103E300008400009002813D0626810460021FCF7F2
:103E400095FD02460B460791069000207F49FCF73E
:103E500007FB09910890FCF727FD2168C86012E074
:103E6000626810460021FCF781FD02460B4607916F
:103E7000069000207649FCF7F3FA09910890FCF7C8
:103E800013FD2168C86037E0626810460021FCF726
:103E90006DFD07910690FEF7EBF90021019100906E
:103EA000FCF764FD0022684B03910290FCF762FD71
:103EB00005910490079B069AFCF7D2FA09910890A5
:103EC000FCF7F2FC2168C86016E016E013E06268B7
:103ED00010460021FCF74AFD02460B46079106906A
:103EE00000205C49FCF7BCFA09910890FCF7DCFC67
:103EF0002168C86000E000BF9AE00121C903E069C1
:103F0000884251D12B0006F0B5F80906101A42304C
:103F10004242423A4200FEF787F940000990616848
:103F2000FCF7EEF980B20A9032E0FEF78FF940001C
:103F300009906168FCF7E4F980B20A9028E04048F3
:103F400040380068102108400009002806D0424887
:103F50006168FCF7D5F980B20A9005E03F486168D6
:103F6000FCF7CEF980B20A9012E0FEF781F940002A
:103F700009906168FCF7C4F980B20A9008E001205A
:103F800000046168FCF7BCF980B20A9000E000BF51
:103F900000BF33490A98084007460A980007400FB7
:103FA00007432068C76043E02B0006F063F809066A
:103FB0000F183F2E3F3F3F373F00FEF735F909907E
:103FC0006168FCF79DF92168C86030E0FEF73EF9B2
:103FD00009906168FCF794F92168C86027E01848E7
:103FE00040380068102108400009002806D01D480C
:103FF0006168FCF785F92168C86005E01A486168C6
:10400000FCF77EF92168C86011E0FEF731F90990EC
:104010006168FCF775F92168C86008E00120C003F9
:104020006168FCF76DF92168C86000E000BF00BF5F
:104030000BB0F0BD00480040F369FFEF00380140CD
:104040004010024000440040000070408084CE4197
:104050008084EE410000604100127A000048E801CF
:10406000F0FF000000093D000024F400FFB581B01E
:1040700004460E461D460027FDF78AFC07460398B6
:10408000002839D12DE0681C00282AD0002D04D04A
:10409000FDF77EFCC01BA84223D920680068802160
:1040A00088432168086020680068202188432168CF
:1040B000086020680068FF2101318843216808609A
:1040C00020688068400840002168886001216920DC
:1040D000015500BF00216820015500BF032005B035
:1040E000F0BD2068C0693040B04201D1012000E03D
:1040F00000200028C7D037E02CE0681C002829D019
:10410000002D04D0FDF744FCC01BA84222D9206832
:1041100000688021884321680860206800682021A9
:1041200088432168086020680068FF2101318843C6
:104130002168086020688068400840002168886025
:1041400001216920015500BF00216820015500BFF1
:104150000320C4E72068C0693040B04201D101208B
:1041600000E000200028C8D10020B8E710B509F011
:10417000FDFA0348FFF77AFA09F006FB10BD0000CC
:104180009038002010B509F0F1FA0348FFF76EFAF5
:1041900009F0FAFA10BD00009038002070B504460E
:1041A0000025206880688007800F012807D12068DB
:1041B0000068C007C00F002801D0012000E00020E7
:1041C000002839D1206880681C490840002801D1A6
:1041D000012000E00020002809D1A06D1021084333
:1041E000A065E06D01210843E065012070BD2068F5
:1041F00080680121084321688860012003F0DEF90E
:10420000FDF7C6FB05460EE0FDF7C2FB401B0A2882
:1042100009D9A06D10210843A065E06D0121084374
:10422000E0650120E2E720680068C007C00F0121B7
:10423000484048400028E7D00020D7E7170000801A
:1042400030B5002314E00124E40304402412802547
:104250000D406C40002C05D04404200C0446544012
:10426000204601E04404200C4C06210E5C1CA3B245
:10427000082BE8DB30BD0000FFB589B014461D46B1
:1042800000200890002C01D10DB0F0BD02F080FAA2
:104290002A460021204607F04EFF0998002802D048
:1042A000099808F0BFF9129801F030FC0790002639
:1042B0005AE030480078022802D1C01E089056E02B
:1042C00002F066FA002008907D22D200052101A8A4
:1042D00008F080FB01A807C804AB07C304980828AE
:1042E00000D03FE00598C007C00F002828D0224822
:1042F0000088002824D020480788AF4200DD2F46E0
:104300001E48844204D03A460146204607F009FF81
:104310000A9800280BD020460A9908F014F800B239
:1043200008900898002802D038B208901FE014A125
:10433000204608F008F8002802D00020089016E077
:1043400004210598084000280BD00020089008F0B0
:10435000F1F8C82008F00DFA4B20C00108F00AF966
:1043600000BF00BF701C86B207988642A1D300BF71
:10437000089889E7580000208400002005020020EA
:104380004552524F5200000086B004F001F909F086
:104390003FFD04F047F908F07BFF07F079FE07F0D6
:1043A0002FFF012007F034FF08F048F808F01EF84E
:1043B00008F030F821480478214805783CE00022D4
:1043C000D2430F21684608F005FB684607C803ABD7
:1043D00007C3082104980840002810D01748047823
:1043E0001748057800201549087006201449087000
:1043F00006F0C6FC0020124908701249087004211A
:1044000004980840002817D00C4804780C48057818
:1044100000200A49087005200949087006F074FC5C
:1044200006480078002807D105480078052803D100
:104430000248047002480570C1E700004B000020EC
:104440004C000020A801002070B50446002520681B
:1044500080688007800F012807D120680068C007A6
:10446000C00F002801D0012000E00020002837D034
:104470002068806805210840012800D100E0002064
:1044800000280AD000BF2068806802210843216804
:10449000886003202168086009E0A06D10210843AE
:1044A000A065E06D01210843E065012070BDFDF7C6
:1044B0006FFA05460EE0FDF76BFA401B0A2809D992
:1044C000A06D10210843A065E06D01210843E0655F
:1044D0000120EBE720688068C007C00F0028EAD100
:1044E0000020E3E730B503231B0317484407640F9C
:1044F000002C05D0C01DC008C000134C041B1B1BA2
:104500000246124C22600024104D6C60D01808380E
:10451000C008C0000E4C206000240D4D2D686C605A
:104520000B4D2D682C601146441A4C60084C2468D1
:104530000C60084D4C682C60074D4C682C600124C1
:10454000E407064D2C6030BD300500201C01002022
:10455000240100202C01002028010020300100202F
:1045600000BF05F097FC13480068012801D909F045
:1045700085FA03F04DFE0446022C1AD309F0DAFB4B
:104580000D4800680D490968884201D3012000E008
:104590000020002803D10A490AA009F0A1F803F07D
:1045A00037FE0446022C02D3204609F067F90AF0D0
:1045B0005FFCD6E74004002004010020E800002052
:1045C000AB0A00002E2E5C6F732D6B65726E656CEE
:1045D0005C6B65726E656C5C7461736B732E6300EB
:1045E00010B500BF3D4807F033FD00BF3C48C47A1A
:1045F000012C00D102243A48C030406DC007C00FE2
:10460000A04201DB002C22D13548C030406D0007AC
:10461000400F03281BDA3248C030406DC006C00F7F
:10462000002814D12E48C030406D8006C00F0028ED
:104630000DD12B48C030406D4006C00F002806D178
:104640002748C030406D0006C00F002843D02448E2
:10465000C030406DC007C00FA04205DB002C03D066
:1046600020A007F099FC38E01D48C030406D0007DD
:10467000400F032803DB1DA007F08EFC2DE0184837
:10468000C030406DC006C00F002803D019A007F04D
:1046900083FC22E01248C030406D8006C00F002825
:1046A00003D016A007F078FC17E00D48C030406D2D
:1046B0004006C00F002803D012A007F06DFC0CE0EC
:1046C0000748C030406D0006C00F002805D00FA07D
:1046D00007F062FC01E002F0B5FC10BD0000FFFF36
:1046E000803C00206E662D6C6F63200073742D6C0F
:1046F0006F63200073652D6C6F6320006E632D6CFB
:104700006F6320006E672D6C6F63200073682D6CE3
:104710006F63200010B508220021294807F00BFD27
:1047200000BF284807F094FC00BF27484479204682
:10473000E117090F09180911244A515C204A117028
:10474000E117090F091809110901611A1F4A515C83
:104750001B4A51702D20114688700A21032007F052
:1047600003FC194804792046E117090F09180911BB
:10477000164A515C124AD170E117090F0918091144
:104780000901611A114A515C0D4A11710E48C47831
:104790002046E117090F091809110C4A515C084A13
:1047A0005171E117090F091809110901611A074A26
:1047B000515C034A9171104607F0EEFB10BD0000FA
:1047C0004D0000200000FFFF4001002068F00008BD
:1047D00088B00020079006F069FD07F0CFF806F0DA
:1047E000EBFE06F0BDFB03F0BBFE07F0CFFF07902A
:1047F0006CE007F0CBFF0799401A079000BF00223A
:10480000D243FF2101A808F0E5F801A807C804ABCE
:1048100007C307F0BBFF07900598C007C00F00282B
:1048200004D000202A49086003F0CEFB0821059837
:10483000084000280ED003F0A9FA06F00BFF01F0A3
:10484000EDFE02F097FD03F0F5FF05F09FF907F08C
:1048500051FD00BF022105980840002803D005F053
:104860007FFA01F0DBFE402105980840002801D0C6
:1048700002F080FD042105980840002811D006F0C0
:1048800097F900F07FF913480078002809D1124801
:10489000006D0002400F062803D101200D49087069
:1048A00000BF102105980840002801D002F07EFFCB
:1048B000202105980840002801D006F04DFB8021FA
:1048C00005980840002801D004F01EFB91E7000085
:1048D00034000020A8010020403D002001460020B7
:1048E00003290ED12F4A126D8B069A43D3182D4AF5
:1048F0001365526D40239A4340322A4B5A6501207A
:1049000046E002291ED1274A526D40239A43254B87
:104910005A651A46126D9200920F002A38D11A4633
:10492000126D03239B069A438B06D3181D4A136509
:10493000126D03231B079A43CB06D318194A13653C
:10494000012025E001290FD1164A526D40239A43D8
:10495000144B5A651A46126D03239B069A438B0625
:10496000D318104A136513E00E4A526D40239A4340
:104970000C4B5A651A46126D03239B069A43094B4A
:104980001A651A46126D03231B079A43054B1A65D5
:10499000032905D0034A526D40239A43014B5A65BF
:1049A00070470000403D002070B502460B460B48A2
:1049B000002110E0565C7040002408E0C507ED0FB0
:1049C0004010002D01D0064E7040661CB4B2082C79
:1049D000F4DB4E1CB1B29942ECDB70BDFFFF00006E
:1049E00001A00000FEB5204EFF2701377D20000109
:1049F0003B4632461DA100901DA0FFF73DFC054639
:104A0000002D01DC2846FEBD01AA1CA1304607F09E
:104A1000C3FC05B2002D01D12846F4E76846808822
:104A2000C01D81B2019169468988701801AA2C21A4
:104A300007F064FE0446632C01D0002C01D1002550
:104A40000FE06D25ED43601E401905B2681C00287B
:104A500000D1851E2046E10F0918C905090E094A33
:104A600011702846CFE70000050200204F4B0000E0
:104A700041542B434553510D0A0000002B4345532D
:104A8000513A2000BA0100207CB5164DFF260136B0
:104A90007D20000133462A4613A1009013A0FFF7A2
:104AA000EBFB0446002C01DC20467CBD01AA11A1D1
:104AB000284607F071FC04B2002C01D12046F4E72F
:104AC00068468088801D81B20191684680882918D7
:104AD00006220A4807F025FB002008498871204675
:104AE000E3E70000050200204F4B00004154490D50
:104AF0000A000000424332364E420000740000209B
:104B000010B506F0C3FE00BF184800690421084034
:104B1000002800D025E072B615480068401C1449F2
:104B2000086062B60120134908701348006806F057
:104B3000CBFD00BF1148007802280AD11048006D53
:104B40000721490588430121490541180C480165A1
:104B500006E00B48006D07214905884308490865B0
:104B600000BF00BF06F09EFE10BD00000008005010
:104B700090010020940100202C0000206C010020F6
:104B8000403D002010B51048006D0001800F002846
:104B900018D00D48006D0001800F012809D10B4885
:104BA00000688007800F00280CD10A2000F0E4FA8A
:104BB00008E00548006D0001800F012802DD0A2091
:104BC00000F0DAFA10BD0000403D00208C0100200A
:104BD0000C4840790C4908700A4800790B49087064
:104BE0000848C0780A490870064880780949087062
:104BF000044840780849087002480078074908705E
:104C00007047000040010020140000201500002023
:104C100016000020170000201800002019000020B6
:104C200010B50446206B08F0D3FD204608F0D0FDF7
:104C300010BD000010B512484488012C08D00A2C81
:104C400007D0642C0AD07D20C000201A10D10AE0C1
:104C500013E00C21032007F087F90EE00A2103205E
:104C600007F082F909E00821032007F07DF904E04C
:104C70000A21032007F078F900BF00BF10BD000033
:104C8000803C002010B50A21032007F06DF910BD0B
:104C900007E00278302A03D120220270401C00E095
:104CA00004E00A464B1E99B2002AF2D100BF7047B9
:104CB00088B0002601F072FD13E1002089490870D8
:104CC0007D20400107F055FD05F072FF0022D24320
:104CD0008548016801A807F06DFD01A807C805AB6C
:104CE00007C301207F49087005F0DCFF01F056FD85
:104CF0000598102800D0F4E0069804906846007CDF
:104D000008210840002802D002F018F8E9E06846BF
:104D1000007C02210840002877D000F03BFD0446CB
:104D2000002C05DC00207149087071490870D8E03A
:104D3000002500206F49087000BF01F029FD6D4873
:104D4000007800283ED16C480078002810D06846D2
:104D5000407C0D2804D00D216846417400218174E7
:104D60006548057802786549654807F0DAF929E071
:104D70006846407C072808D16846C27C0121490268
:104D80005F4805F011FC85B21CE06846407C0928AC
:104D90000BD100205B4908705B4908800121490262
:104DA000574805F0ABFA85B20CE06846407C0D2808
:104DB00008D16846C37C827C01214902504805F035
:104DC000A1FD85B2002D00D161E0002600BF701C5E
:104DD00086B200204D4908702946494801F0B6FBCB
:104DE000044600BF43480078022804D10024032071
:104DF0004049087041E0464AFF210131454802F030
:104E00002DF80446002C01D135E069E0002C00DAD1
:104E100033E0A1B201235B02394A3E4805F03EFE71
:104E2000044638480078002805D032480078002829
:104E300001D1012421E0002C18D134480078002849
:104E400014D0354AFF210131324802F007F80446F8
:104E5000002C00D10FE0002C00DA0EE0A1B20123FB
:104E60005B02274A2B4805F019FE0446002C01DDA1
:104E7000A5B202E000BF022EA9DD00BF002C03DDB9
:104E80001C480078032800D101E0A5B255E700BF17
:104E900000201649087008201549087001F04EFFDF
:104EA0001E48007C612803D106F072F8002817D054
:104EB0001A484038407A012803D102200B49087073
:104EC0000BE016484038407A022803D105200749F4
:104ED000087002E0072005490870002004490870A6
:104EE00000BFEAE6860000208C0000204B00002076
:104EF0004C00002092000020CD010020C03D002089
:104F000090350020CA010020C8010020CB010020FC
:104F1000E02E000005020020204E0000C03C0020D2
:104F20007CB5164DFF2601367D20000133462A460A
:104F300013A1009013A0FFF79FF90446002C01DC99
:104F400020467CBD01AA12A1284607F025FA04B22A
:104F5000002C01D12046F4E768468088083081B2F1
:104F6000019168468088291814220C4807F0D9F866
:104F700000200A4908752046E3E7000005020020EA
:104F80004F4B000041542B51434349440D0A00004C
:104F90002B51434349443A2000000000F001002017
:104FA0007CB5164DFF2601367D20C00033462A46CB
:104FB00013A1009013A0FFF75FF90446002C01DC59
:104FC00020467CBD01AA12A1284607F0E5F904B2EB
:104FD000002C01D12046F4E768468088C01D81B2CC
:104FE00001916846808829180F220B4807F099F82C
:104FF00000200949C8732046E3E7000005020020AD
:105000004F4B000041542B4347534E3D310D0A0096
:105010002B4347534E3A2000E0010020F8B50E4DD7
:10502000FF2601367D20000133462A460BA1009061
:105030000BA0FFF721F90446002C01DC2046F8BD47
:10504000122C01DA0020FAE710220349891C0748D4
:1050500007F067F82046F2E7050200204F4B0000FA
:1050600041542B43494D490D0A000000D001002056
:1050700000BFEFF30580002801D001207047002019
:10508000FCE7704770B500BF0E4806F0E1FF00BFB7
:1050900000200D49C8710D48846E04220CA10A48F5
:1050A00007F03FF80C492046FBF72AF90546032292
:1050B00029460548801D00F0B7FD034806F06CFF47
:1050C00070BD00000000FFFF4D000020403C0020AC
:1050D0006964683A000000008096980010B500BF2F
:1050E000074806F0B5FF00BF00200649C871064911
:1050F000044807F018F9034806F04EFF10BD000001
:105100000000FFFF4D000020553C002070B5134CFF
:10511000E01DF930456B08220021114807F00BF81B
:10512000072229460E48801D00F07EFD4221085BC3
:1051300000F063FD064631460948FFF7A9FD00BFB0
:10514000084806F085FF00BFFFF774FD0221032029
:1051500006F00AFF024806F01FFF70BD403C002029
:105160004D0000200000FFFF002002E000BF00BF54
:10517000401C3C28FAD3704710B5044606F014F9D9
:1051800006F044F9204607F0F4FA06F035F910BDB0
:10519000F8B5062408E0601E800021490858A100E7
:1051A0001F4A5050601E84B2002CF4DC1D48006879
:1051B0001B4908601C480088401C1B4908800846A1
:1051C000008806282ADB002008800A2408E0601EE8
:1051D000800016490858A100144A5050601E84B23D
:1051E000002CF4DC0E4800680D498969451A002D31
:1051F00000DA00252846FBF7F3FD07460C4909F0C5
:10520000BDFE06460B49FBF7D9FC0B490860084672
:105210000068FBF783FD054604480560F8BD000003
:105220008803002074010020C4000020A403002093
:10523000000070420000C040BC00002070B5054670
:1052400008F094FAA86BE96B884201D1012400E0D0
:10525000002408F099FA204670BD10B5044608F005
:1052600085FA14E0606A002801D1012000E00020E6
:10527000002808D12046243009F0A4FD002803D0DE
:1052800008F046FC00E005E0A06C401EA064A06CA5
:105290000028E7DC00BF0020C043A06408F074FAD7
:1052A00008F064FA14E02069002801D1012000E030
:1052B000002000280BD12046103009F083FD002883
:1052C00001D008F025FC606C401E606400E002E044
:1052D000606C0028E7DC00BF0020C043606408F079
:1052E00053FA10BD7CB525480078002800D17CBD5C
:1052F000234805682348006885423CD305F0D2FC6A
:1053000005F060FE08222049684606F00AFF1F48A3
:10531000807E632801DD992003E01C48807E1C49C3
:10532000085C6946C8701948C07E632801DD992071
:1053300003E01648C07E1649085C694688700C79FF
:10534000992C01DD632001E01248005D0446601CD9
:10535000C4B20C2C00DD0124632C01DD992001E096
:105360000B48005D04466846047107F0AFFD054632
:105370000448056000BF00BFB9E7000048000020F6
:10538000300000203C00002040010020A03D002013
:10539000F9F1000859F1000810B51348007C6328A2
:1053A00000DA10BD1148046811480068844219D31E
:1053B0000020104908600C48E030007D052802DA22
:1053C0000720487002E009200A4948700648E0308A
:1053D000007D0849C87002200870084605F0A0FD4D
:1053E00003F0B4FA00BFDCE7C03C0020300000202E
:1053F000400000208800002010B5044616480078C0
:10540000030004F037FE0906090D1511191D2521A9
:10541000250003F019F91CE0204602F055FF18E0C2
:10542000204604F0B1FC14E0204602F02FFA10E010
:10543000204603F04DFB0CE0204602F069FF08E037
:10544000204602F059FD04E0204603F05DFF00E035
:1054500000BF00BF10BD00004C00002010B5044686
:1054600016480078030004F005FE09060A0E16121D
:105470001A1E26222600204602F040F81CE0204694
:1054800002F022FF18E0204604F07EFC14E02046E3
:1054900002F0FCF910E0204603F01AFB0CE0204675
:1054A00002F036FF08E0204602F026FD04E0204628
:1054B00003F02AFF00E000BF00BF10BD4C00002039
:1054C00010B526480068002806D025480078002836
:1054D00002D101F027FA10BD21480078030004F042
:1054E000C9FD110A0F1215181B1E2124272A2D3061
:1054F0003339393639001B480068FFF77DFF2AE051
:10550000FFF7ECFD27E0FFF7BDFD24E0FFF7FEFD10
:1055100021E001F05BF91EE008F01EF81BE002F04C
:10552000D9F918E007F038FE15E007F0C7FE12E0E1
:1055300007F090FF0FE000F01BFD0CE0FFF7EAF82A
:1055400009E008F05BF806E002F00CF803E001F077
:10555000BFFF00E000BF00BF00BFBCE73400002079
:105560004B0000202800002088B00020079019E0A0
:105570000022D243012101A807F02CFA01A807C894
:1055800004AB07C30598C007C00F00280AD0FFF777
:10559000B7FA05480068002804D0042102480068D2
:1055A00007F0EEF9E4E700002000002010B5002429
:1055B0000848007802280AD103F01CFF0446002C9A
:1055C00006D010210448006807F0DAF900E0002452
:1055D000E0B210BD6C0100202000002010B5044690
:1055E0000F48C36920201840002816D007F0CEFDD0
:1055F0000B48406AC2B2104607F012F8094800880A
:10560000FF2808DC084807490988425405480088F3
:10561000401C04490880002010BD0220FCE7000067
:10562000004C00404E0100209037002070B503462A
:105630000C460020002B01D000251D70164D6D7A00
:10564000032D15D100210BE08E00134D8435AD598B
:10565000124E3668B54200DD04E000BF4D1CA9B211
:105660000529F1DB00BF8E000B4D9C35A85902E0E7
:10567000094DC035686B084DC0356D6B854206D04D
:10568000002B01D001251D70002A00D01170002CC4
:1056900000D0206070BD0000803C00207C01002014
:1056A0000146002000BF25E0144B1B5C302B0BDBB8
:1056B000124B1B5C392B07DC104B1B5C303BDAB206
:1056C00013071A0E0A7000E016E0431C98B20B4B49
:1056D0001B5C302B0ADB094B1B5C392B06DC074BB0
:1056E0001B5C303B9B18DAB20A7000E004E0431CFC
:1056F00098B2491C1028D7D300BF7047D0010020B2
:10570000F8B51C4EFF270137012220210520000794
:1057100006F0FCFA202211460520000706F082FB65
:10572000C82007F026F8002220210520000706F0F7
:10573000EDFA00250EE07D2000013B4632460EA129
:1057400000900EA0FEF798FD0446002C00D003E068
:10575000681C85B2032DEEDB00BF7D2000013B46B7
:10576000324605A1009007A0FEF786FD04462046BC
:10577000F8BD0000050200204F4B000041540D0A07
:105780000000000041542B534D3D4C4F434B0D0A3C
:1057900000000000F8B57C4DFF27013700207B4951
:1057A000087001207A490870002007F0D9FD06F042
:1057B000C1FEC82006F0DDFF4B20C00106F0DAFE76
:1057C00006F0E4FF0646DAE0002400F0E1FF71484D
:1057D0000078030004F04EFC0906A51731496882E1
:1057E0009394A50000F0F2FC0446002C03DD022097
:1057F0006849087006E0002C04D101F09FFA0020EF
:105800006449087093E07D20C00006F0B2FFFFF706
:10581000E9F80446002C0FD0601C002805D101F0E7
:105820008DFA00205B49087006E060B25A490870A2
:10583000012403205749087079E07D2000013B4690
:105840002A4656A1009058A0FEF716FD0446002CEB
:1058500005DA01F073FA00204E49087004E0002CCC
:1058600002D004204B49087061E07D2000013B46D6
:105870002A4650A1009052A0FEF7FEFC0446002CE0
:1058800004D152A1284606F05EFD04B2002C05DAD0
:1058900001F054FA00203F49087004E0002C02D0C7
:1058A00005203C49087042E07D2000013B462A4625
:1058B00049A1009049A0FEF7DFFC00F031FE04464C
:1058C000002C03DD06203349087006E0002C04D1CB
:1058D00001F034FA00202F49087028E000F068FD3C
:1058E0000446002C03DD07202A49087006E0002C3E
:1058F00004D101F023FA00202649087017E016E0D1
:10590000FFF7FEFE0446002C03DD07202149087046
:1059100006E0002C04D101F011FA00201D490870A6
:1059200005E001F00BFA00201A49087000BF00BF23
:10593000002C0BDA00201549087008201449087063
:1059400001F0FCF900201349087019E011480078B3
:10595000072801D1012413E006F018FF801B23491A
:1059600088420CD9002009490870082008490870AD
:1059700001F0E4F9002007490870002400E023E763
:1059800000BF2046F8BD0000050200204B000020AB
:105990004C000020870000206D0100202B43474170
:1059A00054543A203100000041542B434741545491
:1059B0003F0D0A002B43455245473A20302C310019
:1059C00041542B43455245473F0D0A002B43455256
:1059D00045473A302C3500004F4B000041542B43D3
:1059E00050534D533D300D0A00000000C0D401005B
:1059F000F3B581B0044600250094002748E00298E2
:105A0000C65D642E21DB64213046FAF783FC30301A
:105A10002070641C64213046FAF77CFCCEB20A2167
:105A20003046FAF777FC30302070641C0A2130468B
:105A3000FAF770FCCEB2304630302070641C2E2055
:105A40002070641C281D85B220E00A2E15DB0A2177
:105A50003046FAF75FFC30302070641C0A21304673
:105A6000FAF758FCCEB2304630302070641C2E203D
:105A70002070641CE81C85B208E03046303020708D
:105A8000641C2E202070641CA81C85B2781C87B270
:105A9000042FB4DB681E85B200210098415500BF79
:105AA0002846FEBDF8B500271F2408E0601E400010
:105AB0001349085A6100124A5052601E84B2002CE9
:105AC000F4DC0025182600240BE060000D49085E78
:105AD00045196000085EB84201DD60000F5E601C81
