:020000040800F2
:1000000048450020ED01000829350008EF340008BC
:1000100000000000000000000000000000000000E0
:10002000000000000000000000000000F9010008CE
:100030000000000000000000AB0100082D360008A1
:10004000FF010008FF0100081D360008FF0100083D
:10005000FF010008FD0D0008050E00080D0E000848
:10006000FF010008FF010008FF010008FF01000870
:10007000E50D0008FF010008D93C0008FF01000859
:10008000FF010008FF010008FF0100080000000058
:10009000FF010008FF010008FF010008FF01000840
:1000A000FF010008FF010008FF010008C93C00082B
:1000B000FF010008FF010008FF010008FF01000820
:1000C00000F002F800F030F80CA030C8083824180E
:1000D0002D18A246671EAB4654465D46AC4201D180
:1000E00000F022F87E460F3E0FCCB6460126334282
:1000F00000D0FB1AA246AB4633431847A8CD0000F8
:10010000C8CD00000023002400250026103A01D3AA
:1001100078C1FBD8520700D330C100D50B607047BF
:100120001FB51FBD10B510BD00F0FFFD1146FFF754
:10013000F7FF09F04FFF00F017FE03B4FFF7F2FFDF
:1001400003BC00F01DFE000070B505460C461646C7
:1001500002E00FCC0FC5103E102EFAD2082E02D3AB
:1001600003CC03C5083E042E07D301CC01C5361FBE
:1001700003E021782970641C6D1C761EF9D270BDD5
:10018000194B19680868203080F30988022080F331
:1001900014883FBCAE4662B600BD0000EFF310808D
:1001A00072B6704780F310887047EFF309800E4BEA
:1001B0001A6820381060F0C044464D4656465F46E7
:1001C000F0C008B572B60BF0D3F962B60CBC11687A
:1001D00008681030F0C8A046A946B246BB4680F376
:1001E00009882038F0C818477C000020094880475B
:1001F00009480047FEE7FEE7FEE7FEE7FEE7FEE709
:10020000016808467047000004480549054A064B46
:10021000704700003D360008C1000008483B002040
:10022000484500204843002048430020D2B210B582
:1002300013029A1813049A1800F00EF810BD01E08A
:1002400004C0091F0429FBD28B0701D50280801C42
:10025000C90700D00270704700290BD0C30702D035
:100260000270401C491E022904D3830702D5028074
:10027000801C891EE3E70022EEE70022DFE7002270
:1002800003098B422CD3030A8B4211D300239C46D3
:100290004EE003460B433CD4002243088B4231D34B
:1002A00003098B421CD3030A8B4201D394463FE0DF
:1002B000C3098B4201D3CB01C01A524183098B423F
:1002C00001D38B01C01A524143098B4201D34B0128
:1002D000C01A524103098B4201D30B01C01A52418B
:1002E000C3088B4201D3CB00C01A524183088B4212
:1002F00001D38B00C01A524143088B4201D34B00FB
:10030000C01A5241411A00D201465241104670476C
:100310005DE0CA0F00D04942031000D34042534071
:1003200000229C4603098B422DD3030A8B4212D331
:10033000FC22890112BA030A8B420CD38901921163
:100340008B4208D3890192118B4204D389013AD0A0
:10035000921100E08909C3098B4201D3CB01C01A75
:10036000524183098B4201D38B01C01A5241430988
:100370008B4201D34B01C01A524103098B4201D376
:100380000B01C01A5241C3088B4201D3CB00C01AE3
:10039000524183088B4201D38B00C01A5241D9D2FB
:1003A00043088B4201D34B00C01A5241411A00D27C
:1003B0000146634652415B10104601D34042002B78
:1003C00000D54942704763465B1000D3404201B5F7
:1003D0000020C046C04602BD70477047704700000D
:1003E000F0B5F94D0C091E092C402E402F468BB05C
:1003F000A7437DD0B543FCD0002E7AD0002CFCD092
:100400000D465D40ED0F2543AC1BFF25AD0464197F
:100410000894C502440DC9022143500DDC02044377
:100420000120C00701430443D2020191200C110CAA
:1004300000958C46010423468B430A9161460904CA
:10044000E24D8A430991010A7D44491980390978AE
:1004500005464D4301266D18F605751B6943C90C09
:10046000640B891C4C436418B5012C1B250C2E040D
:10047000B4434C434D43210C691889090591009DF3
:10048000E90701D00121C90704912C4601996708A9
:10049000CD072F434C08059DE10B4D432D0C2946FC
:1004A0006646754302950D4645432E46029D7D1BCB
:1004B000B44100950D465D4301942C0C2F040D466C
:1004C0005543AE462D0C3D43029503947546049C5E
:1004D0002D04641B049406D2029C039D641C002618
:1004E00075410395029401AC70CC009F7D1B01E027
:1004F0003EE162E1B4410904009507910194059938
:10050000A4086143090C0C464443650BE7040C4600
:1005100066467443A646640B3C43039502947446B6
:10052000049DE4042C1B049406D2029C039D641CCD
:10053000002675410395029401AC70CC009F7D1B91
:10054000B44101940C465C430095650FE7000C46EE
:100550005443A646640F3C43039502947446049D9D
:10056000E4002C1B049406D2029C039D641C00260C
:1005700075410395029401AC70CC009F7D1BB44182
:10058000AE09AF06049DC900AD092F43049DA40622
:10059000AD060495079D344369180791059DE10B4D
:1005A0004D432D0C29466646754302950D4645433D
:1005B0002E46029D7D1BB44100950D465D4301947E
:1005C0002C0C2F040D465543AE462D0C3D43029591
:1005D00003947546049C2D04641B049406D2029C6B
:1005E000039D641C002675410395029401AC70CCF8
:1005F000009F7D1BB44101948C050694079C890AD9
:10060000611800950791019C0599A4086143090CA4
:100610000D464543680BEF040D46644665436C0B7D
:100620003C43049FED047D1BAC4602D20025641CB4
:100630006841009E019D371B85410846584301953E
:100640000C46460FC5005443600F28436546E4003E
:100650002C1B02D20025401C6E41019D3F1AB54162
:100660002846BD09800628438446A009BF064E02DD
:100670000699A40676180743079D002068410A9949
:10068000079019430020099B00906046FF1913430F
:100690004041E20F64003A43A4460446D71A8C4115
:1006A000A04203D90120009020463A46C70F941873
:1006B00040416246D20F2243644664000494009C89
:1006C000BE466400D71AA446044602978C4177467A
:1006D000002F01D1A04204D96046401C8446029AF2
:1006E0002046C40FA64694184041049A0546D20FEE
:1006F000224364466400D31A8D417146002901D11A
:10070000A84202D928461A46641C10430122002838
:1007100000D0164361020020079B891904465C4102
:100720000223002C02DB491813466441089DCE0ABF
:100730002D145D194B056705E10A2C050D19089963
:100740003E43C9076940002B08D0934006D30022DE
:10075000761C5141002B01D1760876001C4A002DF1
:1007600043DB154241D0AA433FD030460BB0F0BD29
:1007700006180D464D41174C7642AC411AD39518D8
:100780001C465C41134A6D42A24113D3012252051B
:100790004C00D4420AD15C00D4420BD04B4002D56D
:1007A00092021143E2E749004908DFE75940C90FC7
:1007B000C90718E000200849D8E7054801420DD1D3
:1007C0000342F7D0F2E700000000FF07F2C6000086
:1007D0000000F07F0000E0FF0000F87F1148594062
:1007E0000143C01241400020C0E70123089A9B0644
:1007F0009A4205DC032252078918C90FC907B5E7D9
:10080000052252078918074A1143D2125140ADE719
:1008100070B515461C4602460B4628462146FFF792
:10082000DFFD70BDFFFFFF7F0346CA02400D10B51C
:1008300010430A1504D00124E4072043002A05DBF5
:100840000A4CA21A04D4D040FF2A00DD002010BDBB
:100850004A00002B01D0012000E0002010180122E6
:100860005205D042F2D8C817C04310BD1E04000084
:1008700010B50B1E01D0202301E0011E2BD00C0C63
:1008800001D10904103B0C0E01D10902083B0C0FE9
:1008900001D109011B1F8C0F01D189009B1E00296A
:1008A00001DB49005B1E0446DC4021431C05A41803
:1008B0002022D21A90404B05C20AC90A1A430919CC
:1008C000830501D1430818401623984002D3002025
:1008D000521C4141104610BDCA0FD20703D00B462F
:1008E000002140429941024B1A43C1E7004ABFE749
:1008F0000000D041F0B58B4C0F09254689B0BD43AF
:100900007BD01D092646AE43FAD00E465E402740F6
:10091000F60F3E43254071D024012142FBD0FF2435
:10092000AD19A4042D1B039501252D05DB02DB0A5F
:10093000C9022B43C90A29431E010901040F130FE1
:10094000050121431701880B820391432D098C4631
:10095000A90B1E438A039543B30B9A0396433F09A1
:10096000BA0B9403A74302962E467E430497B646DD
:100970004E19D7190C460196544305977E43371BF1
:100980007646BF1B3601B646BE0B36190096764634
:10099000BC043719009C01D3641C00946400002F30
:1009A00001D001263443029E049F754366467E4370
:1009B0000496760034196E0034190094029C019E4E
:1009C0001C196643751BAE46069465464519059C81
:1009D00005956C43594375460891691A0191049E27
:1009E00001465143A41B0491611A009C0791E10642
:1009F00005D061090122114302E072E06EE0610955
:100A0000089D00272C0A2D066918049D7C412A0A9E
:100A10002D066918019D6241AC0DAD026D1854415F
:100A2000079A910D920255196141029A6446584302
:100A30005443069B059A5A43121A131B9A0E9B01A4
:100A40005B187A41010B0005C3185141220A2006A8
:100A500044195A419A4200D2491C01204002814265
:100A600003D315230226F64302E014230326F6439C
:100A70002020C51AA9401746AF40DA400A43204655
:100A80000399D8400914731819055118039A38436B
:100A9000D2075140AC4009D00122944006D3002235
:100AA000401C5141002C01D1400840001E4A934295
:100AB00012D3012203989206904207DB05204007DB
:100AC00009181A480143C012414004E003204007BE
:100AD0000818C10FC907002009B0F0BD0020F107B8
:100AE000FAE705180C464C4111486D42A04115D358
:100AF00094181A465A410E48644290410ED3012080
:100B00004A004005824209D35A00824206D3594026
:100B1000C90F084AC90700201143DDE70020064934
:100B2000DAE700000000FF07FE070000FFFFFF7F7D
:100B30000000E0FF0000F07F0000F87FF0B5FF2527
:100B40002D04C609C209FF2704462E400137CB09F0
:100B50003E4348402A402B400746002A6BD0002BDA
:100B600069D0AA4267D0AB4265D0002800DA32468D
:100B70000125ED0529432C4309022002090AD21A56
:100B80004B0C7F24E31A434C000A7C44E35C7D2435
:100B90002404121914145B00A218884201D3521CB9
:100BA00000E0400049420C465C4324115C43DB01F9
:100BB0006415E318040A5C43C502200D0C46444347
:100BC0006419250A5D432303EC0C0D4665430003BD
:100BD0000019EB184C42A34201D35B18401CD4050A
:100BE0002018002B07D05B00C91804D3401C002933
:100BF00001D1400840003F2189048A4209D3002ADC
:100C000008DC1106090F04D0032149074018C00F62
:100C1000C007F0BD01224100120689187F2252064A
:100C20009142F6D205214907C84201D59010F0BD86
:100C3000FF20C005F0BD002F00DA32461648AA4258
:100C400007D2AB4205D21902090E17D0F80FC00720
:100C5000F0BDFF2563002D06AB42F9D84900A9423B
:100C6000F6D8AB4201D1A942F2D0A94201D100216C
:100C700001E061004908D0050843F0BD1102090EEA
:100C8000FBD0FF200243D005F0BD0A4601461046C6
:100C900054E7000030C000000000C07F0102C21510
:100CA00004D00123DB071943002A0ADB9E239A1A8A
:100CB00002D40846D0407047FF22410012069142FC
:100CC00001D900207047C017C04370471F22030C92
:100CD00002D10F2200041CD0030E01D10002083AF9
:100CE000030F01D10001121F830F01D18000921E5A
:100CF000002801DB4000521ED20551180212511883
:100D00001922904004D3491C002801D14908490008
:100D100008467047C10FC90700D040420122920720
:100D20001143D3E701218907D0E7754600F024F885
:100D3000AE46050069465346C008C000854618B057
:100D400020B5FFF761FA60BC00274908B6460026C7
:100D5000C0C5C0C5C0C5C0C5C0C5C0C5C0C5C0C56B
:100D6000403D49008D46704710B50446C046C04618
:100D70002046FFF7E2F910BD00487047E43A002032
:100D800001491820ABBEFEE726000200704770B58F
:100D90008C180578401C6B075B0F01D10378401C51
:100DA0002A1106D10278401C03E00678401C0E7020
:100DB000491C5B1EF9D12B0705D40023521E0DD40C
:100DC0000B70491CFAE70378401CCB1A921C03E015
:100DD0001D780D70491C5B1C521EF9D5A142D8D359
:100DE000002070BD10B5034800F062FB024800F01F
:100DF000D4F810BD9C330020B436002010B506F0A6
:100E000041FB10BD10B506F06DFB10BD10B506F02E
:100E100071FC10BD70B5044600F044FD05460BE0C2
:100E2000601C002808D0002C04D000F03BFD401BC3
:100E3000A04201D9032070BD24488069C007C00FBB
:100E40000121484048400028EAD120488069022119
:100E50000840022801D11D4988611C488069FF2192
:100E600001310840000A002829D11848806949004A
:100E70000840400A002822D11448806949000840EF
:100E8000800A00281BD11148806949000840C00A27
:100E9000002814D10D48806989000840400B0028C3
:100EA0000DD10A48806909010840400C002806D18C
:100EB0000648806949100840000C002803D004F05F
:100EC000C5FB0120B7E70020B5E700000020024085
:100ED000F8B504460F460025002600BF5420005DEB
:100EE000012801D10220F8BD01215420015500BF85
:100EF000206880688007800F012806D1206800687C
:100F00000840002801D0012000E0002000282FD157
:100F1000A06DFF210131884302210843A0652068AC
:100F20008068890708432168886000F0BBFC06469A
:100F300011E000F0B7FC801B0A280CD9A06D02213B
:100F4000884310210843A06500BF002154200155AB
:100F500000BF0120C7E720688068C00FC0070028D5
:100F6000E7D1A06D0221884301210843A06504E078
:100F7000A06D20210843A065012500BF0021542059
:100F8000015500BF2846AEE7704770470146886D9F
:100F9000704701460868006C704710B50446206829
:100FA000006804210840042804D1206840680840F3
:100FB00004280AD02068006808210840082840D189
:100FC00020684068084008283BD1A06D10210840E7
:100FD000002803D1A06D49010843A0652068C068BE
:100FE000032189020840002825D1A06A002822D1C7
:100FF000206800680821084008281CD12068806803
:1010000004210840800800280DD1206840680C2188
:10101000884321684860A06DFF2101318843012188
:101020000843A06507E0A06D20210843A065E06D9E
:1010300001210843E0652046FFF7A6FF0C20216848
:101040000860206800688021084080280ED1206850
:1010500040680840802809D1A06D49020843A06576
:10106000204600F03FF98020216808602068006871
:101070001021084010281AD1206840680840102824
:1010800015D1206C002805D02068C068C007C00FAB
:10109000002809D0E06D02210843E0651020216896
:1010A00008602046FFF771FF10202168086010BD1E
:1010B00010B50446002C01D1012010BDA06D002800
:1010C00006D1E065002154200155204600F00CF9BE
:1010D000A06D10210840002806D1206880680421F6
:1010E0000840800800280AD0A06D10210843A065A0
:1010F00000BF00215420015500BF0120DDE7A06D95
:10110000FF210131884302210843A06520688068DF
:101110008007800F012807D120680068C007C00F32
:10112000002801D0012000E0002000283AD100BFB3
:10113000032189076069884207D049426069884273
:1011400003D04900606988420CD1206800698000A2
:101150008008216808612068006961690843216886
:10116000086112E020680069800080082168086139
:10117000594880680F218904884357498860084688
:101180008068616908435449886000BF2068C0686E
:10119000182188432168C8602068C068A169084395
:1011A0002168C8604C4880680121490688434A4943
:1011B000886008468068A16C4906084346498860F3
:1011C00020688068012109070840002804D12068B0
:1011D00080680843216888602068C0683F490840EB
:1011E0002168C860216A606A022901D1042100E0F7
:1011F00000210843A16A49030843A16B4900084341
:10120000216C0843616C89030843E16CC9030843FE
:101210002168C96808432168C860FF21C231206B7A
:10122000884207D0616B206B08432168C968084376
:101230002168C860E06A012812D1A06A002807D19D
:101240002068C0680121090408432168C86007E0DC
:10125000A06D20210843A065E06D01210843E065F1
:101260006068012816D1206800691D49084021687E
:101270000861A168E0680843216908432168096999
:10128000084321680861206800690121084321683A
:1012900008610BE020680069C007C00F002805D076
:1012A00020680069400840002168086120684069A2
:1012B000C008C0002168486120684069E1690843AE
:1012C000216848610020E065A06D0221884301216A
:1012D0000843A0650020F0E6002701401902FEFF48
:1012E00003FCFF7F7047000010B504460448406BC4
:1012F0000121490208430249486305F033F910BD52
:1013000000100240F8B504460D46E06B082801D1F4
:10131000082711E02068C068C007C00F00280AD065
:10132000A06D20210843A06500BF00215420015575
:1013300000BF0120F8BD0C2700F0B4FA064614E007
:10134000681C002811D0002D04D000F0ABFA801BDF
:10135000A8420AD9A06D04210843A06500BF00215E
:101360005420015500BF0320E4E72068006838409E
:101370000028E5D0A06D012149020843A06520683E
:10138000C068032189020840002825D1A06A0028EE
:1013900022D1206800680821084008281CD1206854
:1013A000806804210840800800280DD1206840682A
:1013B0000C21884321684860A06DFF2101318843DA
:1013C00001210843A06507E0A06D20210843A06526
:1013D000E06D01210843E065606C002802D10C201B
:1013E000216808600020A5E770B504460025206844
:1013F000806804210840800800282BD100BF5420B9
:10140000005D012801D1022070BD01215420015549
:1014100000BFE06C012803D0204602F065FC0546C1
:10142000002D18D1A06D0D490840FF21013108435E
:10143000A0650020E06500BF00215420015500BFD9
:101440001C20216808602068806804210843216806
:10145000886000E002252846D6E70000FEF1FFFF85
:1014600070B50446002500BF5420005D012801D15D
:10147000022070BD01215420015500BF204604F018
:10148000AFF80546002D0CD1204602F00BFD0546B5
:10149000002D06D1A06DFF210131884301210843B1
:1014A000A06500BF00215420015500BF2846E0E799
:1014B00070B5044615492068884202D101204005D4
:1014C00001E00120800505460120400585420BD141
:1014D0000F48406929460840002805D008460C49B5
:1014E0004861204600F016F80120800585420BD1A6
:1014F0000748406929460840002805D008460449A5
:101500004861204600F006F870BD00001800014058
:10151000000401407047000003484068022108436E
:101520000149486000207047002002400D48406893
:1015300002210840002810D00A484068C007C00FA8
:10154000002804D008480749C8600848C86008480F
:10155000044908610748086101E001207047002044
:10156000FCE7000000200240EFCDAB890504030238
:10157000BFAE9D8C16151413F0B50B46002100224A
:10158000002479E001258D401D402A46002A72D0B2
:1015900005684F000326BE40B5430560CD08AE0088
:1015A00005462035AD594E07F70E0F26BE40B54310
:1015B000CE08B60007462037BD5185684F00032688
:1015C000BE40B5438560456801268E40B543456001
:1015D000C5684F000326BE40B543C560294D8E083F
:1015E000B600AC598D072E0F0F25B5402C400525B0
:1015F0002D07A84201D1002519E0234DA84201D1B1
:10160000012514E0214DA84201D102250FE0204D13
:10161000A84201D103250AE01E4DA84201D10425AC
:1016200005E01D4DA84201D1052500E006258E07E5
:10163000360FB540A5421ED18D072E0F0F25B540A0
:101640002C46104D8E08B600AD59A5430D4E8F089F
:10165000BF00F551114D2D689543104E356035464C
:101660006D68954375603546AD689543B560354600
:10167000ED689543F560491C1D46CD40002D81D194
:10168000F0BD0000080001400004005000080050B8
:10169000000C005000100050001C005000040140DD
:1016A00070B50346002200240020DFE001269640AA
:1016B0000D6835402C46002C77D04D68022D02D0A5
:1016C0004D68122D15D1D508AE001D462035A859FC
:1016D0005507EE0E0F25B5400646AE433046560779
:1016E000F60E0D69B5402843D508AD001E462036DC
:1016F00070514D68012D08D04D68022D05D04D6800
:10170000112D02D04D68122D18D19868560003256E
:10171000B5400646AE4330465600CD68B540284336
:1017200098605868012595400646AE43304610261D
:101730004D6835402D09954028435860186856007B
:101740000325B5400646AE4330460D79AD07AD0FD3
:101750005600B54028431860D86856000325B540A8
:101760000646AE43304656008D68B5402843D860E3
:10177000012636074D683540B54276D13E4D6D6B3A
:10178000012635433C4E75633C4D9608B600A8597A
:1017900095072E0F0F25B5400646AE43304605256A
:1017A0002D07AB4202D100251AE05EE0344DAB427A
:1017B00001D1012514E0334DAB4201D102250FE0E8
:1017C000314DAB4201D103250AE0304DAB4201D18E
:1017D000042505E02E4DAB4201D1052500E006258C
:1017E0009607360FB5402843244D9608B600A851F9
:1017F000284D28680546A5432846012636044D682D
:101800003540B54202D1054625432846214D286082
:1018100068680546A5432846012676044D6835408C
:10182000B54202D10546254328461A4D6860A8688E
:101830000546A5432846012636054D683540B54284
:1018400002D1054625432846124DA860E8680546A2
:10185000A5432846012676054D683540B54202D19C
:101860000546254328460B4DE860521C0D68D540BF
:10187000002D00D01AE770BD0010024008000140A2
:101880000004005000080050000C005000100050F0
:10189000001C005000040140002A01D0816100E0DA
:1018A000816270470148006870470000E000002036
:1018B00002480068401C014908607047E0000020B1
:1018C00070B5044600F024FC05467D21C900FEF7F2
:1018D000D6FC401E054948610720086100222146C8
:1018E000501E00F087F9002070BD000000E000E00D
:1018F00070B50446002600253520005D012803D080
:101900003520005D022837D100BF3420005D01285A
:1019100001D1022070BD01213420015500BF0221F8
:1019200035200155FFF7BEFF06460FE0FFF7BAFF6F
:10193000801B7D21C900884208D90220A06300BF16
:1019400000213420015500BF0320E3E720688068B0
:101950000421084080080028E8D1002505E0002186
:1019600020681430AA0081506D1C0F2DF7D9204635
:1019700000F0AAF80020CDE70120CBE770B50446BF
:1019800000260025002C01D1012070BD3520005D0E
:10199000002807D100BF00213420015500BF204698
:1019A00000F07EF8022135200155206800684008CB
:1019B000400021680860002506E0002120681430FE
:1019C000AA008150681CC5B20F2DF6D92068806826
:1019D0000421084321688860A16860680843A16AFF
:1019E0000843E16A0843E1690843216A0843A169A1
:1019F0000843616A084321684968284A114008433E
:101A000021684860204601F074FD2169E0680843C0
:101A100061690843216B084321680968FE229143EC
:101A20000843216808602068006801210843216894
:101A30000860FFF737FF06460AE0FFF733FF801B19
:101A40007D21C900884203D90820A06303209CE7B8
:101A500020688068C007C00F012148404840002826
:101A6000EBD0FFF71FFF06460AE0FFF71BFF801BC6
:101A70007D21C900884203D91020A063032084E798
:101A8000206880681021084000090028EDD000205F
:101A9000A063012135200155002076E70F0000FCEE
:101AA00010B5044603F0A4FB0548806B01214902F0
:101AB00008430349886301200249088010BD0000E3
:101AC000001002403601002070B5044600250820B1
:101AD0002168C86020688068042108432168886004
:101AE000FFF7E0FE05460FE0FFF7DCFE401B7D211F
:101AF000C900884208D90420A06300BF0021342017
:101B0000015500BF032070BD20688068082108408F
:101B1000C0080028E8D001213520015500BF002170
:101B20003420015500BF0020EDE7F8B504460D460E
:101B300016461F46002000903520005D012803D086
:101B40003520005D02283AD13520005D012829D1D9
:101B500000BF3420005D012801D10220F8BD012121
:101B60003420015500BF022135200155FFF79AFEB0
:101B7000009010E0FFF796FE0099401A7D21C90001
:101B8000884208D90220A06300BF002134200155FB
:101B900000BF0320E2E72068806804210840800835
:101BA0000028E7D120681430A9004058F143884349
:101BB000384321681431AA0088500020CEE7012064
:101BC000CCE7000000BFC206D20E01219140024ABC
:101BD000116000BF7047000080E100E000BFC20656
:101BE000D20E01219140024A116000BF70470000EF
:101BF00000E100E070B504460D4616462946204631
:101C000003F0C0F870BD000003480068012189029C
:101C100008430149086070470070004003480068AD
:101C200001214902084301490860704700700040E3
:101C300003480068FF2101310843014908607047EB
:101C40000070004010B5024600200B4B1868800859
:101C50008000034613431846074B1860074B1B6967
:101C60000424A343054C2361012901D130BF02E0C4
:101C700040BF20BF20BF10BD0070004000ED00E05D
:101C800010B5024600200E4B1868800880000346FD
:101C9000134318460A4B18600A4B1B69042423435C
:101CA000084C2361012901D130BF02E040BF20BFB1
:101CB00020BF044B1B690424A343024C236110BDC5
:101CC0000070004000ED00E070B5044600250026DD
:101CD000202120680840202804D08901206808407D
:101CE000884277D191480068032109050840032202
:101CF0001205A1691140884207D18C48006811463D
:101D00000840E169114088420ED003210904A0690E
:101D10000840884208D185480068012149040840EC
:101D2000002801D0012070BD8048806B0121090787
:101D300008437E4988637E480068891508437C49CA
:101D40000860FFF7AFFD054606E0FFF7ABFD401B5F
:101D5000642801D90320E6E775480068FF210131B6
:101D600008400028F1D0714840300069032109047F
:101D7000084003221204A1691140884208D16B482F
:101D80004030006911460840E169114088425CD04A
:101D900066484030006903210904884306466348C9
:101DA000403000690121C90408436049403108619D
:101DB000084600690121C90488435C494031086133
:101DC0000846066140153040002815D0FFF76AFD2F
:101DD000054608E039E0FFF765FD401B554988429C
:101DE00001D903209FE75148403000690121490291
:101DF0000840400A0028EED000BF03210904A06972
:101E0000084088420BD149480068090188430322F1
:101E10001205A169114008434449086006E043489F
:101E20000068032109058843404908603F48403065
:101E3000006903210904884303221204A1691140A7
:101E400008433A494031086100BF2078C007C00FFD
:101E5000002809D035484030C0688008800061689B
:101E6000084332494031C8600221206808400228F6
:101E700009D12E484030C0680C218843A16808432E
:101E80002A494031C86004212068084004280AD14A
:101E900026484030C068032189028843E16808432E
:101EA00022494031C86008212068084008280AD12A
:101EB0001E484030C0680321090388432169084354
:101EC0001A494031C860FF2101312068084088422A
:101ED0000AD116484030C06803210904884361696B
:101EE000084312494031C86040212068084040281A
:101EF00009D10E484030C06809058843216A08436B
:101F00000A494031C86080212068084080280AD1F1
:101F100006484030C068032189048843616A084349
:101F200002494031C8600020FDE600000010024078
:101F3000007000408813000070B504460D4600266E
:101F400070480068C007C00FA8420ED26D480068F4
:101F50004008400028436B49086008460068C007F5
:101F6000C00FA84201D0012070BD022120680840A6
:101F7000022807D16448C068F0218843A16808435B
:101F80006149C8602078C007C00F00284CD0606845
:101F9000022809D15C480068012149040840400C2E
:101FA000002824D10120DFE76068002809D15648C5
:101FB0000068012149020840400A002817D1012089
:101FC000D2E76068032809D14F480068012149061B
:101FD0000840400E00280AD10120C5E74A480068A1
:101FE000042108408008002801D10120BCE74648B0
:101FF000C06880088000616808434349C860FFF7F3
:1020000051FC0646606802280FD107E0FFF74AFC42
:10201000801B3E49884201D90320A5E73A48C068A1
:102020000C2108400828F1D134E0606803280FD162
:1020300007E0FFF737FC801B3449884201D90320B1
:1020400092E73148C0680C2108400C28F1D121E00A
:10205000606800280FD107E0FFF724FC801B2B49A4
:10206000884201D903207FE72748C0680C21084037
:102070000028F1D10EE007E0FFF714FC801B234994
:10208000884201D903206FE71F48C0680C2108402F
:102090000428F1D11B480068C007C00FA8420ED326
:1020A0001848006840084000284316490860084660
:1020B0000068C007C00FA84201D0012054E70421E6
:1020C00020680840042808D10F48C0680721090289
:1020D0008843E16808430C49C8600821206808402B
:1020E000082809D10848C0680721C9028843216926
:1020F000C90008430449C8600020FFF7E1FB002045
:1021000032E7000000200240001002408813000067
:1021100010B500F037F80649C968F02211400909E6
:10212000044A515CC840044908600846006810BD74
:1021300000100240C6C20008DC00002010B5FFF706
:10214000E7FF0549C968072212021140090A034A3C
:10215000515CC84010BD000000100240C6C200081B
:1021600010B5FFF7D5FF0549C9680722D202114013
:10217000C90A034A515CC84010BD0000001002406B
:10218000C6C20008F8B500240026002000900027F1
:10219000002532484068072149030840470B2F4873
:1021A000C0680C210840002806D0042809D008285F
:1021B00011D00C2849D110E0781C01218140CD03B9
:1021C00048E02648006810210840002801D0244D2E
:1021D00000E0244D3EE0244D3CE02048C0680F2143
:1021E0008904084004461D48C06803218905084049
:1021F0000646A00C1D490C5CB00D461C1748C06873
:1022000001210904084000900098002815D11348C6
:10221000006810210840002807D011496143084692
:102220003146FEF72CF805460EE00E49614308469C
:102230003146FEF724F8054606E00B49614308469F
:102240003146FEF71CF8054604E0781C0121814068
:10225000CD0300BF00BF2846F8BD000000100240BB
:1022600000093D000024F40000127A00BDC20008FD
:10227000F8B5044600252078C007C00F00286FD0AD
:10228000F948C0680C21084008280BD0F648C068FF
:1022900008400C2813D1F448C06801210904084003
:1022A00088420CD1F0480068012149040840400CE4
:1022B000002869D06068002866D10120F8BD00BF01
:1022C000012109046068884205D1E7480068084395
:1022D000E54908602DE0052109046068884215D1B0
:1022E000E1480068012109048843DF490860084685
:1022F0000068012189040843DB490860084600683A
:10230000012109040843D849086012E0D648006852
:10231000012109048843D449086008460068012166
:10232000090408400090D048006889008843CE49DD
:10233000086000BF6068002813D0FFF7B3FA0546B5
:1023400006E0FFF7AFFA401B642801D90320B5E788
:10235000C5480068012149040840400C0028F0D01D
:1023600012E0FFF79FFA054606E0FFF79BFA401BD5
:10237000642801D90320A1E7BB4800680121490472
:102380000840400C0028F0D10221206808400228B3
:102390006AD1B548C0680C21084004280BD0B24867
:1023A000C06808400C281DD1AF48C068012109044D
:1023B0000840002816D1AC48006804210840800875
:1023C000002804D0E068012801D0012076E7A64863
:1023D00040681F2109028843216909020843A24974
:1023E000486041E0E068002824D09F480068092147
:1023F0008843E16808439C490860FFF753FA0546A3
:1024000006E0FFF74FFA401B022801D9032055E7E9
:10241000954800680421084080080028F1D09248BF
:1024200040681F21090288432169090208438E4937
:10243000486019E08C48006809218843E168084336
:1024400089490860FFF72EFA054606E0FFF72AFAE9
:10245000401B022801D9032030E78348006804218B
:10246000084080080028F1D1102120680840102879
:1024700072D17D48C0680C210840002822D17A48DA
:102480000068012149020840400A002804D0E069A0
:10249000002801D1012011E7734840680721490352
:1024A0008843616A084370494860084640680002F2
:1024B000000A218C090608436B4948600020FFF799
:1024C000FFF949E0E06900282CD067480068FF2147
:1024D0000131084364490860FFF7E4F9054606E066
:1024E000FFF7E0F9401B022801D90320E6E65E4829
:1024F0000068012149020840400A0028F0D05A48EB
:102500004068072149038843616A08435649486087
:10251000084640680002000A218C09060843524917
:10252000486019E050480068FF21013188434E4956
:102530000860FFF7B7F9054606E0FFF7B3F9401B5F
:10254000022801D90320B9E6474800680121490261
:102550000840400A0028F0D10821206808400828D7
:1025600039D1606900281BD03F4840300069012103
:1025700008433D4940310861FFF794F9054606E0FC
:10258000FFF790F9401B022801D9032096E6364850
:10259000403000690221084040080028F0D01AE0CD
:1025A000314840300069400840002F4940310861FF
:1025B000FFF778F9054606E0FFF774F9401B02289B
:1025C00001D903207AE628484030006902210840FA
:1025D00040080028F0D1202120680840202850D150
:1025E000A069002826D000BF1F4880680121084349
:1025F0001D4988600846406B012108431A49486319
:102600001A48006A491408431849086200BFFFF7D6
:1026100049F9054606E0FFF745F9401B022801D9B4
:1026200003204BE61048806802210840400800283B
:10263000F1D026E000BF0C488068400840000A49FD
:1026400088600A48006A0A4908400849086200BFD1
:10265000FFF728F905460DE0FFF724F9401B022893
:1026600008D903202AE600000010024000000140C3
:10267000FEDFFFFF9B4880680221084040080028D9
:10268000EAD104212068084004287DD100260027D3
:102690009448806B89060840002805D19148806BDA
:1026A00008439049886301268F480068FF21013163
:1026B0000840002817D18C48006808438A49086000
:1026C0000127FFF7EFF8054606E0FFF7EBF8401BA0
:1026D000642801D90320F1E583480068FF21013116
:1026E00008400028F1D000BFFF210131A0688842D6
:1026F00007D17C484030006908437A49403108617D
:1027000040E0A068002810D1764840300069FF21E1
:102710000131884373494031086108460069091551
:1027200088437049403108612CE005210902A06806
:10273000884217D16B4840300069FF21013188433E
:102740006849403108610846006909150843654930
:1027500040310861084600698915084361494031E4
:1027600008610FE05F4840300069FF210131884374
:102770005C49403108610846006909158843594998
:102780004031086100BF00E03EE0A068002815D09D
:10279000FFF788F8054607E0FFF784F8401B534928
:1027A000884201D9032089E54E4840300069012163
:1027B00049020840400A0028EED014E0FFF772F802
:1027C000054607E0FFF76EF8401B4849884201D9EB
:1027D000032073E543484030006901214902084065
:1027E000400A0028EED1012F05D13F480068390288
:1027F00088433D490860012E05D13A48806B310776
:1028000088433849886300BFA06A002867D03548EC
:10281000C0680C2108400C285FD0A06A022841D172
:10282000304800680121090688432E490860FFF7F7
:1028300039F8054606E0FFF735F8401B022801D9B4
:1028400003203BE527480068012149060840400E67
:102850000028F0D1616B206B0843E16A08432149ED
:10286000C968FD221204914308431E49C860084606
:1028700000680121090608431A490860FFF712F8A9
:10288000054606E0FFF70EF8401B022801D9032099
:1028900014E514480068012149060840400E00284C
:1028A000F0D01CE00F4800680121090688430D495B
:1028B0000860FEF7F7FF054606E0FEF7F3FF401B52
:1028C000022801D90320F9E40648006801214906DD
:1028D0000840400E0028F0D101E00120EEE4002085
:1028E000ECE400000010024000700040881300007B
:1028F00010B50446002C01D1012010BD20680068ED
:102900000C21884321680860206840686021884362
:1029100021684860204600F06BF80020607100BF1D
:10292000207100BF00BFE8E7F8B504460D46002659
:10293000002700BF2079012801D10220F8BD012025
:10294000207100BF6079012825D102206071FEF757
:10295000A9FF06460EE0FEF7A5FF801B7D21C900FA
:10296000884207D90420607100BF0020207100BF99
:102970000320E3E720684068C007C00F01214840FA
:1029800048400028E7D020688068A060A0682860E0
:102990000120607100E0012700BF0020207100BF0E
:1029A0003846CBE710B50446002C01D1012010BDFC
:1029B00000BF2079012801D10220F8E70120207111
:1029C00000BF6079002803D12071204600F052F842
:1029D00002206071206800680421084321680860B3
:1029E0000120607100BF0020207100BF00BFDEE742
:1029F00010B598B004461E48006B01210905084334
:102A00001B49086338210AA8FDF737FC28216846CE
:102A1000FDF733FC20200A900020149010900AA8A3
:102A2000FFF726FC002801D000BFFEE74020009001
:102A3000000508906846FFF747F9002801D000BF5D
:102A4000FEE70B48006B012109058843084908632C
:102A50000846006A0121090508430549086208463D
:102A6000006A0121090588430149086218B010BDB8
:102A70000010024010B598B0044638210AA8FDF7AE
:102A8000FCFB28216846FDF7F8FB20200A90002077
:102A90001490012010900AA8FFF7EAFB002801D04B
:102AA00000BFFEE740200090000508906846FFF751
:102AB0000BF9002801D000BFFEE70448006B01219C
:102AC000090508430149086318B010BD0010024011
:102AD00070B50446002500BF2020005D012801D10B
:102AE000022070BD01212020015500BF02212120BC
:102AF000015500BFCA2021684862532021684862FE
:102B000000BF2068806801218902884321688860AD
:102B10002068806801218903884321688860FEF766
:102B2000C1FE054615E0FEF7BDFE401B7D21C90034
:102B300088420ED900BFFF202168486200BF0321F0
:102B40002120015500BF00212020015500BF032096
:102B5000C7E72068C0680421084080080028E2D048
:102B600000BFFF202168486200BF012121200155DC
:102B700000BF00212020015500BF0020B1E7000068
:102B8000F8B504460D461646002700BF2020005D1C
:102B9000012801D10220F8BD01212020015500BFEC
:102BA00002212120015500BFCA202168486253201C
:102BB0002168486200BF20688068012189020840BE
:102BC000002820D0FEF76EFE074615E0FEF76AFEED
:102BD000C01B7D21C90088420ED900BFFF2021689B
:102BE000486200BF03212120015500BF00212020A1
:102BF000015500BF0320CEE72068C06804210840CB
:102C000080080028E2D12068806801218902884379
:102C100021688860FEF746FE074615E0FEF742FE93
:102C2000C01B7D21C90088420ED900BFFF2021684A
:102C3000486200BF03212120015500BF0021202050
:102C4000015500BF0320A6E72068C06804210840A2
:102C500080080028E2D02068456120688068C008AC
:102C6000C0002168886020688068304321688860DF
:102C70001548006801210905084313490860084602
:102C800080680121090508430F4988602068806831
:102C90000121890308432168886020688068012138
:102CA000890208432168886000BFFF2021684862CC
:102CB00000BF01212120015500BF00212020015526
:102CC00000BF002067E700000004014010B5044683
:102CD0000748006804210843054908600548006862
:102CE000002804D008210348006807F0CFF910BD80
:102CF000007000401400002010B504462068C06831
:102D0000012189020840800A00280AD02046FFF7E6
:102D1000DDFF2068C068802108400649084321681B
:102D2000C8600120000504494861012121200155A6
:102D300010BD00007FFBFFFF0004014010B50446FA
:102D4000002C01D1012010BD2120005D002805D1FB
:102D5000002120200155204600F054F802212120B6
:102D6000015500BFCA20216848625320216848628B
:102D700000BF204600F030FC002809D000BFFF2033
:102D80002168486200BF0421212001550120DAE7B3
:102D9000206880681A490840216888602169606855
:102DA0000843A1690843216889680843216888604D
:102DB0002168E068086120680069218909040843E6
:102DC000216808612068C068802188432168C86044
:102DD0002068C06C800880002168C8646169E0696F
:102DE00008432168C96C08432168C86400BFFF20FC
:102DF0002168486200BF0121212001550020A2E77F
:102E0000BFFF8FFF10B598B004461B48806B0121AF
:102E10000907084318498863FEF70AFF0C200A9047
:102E200000201490FF2001300C9000200F900AA881
:102E3000FFF71EFA002801D002F06CFD2020009060
:102E4000C00206906846FEF73FFF002801D002F05E
:102E500061FD0948403000690121890408430649A1
:102E600040310861002211460220FEF7C3FE022015
:102E7000FEF7B4FE18B010BD00100240F8B50446CD
:102E80000D461646002700BF2020005D012801D115
:102E90000220F8BD01212020015500BF0221212080
:102EA0000155002E09D1687810210840102804D15E
:102EB0006878EF2108400A306870002E11D1E87858
:102EC00000F07DFB0304687800F079FB0002034307
:102ED000A87800F074FB03432878400303431F469F
:102EE00012E0687800F05EFB0746A87800F05AFB15
:102EF0000746E8780004697809020843A97808437E
:102F0000297849030843074600BFCA202168486260
:102F100053202168486200BF204600F05DFB002876
:102F20000ED000BFFF202168486200BF042121208D
:102F3000015500BF00212020015500BF0120A8E756
:102F400019483840216848602068C068802188435B
:102F50002168C8602068806820210840002813D1BB
:102F6000204600F0CDF800280ED000BFFF202168D9
:102F7000486200BF04212120015500BF002120200C
:102F8000015500BF012084E700BFFF20216848628F
:102F900000BF01212120015500BF00212020015543
:102FA00000BF002075E700003FFFFF00F8B50446B2
:102FB0000D461646002700BF2020005D012801D1E4
:102FC0000220F8BD01212020015500BF022121204F
:102FD0000155002E1BD12068806840210840002840
:102FE00000D002E00020E87000BF287800F0E7FA87
:102FF0000304687800F0E3FA00020343A87800F0C5
:10300000DEFA0343E878000403431F4618E0206813
:10301000806840210840002804D0287800F0C2FAD7
:10302000074602E00020E87000BF287800046978B5
:1030300009020843A9780843E978090408430746C8
:1030400000BFCA202168486253202168486200BF3F
:10305000204600F0C1FA00280ED000BFFF202168F2
:10306000486200BF04212120015500BF002120201B
:10307000015500BF0120A4E72048384021680860BE
:103080002068806801218904884321688860296953
:10309000E8680843216889680843216888602068D7
:1030A000C068802188432168C8602068806820212A
:1030B0000840002813D1204600F022F800280ED046
:1030C00000BFFF202168486200BF04212120015574
:1030D00000BF00212020015500BF012071E700BF83
:1030E000FF202168486200BF01212120015500BF57
:1030F00000212020015500BF002062E77F7F7F0074
:1031000070B5044600252068C068A0218843216866
:10311000C860FEF7C7FB054608E0FEF7C3FB401B8F
:103120007D21C900884201D9032070BD2068C06894
:10313000202108400028F0D00020F6E700BF044915
:103140000968096820221143014A1268116070471A
:10315000FC35002010B50446002C01D1012010BD23
:10316000022169200155206800684008400021685C
:103170000860002021680860216848602168886034
:10318000204600F00BF90020E0660021692001557F
:1031900000BF6820015500BF0020E0E770B504467D
:1031A000206805686D086D00206805607D26F600C2
:1031B00000E0761E002EFCD101200543206805604A
:1031C00005480068002804D004210348006806F080
:1031D0005DFF00BF70BD00003800002010B5044640
:1031E0002068C069C007C00F00280FD020680068A1
:1031F000FF2101310840002808D001202168086221
:10320000E06E01210843E066692001552068C0692D
:103210000221084000280FD020688068C007C00F36
:10322000002809D0022021680862E06E04210843CA
:10323000E0660121692001552068C0690421084029
:1032400000280FD020688068C007C00F002809D070
:10325000042021680862E06E02210843E066012133
:10326000692001552068C0690821084000280FD056
:1032700020688068C007C00F002809D00820216896
:103280000862E06E08210843E066012169200155CB
:10329000E06E002802D02046FFF780FF2068C0695A
:1032A00001210905084000280ED0206880688900A7
:1032B0000840002808D08810216808620121692090
:1032C00001552046FFF73AFF2068C06920210840D9
:1032D000002807D0206800680840002802D0204657
:1032E00001F0B8FB2068C06980210840002807D0A1
:1032F000206800680840002802D0204601F0CEFD7A
:103300002068C06940210840002807D02068006874
:103310000840002802D0204602F0B0FB10BD10B5D6
:103320000446002C01D1012010BDA069002800D066
:1033300000E000BF6920005D002805D10021682061
:103340000155204600F048F8022169200155206807
:1033500000684008400021680860204600F04AFAF2
:10336000606A002802D0204600F09CF9206840687E
:103370000921C902884321684860206880682A21A1
:10338000884321688860206800680121084321681B
:103390000860204600F0FEF9C6E7000010B50446BC
:1033A0000B48806A0121C90408430949886208461C
:1033B000806A0121C9048843054988620321890282
:1033C0000448FEF7D9F80E20FEF7FCFB10BD000004
:1033D000001002400008005010B5044602F05EFDE7
:1033E0000748806B0121C90408430549886301220D
:1033F00003210E20FEF7FEFB0E20FEF7EFFB10BDB3
:103400000010024010B503466920C05C012803D0BB
:103410006920C05C122865D1002901D0002A01D1A1
:10342000012010BD00BF6820C05C012801D102202E
:10343000F7E701246820C45400BF00BF2403986844
:10344000A0420AD11869002803D1274C5C20C4523D
:1034500020E0FF245C20C4521CE0986800280AD1B8
:103460001869002803D1FF245C20C45212E07F2495
:103470005C20C4520EE0012424079868A04209D1C0
:103480001869002803D17F245C20C45202E03F2445
:103490005C20C45200BF0020D8666920C05C12289E
:1034A00003D132246920C45402E022246920C45488
:1034B00018680068FF24013420431C6820601868E5
:1034C0008068012420431C68A06000BF002468209D
:1034D000C45400BF18680068202420431C68206082
:1034E00000209EE702209CE7FF010000704700BF1C
:1034F000FEE770B504460025FEF7D4F905460AE05C
:10350000FEF7D0F9401B7D21C900884203D9012074
:10351000A063032070BD2068806820210840400916
:103520000028EDD00020F5E77047000008B5002125
:10353000C9431B4AD16200BF1146C96A0122114327
:10354000174AD1621146C96AC907C90F009100BF65
:1035500000BF1146C96A02221143114AD1621146C5
:10356000C96A02221140009100BF00BF0C49C96A1C
:10357000042211430A4AD1621146C96A0422114049
:10358000009100BF00BF0649C96A08221143044ADE
:10359000D1621146C96A08221140009100BF08BDDE
:1035A00000100240014600BFF020084000110A232D
:1035B000584302460807000F8018C0B27047014602
:1035C000002203E0521C08460A38C1B20A29F9DA7F
:1035D0001007000E0843704770B5044600252068A8
:1035E000C06840210840002815D1401E2168C860ED
:1035F000FEF758F9054608E0FEF754F9401B7D2117
:10360000C900884201D9032070BD2068C0684021EC
:1036100008400028F0D00020F6E7000010B502486E
:10362000FFF76AFB10BD0000D833002010B5FEF78D
:103630003FF907F0E7F906F08BFD10BD154800686B
:10364000FF2101310843134908600846C068124948
:1036500008401049C86008460068104908400D49F4
:103660000860084680684008400088600846006896
:10367000012189048843074908600846C068FD2184
:10368000090488430349C86000200861C80304494D
:1036900088607047001002400C40FF88F6FFF6FE7D
:1036A00000ED00E0818CC907C90F002908D001682E
:1036B0004968012252049143826A114302685160B1
:1036C0000222416A1140002907D001684968D203EB
:1036D0009143C26A1143026851600422416A114059
:1036E000002907D00168496812049143026B114315
:1036F000026851600822416A1140002907D0016820
:10370000496812039143426B1143026851601022D1
:10371000416A1140002907D001688968120291436B
:10372000826B1143026891602022416A1140002996
:1037300007D00168896812029143C26B1143026885
:1037400091604022416A1140002915D00168496802
:1037500092039143026C11430268516001221205E9
:10376000016C914208D101684968032252059143D6
:10377000426C1143026851608022416A1140002965
:1037800007D00168496812039143826C11430268B3
:103790005160704710B50446206800680821084051
:1037A000082809D1124B00228104204600F00CFAAF
:1037B000002801D0032010BD2068006804210840C3
:1037C000042809D10A4B00220105204600F0FCF92B
:1037D000002801D00320EEE700BF0021682001553A
:1037E00000BF0020E0660121692001550020E2E7CA
:1037F000F0550000F0B58BB00446002600250027E8
:1038000000200A90E2492068884201D1012000E0AE
:103810000020002800D000E000BF2169A068084314
:1038200061690843E1690843064620680068D94990
:10383000084030432168086020684068032109037C
:103840008843E168084321684860A669D049206838
:10385000884201D1012000E00020002801D1206A27
:103860000643206880680B210902884330432168A1
:10387000886000BFC8492068884216D1C748C06820
:103880008007800F002806D0012808D0022804D025
:10389000032808D105E0012506E0022504E00425FF
:1038A00002E0082500E000BF38E0BD4920688842FA
:1038B00016D1BA48C0680C210840002806D0042858
:1038C00008D0082804D00C2808D105E0002506E01F
:1038D000022504E0042502E0082500E000BF1DE009
:1038E000AB492068884219D1AC48C06803218902DD
:1038F0000840002808D001218902401A08D0401A47
:1039000004D0401A08D105E0002506E0022504E0B5
:10391000042502E0082500E000BF00BF00BF9C496D
:103920002068884201D1012000E0002000287AD0E0
:10393000002D06D0022D25D0042D53D0082D73D193
:1039400073E0626810460021FCF7D0FF07910690F3
:10395000FEF7F4FB002101910090FCF7C7FF002265
:10396000904B03910290FCF7C5FF05910490079BD3
:10397000069AFCF735FD09910890FCF755FF216880
:10398000C86067E085484038006810210840000999
:10399000002813D0626810460021FCF7A7FF0246FA
:1039A0000B460791069000207F49FCF719FD09910D
:1039B0000890FCF739FF2168C86012E06268104681
:1039C0000021FCF793FF02460B460791069000206A
:1039D0007649FCF705FD09910890FCF725FF216861
:1039E000C86037E0626810460021FCF77FFF07914E
:1039F0000690FEF7C7FB002101910090FCF776FFCF
:103A00000022684B03910290FCF774FF059104902B
:103A1000079B069AFCF7E4FC09910890FCF704FF69
:103A20002168C86016E016E013E0626810460021C5
:103A3000FCF75CFF02460B460791069000205C49AC
:103A4000FCF7CEFC09910890FCF7EEFE2168C860F7
:103A500000E000BF9AE00121C903E069884251D12A
:103A60002B0004F089FE0906101A42304242423A05
:103A70004200FEF763FB400009906168FCF7FFFB22
:103A800080B20A9032E0FEF76BFB4000099061685B
:103A9000FCF7F5FB80B20A9028E040484038006807
:103AA000102108400009002806D042486168FCF750
:103AB000E6FB80B20A9005E03F486168FCF7DFFB57
:103AC00080B20A9012E0FEF75DFB40000990616849
:103AD000FCF7D5FB80B20A9008E001200004616881
:103AE000FCF7CDFB80B20A9000E000BF00BF334975
:103AF0000A98084007460A980007400F07432068C5
:103B0000C76043E02B0004F037FE09060F183F2E74
:103B10003F3F3F373F00FEF711FB09906168FCF71C
:103B2000AEFB2168C86030E0FEF71AFB09906168BF
:103B3000FCF7A5FB2168C86027E0184840380068FA
:103B4000102108400009002806D01D486168FCF7D4
:103B500096FB2168C86005E01A486168FCF78FFB96
:103B60002168C86011E0FEF70DFB09906168FCF761
:103B700086FB2168C86008E00120C0036168FCF78B
:103B80007EFB2168C86000E000BF00BF0BB0F0BD45
:103B900000480040F369FFEF003801404010024048
:103BA00000440040000070408084CE418084EE419B
:103BB0000000604100127A000048E801F0FF0000B8
:103BC00000093D000024F400FFB581B004460E4614
:103BD0001D460027FDF766FE07460398002839D1E9
:103BE0002DE0681C00282AD0002D04D0FDF75AFED5
:103BF000C01BA84223D9206800688021884321681F
:103C000008602068006820218843216808602068D7
:103C10000068FF21013188432168086020688068BE
:103C2000400840002168886001216920015500BFDB
:103C300000216820015500BF032005B0F0BD2068B9
:103C4000C0693040B04201D1012000E000200028CE
:103C5000C7D037E02CE0681C002829D0002D04D004
:103C6000FDF720FEC01BA84222D9206800688021F1
:103C70008843216808602068006820218843216803
:103C8000086020680068FF210131884321680860CE
:103C90002068806840084000216888600121692010
:103CA000015500BF00216820015500BF0320C4E773
:103CB0002068C0693040B04201D1012000E00020FE
:103CC0000028C8D10020B8E710B50248FFF786FAEF
:103CD00010BD0000FC35002010B50248FFF77EFA49
:103CE00010BD0000FC35002070B50446002520689A
:103CF00080688007800F012807D120680068C0070E
:103D0000C00F002801D0012000E00020002839D198
:103D1000206880681C490840002801D1012000E08B
:103D20000020002809D1A06D10210843A065E06D96
:103D300001210843E065012070BD206880680121F1
:103D4000084321688860012002F086F8FDF7AAFD8B
:103D500005460EE0FDF7A6FD401B0A2809D9A06D17
:103D600010210843A065E06D01210843E0650120B2
:103D7000E2E720680068C007C00F012148404840C2
:103D80000028E7D00020D7E717000080FCB50746E1
:103D90000D466E4633462A4606480168384604F00A
:103DA00073FB002403E0305D2855601CC4B2082C6E
:103DB000F9DBFCBD38010020F8B5234EFF270137A1
:103DC0003A463146214800F0D5FB44B200BF002CF2
:103DD00000D12CE06A461EA1304606F02FF844B20E
:103DE000002C00D123E068460021415E7018451D7B
:103DF0000021009113E0684600880A21484301B27F
:103E000000912978303968460088081801B200917D
:103E10006D1C68460021415E642900DD02E02878BF
:103E20002C28E8D100BF6846008844B200BF00BF1C
:103E3000002C05DB1F2C03DC6000713844B201E06C
:103E40007E24E4432046F8BD98010020CCC0000841
:103E50002B4353513A00000086B003F0DFF807F01F
:103E6000EDFB03F001F906F047FE05F09BFD05F0C0
:103E700051FE012005F056FE06F006F806F018F88F
:103E80000FE00022D2430321684606F029F9684674
:103E900007C803AB07C30498C007C00F002800D0B1
:103EA00000BFEEE770B504460025206880688007F3
:103EB000800F012807D120680068C007C00F0028C4
:103EC00001D0012000E00020002837D02068806861
:103ED00005210840012800D100E0002000280AD078
:103EE00000BF2068806802210843216888600320A1
:103EF0002168086009E0A06D10210843A065E06D0D
:103F000001210843E065012070BDFDF7CBFC0546AB
:103F10000EE0FDF7C7FC401B0A2809D9A06D10214F
:103F20000843A065E06D01210843E0650120EBE74F
:103F300020688068C007C00F0028EAD10020E3E7AE
:103F4000F0B589B007460E4632480890FF20013090
:103F5000079000BF0F203049086000BFFF220132E8
:103F600000212C4805F071FD142102A8FCF785F909
:103F70002AA102A805F055FD314603A804F058FF18
:103F800000223146384601F00DF80190019806F004
:103F900009F8002416E07D21C900079A089801F06D
:103FA000C9FF064600BF022E00DC09E000BF02A9DF
:103FB000089805F07BFE0546002D00D004E000BF08
:103FC000601C84B2052CE6DB00BF00BF00BF0F20E1
:103FD0001149086000BF002415E07D21C900079A3F
:103FE000089801F0A7FF064600BF022E00DC08E09B
:103FF0000CA1089805F05AFE0546002D00D004E0FB
:1040000003E0601C84B2052CE7DB00BF284609B042
:10401000F0BD000098010020100000200D0A302C97
:10402000000000002B4E534F4E4D493A302C0000FB
:1040300030B503231B0317484407640F002C05D039
:10404000C01DC008C000134C041B1B1B0246124CB1
:1040500022600024104D6C60D0180838C008C000E1
:104060000E4C206000240D4D2D686C600B4D2D68AA
:104070002C601146441A4C60084C24680C60084DB2
:104080004C682C60074D4C682C600124E407064DF9
:104090002C6030BD9C030020C4000020CC00002018
:1040A000D4000020D0000020D800002000BF03F082
:1040B00029FF13480068012801D907F09FF902F091
:1040C00047FC0446022C1AD307F04AFA0D48006850
:1040D0000D490968884201D3012000E00020002832
:1040E00003D10A490AA006F0BBFF02F031FC0446E6
:1040F000022C02D3204607F081F807F01FFED6E716
:10410000AC020020AC00002090000020AB0A0000B0
:104110002E2E5C6F732D6B65726E656C5C6B6572B9
:104120006E656C5C7461736B732E630010B500BFB9
:10413000214805F017FC00BF204800880004000F4C
:10414000052811DA1D4800780007000F04280BDA53
:104150001A480068C003C00F002805D1174800683E
:104160008003C00F002824D0144800780007000FF7
:10417000042802DB12A005F099FB10480088000417
:10418000000F052802DB10A005F090FB0B4800682B
:10419000C003C00F002802D00DA005F087FB074820
:1041A00000688003C00F002805D00BA005F07EFB3F
:1041B00001E001F0B3FB10BD0000FFFF4001002053
:1041C0006E662D6C6F63200073742D6C6F6320001E
:1041D00073652D6C6F63200073662D6C6F63200018
:1041E00010B508220021294805F02FFC00BF2848FF
:1041F00005F0B8FB00BF274844792046E117090FB6
:1042000009180911244A515C204A1170E117090F5D
:10421000091809110901611A1F4A515C1B4A5170A2
:104220002D20114688700A21032005F029FB19482A
:1042300004792046E117090F09180911164A515C43
:10424000124AD170E117090F091809110901611A01
:10425000114A515C0D4A11710E48C4782046E1178D
:10426000090F091809110C4A515C084A5171E117EC
:10427000090F091809110901611A074A515C034A1B
:104280009171104605F012FB10BD00005F00002088
:104290000000FFFFE60000209CC2000888B000205C
:1042A000079004F0F5FD04F043FF04F00FFD05F066
:1042B000E2FE079048E005F0DEFE0799401A0790FD
:1042C00000BF0022D2433F2101A805F009FF01A849
:1042D00007C804AB07C305F0CEFE07900598C007DA
:1042E000C00F002804D000201849086002F06EFAC0
:1042F00008210598084000280AD002F027F804F0A9
:1043000057FF00F0E5FE03F02BFB01F0B5FC00BF0A
:10431000022105980840002801D000F0D9FE0421B0
:1043200005980840002801D001F072FA1021059884
:104330000840002801D001F0A5FD20210598084083
:10434000002801D002F084FFB5E700001C00002027
:104350000246002070470000F3B587B0012006F048
:104360001BFA6D4CFF22C1326C49204605F063FBFD
:10437000079805460D35FE20005B622805DC062007
:1043800067490870012009B0F0BDFF200930005BCB
:1043900081B202910222A91D01A805F04CFB6846DA
:1043A00001898088814204D102205D490870012082
:1043B000E9E7684681880089814205DB6846818893
:1043C0000089081A032804DD0420554908700120DB
:1043D000D9E704F05FFB684681880089081A81B23A
:1043E0000191002704222946103103A805F023FB80
:1043F00003980490042229460C3103A805F01BFB06
:104400000398059004222946083103A805F013FB00
:104410000398069068468188029117E068460089F3
:10442000800004A90958BA002046FF304D3080585A
:10443000814204D004203A4908700120A3E7781C87
:1044400087B268460089401C81B2029168460089A3
:104450000328E3DB002033490860FF2001300659C0
:10446000002002901CE068460089800004A90858DA
:104470000390039836182B4800680399401829497F
:10448000086005212046FF304D3004F0F6FCFF2087
:104490004D300399015168460089401C81B2029158
:1044A0006846018980888142DDDB98200059B0424E
:1044B00004DA03201A490870012064E7FF20013064
:1044C00006510222A91D01A805F0B5FA68468188A7
:1044D000FF200930015104222946143102A805F0B9
:1044E000AAFA684600890390642103984843039020
:1044F000BC2003990151022009490870FF22C132F2
:104500002146064805F097FA012006F045F90648CD
:1045100006490860012036E72437002024390020AE
:104520008A01002084010020805101001C0000202D
:1045300010B50D480068C002C00F002812D00B480B
:1045400000780006800F002809D10948006880071C
:10455000800F002806D10A2000F0F4F902E00A20BA
:1045600000F0F0F910BD00003C01002040010020E7
:1045700070010020F7B582B004460D46002001907E
:1045800000260027002C01D105B0F0BD002D01D17F
:104590000020F9E700BF0F202B49086000BFC820AA
:1045A00005F05CFD00212846049A05F04EFA2068CB
:1045B00005F0F8FC00270CE07D21C9002846049A8C
:1045C00001F0B8FC0646022E00DC00E003E0781C97
:1045D00087B2062FF0DB00BFA07F002803D11B4964
:1045E000C8703046D0E70020A855A07F002801D130
:1045F000019610E0E068002805D02846E16805F043
:1046000069FB019007E02069002804D02846216951
:1046100005F0EEFB0190677F06E00D492846049AFD
:1046200001F088FC781E87B2002FF6D100BF0198F8
:10463000002804D1207F0549C8700020A4E700208D
:104640000249C87030469FE7100000203200002069
:10465000B80B0000F8B50F4EFF2701370A2514E00C
:104660003A4631460C48FFF785FF0446002C00D03F
:104670000DE03A4631460948FFF77CFF00BF7D2038
:10468000C00005F0EBFC681E85B2002DE8D100BF2C
:104690002846F8BD98010020ECC000082CC1000895
:1046A00010B50446206B06F053FD204606F050FD81
:1046B00010BD000010B51248C489012C08D00A2C86
:1046C00007D0642C0AD07D20C000201A10D10AE047
:1046D00013E00C21032005F0D3F80EE00A2103209B
:1046E00005F0CEF809E00621032005F0C9F804E042
:1046F0000A21032005F0C4F800BF00BF10BD000070
:104700006439002010B512484488012C08D00A2CC6
:1047100007D0642C0AD07D20C000201A10D10AE0F6
:1047200013E00C21032005F0ABF80EE00A21032072
:1047300005F0A6F809E00621032005F0A1F804E041
:104740000A21032005F09CF800BF00BF10BD000047
:104750006439002007E00278302A03D12022027059
:10476000401C00E004E00A464B1E99B2002AF2D138
:1047700000BF704770B506460D46002411E00A4898
:10478000015D23462A46304603F0CBFD064A20460B
:104790001C30115C23462A1D304603F0C2FD601C0C
:1047A000C4B21C2CEBDB70BDF2C8000870B5024629
:1047B0000B460020002114E0565C360270400024B5
:1047C0000BE00126F603054635404604300C002D6B
:1047D00001D0054E7040661CB4B2082CF1DB4E1CB3
:1047E000B1B29942E8DB70BD2110000000BFEFF3C9
:1047F0000580002801D0012070470020FCE7000060
:1048000070B500BF0E4805F0ADF800BF00200D499F
:10481000C8710D48846C04220CA10A4805F00BF9FC
:104820000C492046FBF72BFD054603222946054887
:10483000801D00F063FA034805F038F870BD0000F1
:104840000000FFFF5F000020A43900206964683A7F
:10485000000000008096980070B500BF0B4805F07E
:1048600081F800BF00200A49C8710A48846C0A49CF
:104870002046FBF704FD0D4607220548801D00F089
:104880003DFA034805F012F870BD00000000FFFF7C
:104890005F000020A43900208096980070B5134C6A
:1048A0002046856D08220021114805F0CEF8072228
:1048B00029460F48801D00F021FA4E21085B00F0C8
:1048C00005FA064631460A48FFF744FF00BF09488B
:1048D00005F048F800BFFFF7EDFE0221032004F0C9
:1048E000CFFF034804F0E2FF70BD00002439002030
:1048F0005F0000200000FFFF70B506460D46002453
:1049000008E00648015D23462A46304603F009FDCB
:10491000601CC4B2202CF4DB70BD0000A2C60008ED
:104920000146002007E04200054B9A5A8A4200D116
:1049300003E0421CD0B20928F5D300BF7047000045
:104940002CCB000810B5044604F020FB04F050FB0B
:10495000204605F083FB04F041FB10BD10B5044672
:1049600013480078030003F007FF0705080C141034
:10497000181C200002F08CFB18E0204602F0FAF828
:1049800014E0204603F05CFA10E0204601F078FBCA
:104990000CE0204602F08AFC08E0204602F00EF906
:1049A00004E0204601F01EFE00E000BF00BF10BD85
:1049B0005E00002010B5044614480078030003F0A0
:1049C000DBFE0705090D1511191D2100204601F018
:1049D00005FA18E0204602F0CDF814E0204603F076
:1049E0002FFA10E0204601F04BFB0CE0204602F0CD
:1049F0005DFC08E0204602F0E1F804E0204601F00A
:104A0000F1FD00E000BF00BF10BD00005E0000200F
:104A100010B502F06FFB10BD10B5002400200A494C
:104A200008700A48007802280BD10120087002F0B3
:104A3000DFFD0446002C04D010210548006805F075
:104A400025FBE0B210BD0000200000204401002042
:104A50001400002010B504460F48C36920201840F8
:104A6000002816D005F0E4FF0B48406AC2B2104699
:104A700005F096FA09480088FF2808DC084807492D
:104A80000988425405480088401C044908800020D9
:104A900010BD0220FCE70000004C00402601002071
:104AA000FC340020F0B585B005460F46012005F026
:104AB00073FE2C460D3404222146083104A804F06C
:104AC000BAFF3B480068C030C08F612802D0002088
:104AD00005B0F0BD36480499006880308164607983
:104AE00002900020049003222146153104A804F00E
:104AF000A2FF30490498884209D22D4804990068E1
:104B0000FF300130C1602A4904980968C865214610
:104B10001831294804F085FF2146303126482030DD
:104B200004F07FFF012005F037FE022221460C3100
:104B300003A804F080FF684680897D210901401A9E
:104B4000C1B268464171A07B401CC1B26846017188
:104B5000E07C401CC1B26846C170217C8170617CE0
:104B60004170A17C0170C078992801DD632003E0C9
:104B70006846C078114B185C02466846007999284F
:104B800001DD632003E0684600790C4B185C0146A8
:104B90006846808900B204F013F8064668468671BC
:104BA00005F0A8FE01200649087000BF90E700004C
:104BB00048010020FFFFFF00A03A002042C5000886
:104BC0008A01002070B504460D4600200649087091
:104BD000042006490870002006F04EF829462046B9
:104BE000FFF7AEF9012070BD5D0000205E000020DF
:104BF000F8B505460F460095009D687A0609009DA8
:104C0000287B002813D1330003F0B6FD0504060805
:104C10000A0C0E00002409E0164C07E0164C05E0D3
:104C2000164C03E0164C01E0144C00BF17E03300B3
:104C300003F0A2FD050406080B0E110000240DE090
:104C4000104C0BE00F4C083408E00E4C103C05E013
:104C50000C4C083C02E00B4C103C00BF00BF002C89
:104C600005D008222146384604F0E5FE3C462046A1
:104C7000F8BD000066C600086EC6000856C60008EB
:104C80005EC60008083A002070B5044604250E48A8
:104C90004688012E08D00A2E07D0642E07D07D202A
:104CA000C000301A07D104E007E0062505E005251D
:104CB00003E0042501E0052500BF00BF2919C8B2A3
:104CC00004F078FE70BD0000643900200146042025
:104CD00001290BD00A2907D0642909D07D22D200EE
:104CE0008A1A06D1032006E0052004E0062002E02F
:104CF00000BF042000BF00BF70470000F8B50646A3
:104D00000F461546002D00D1F8BD29460A2004F0B3
:104D100077FE0446601EB84200DC671E0DE00A21E3
:104D20003846FBF7B6FA0C460748005D3070761E31
:104D30000A213846FBF7ADFA07462846691E8DB2B0
:104D40000028ECD100BFDFE79CC2000870B5064622
:104D50000D46002411E00A48015D23462A463046EC
:104D600003F0DFFA064A20461830115C23462A1D5C
:104D7000304603F0D6FA601CC4B2182CEBDB70BDD1
:104D8000C2C8000810B5002819DA1A4A03071B0F19
:104D9000083B9B089B00D2588307DC0EFF23A340EF
:104DA0009A438B071B0E8407E40EA3401A43114B52
:104DB0000407240F083CA408A4001A5118E00E4A66
:104DC00003231B02D21883089B00D2588307DC0EF2
:104DD000FF23A3409A438B071B0E8407E40EA340D6
:104DE0001A43054B032424021B198408A4001A51FA
:104DF00010BD00001CED00E000E100E0F3B584B060
:104E00000A4600251560002342E0049D2D680095A8
:104E1000049D2D1D0495002136E006250E466E43A7
:104E2000009DF540009500202AE00C2506466E43C3
:104E3000009DF540ECB29D006D184600AD19EDB235
:104E40000295202525402D11E607F60FAD19019595
:104E50001E2525406D100395029DAD010E4EAE1925
:104E6000019D2D017619039D755D1E018F00F619B8
:104E7000C700F619B540166835431560451CE8B201
:104E80000228D2DB4D1CE9B20229C6DB5D1CEBB265
:104E9000022BBADB06B0F0BDC2C60008014669208D
:104EA000405C122803D06920405C322831D1522066
:104EB000405A00280DD108680068802398430B6889
:104EC000186008680068402318430B6818600020C9
:104ED000704701231B03886898420CD10869002899
:104EE00009D1CA6C1088C005C00D0B689862C86CE7
:104EF000801CC86405E0CB6C581CC86418780B682B
:104F000098625220405A401E83B2522043520020E1
:104F1000DEE70220DCE770B505460C462146284650
:104F2000FFF744FC064630122855601C2E54A01C86
:104F300070BD000010B511481149086000211048EB
:104F400001630120C0050E49486000210C488160C2
:104F50000C21C160402101610021416241610721B2
:104F600089028161FF218131C161702101620021CB
:104F700041628162C162FCF701FD10BD0024004066
:104F80007836002010B5012212031146034804F0C0
:104F900003FC01200249887010BD00000008005089
:104FA00032000020F7B5C2B0074602AC00200190E5
:104FB00026A1204604F0BBFE0546681E86B22418D2
:104FC0002548C08F622802DA2448019009E04498FD
:104FD000002803D12048BC30019002E01E48DC309C
:104FE00001902046019904F0A2FE05462C21681E7E
:104FF0002154701986B264192046439903F018FFB2
:105000000546701986B264192C202070641C701C2F
:1050100086B239462046439A04F02CFE05466419B0
:10502000701986B20D202070641C0A202070641C48
:1050300000202070641CF01C86B2324602A9084889
:1050400004F0F9FC064845B0F0BD000041542B4E79
:10505000534F53543D302C00E439002020BF00084A
:10506000FC33002008480068401C002801D10120C2
:1050700000E00020002803D1CA2104A005F0F0FFC1
:1050800072B600BFFEE70000B40000207372635CDC
:105090006273705C6F732D706F72745C706F72747A
:1050A0002E63000010B5074C1C342146064804F05E
:1050B000B8FC00BF054804F055FC00BF024804F0EE
:1050C000F5FB10BD243900205F0000200000FFFF29
:1050D00010B504F0D3F9052000070069C007C00F20
:1050E000002809D026480068012189038843244903
:1050F000086004F0CBF910BD642004F0AFFF052078
:1051000000070069C007C00F002833D10F201D49D8
:1051100008601B480068012189038843401818492A
:1051200008601948C08F622817DB184800880004FF
:10513000000F05281BDC154800680F210903884370
:10514000124909880904090F491C09030F22120397
:10515000114008430D49086009E00C4800680F2120
:1051600009038843012109034018084908600C20FD
:1051700006F080FA00BF04F089F900BFBBE7000029
:105180003C01002010000020E439002040010020F4
:1051900030B501460022042017E0431E9B00134C4B
:1051A000E358DA07D20F8300E3585B0884000F4D01
:1051B0002B51002A07D083002C46E3580124E40732
:1051C000234384002B51431E98B20028E5DC074B93
:1051D0001B685B08054C2360002906D023461B682A
:1051E0000124E4072343014C236030BD98020020D2
:1051F00000B587B000BF1848C06A012108431649AE
:10520000C8620846C06AC007C00F019000BF00BF57
:105210000846C06A022108430F49C8620846C06AAE
:1052200002210840019000BF02200390002004905A
:1052300002200590012006900848029002A905204E
:105240000007FCF72DFA0648029002A90548FCF772
:1052500027FA07B000BD000000100240CE07000092
:105260003BFE00000004005010B50248FCF740FB74
:1052700010BD000078360020F8B5374EFF27013703
:105280003A4631463548FFF775F9002800D1F8BD98
:105290003A4631463248FFF76DF93A4631463148D1
:1052A000FFF768F93A4631462F48FFF763F93A4667
:1052B00031462E48FFF75EF900240EE0601C84B2F0
:1052C0003A4631462A48FFF755F90546002D00D0E9
:1052D00005E07D20C00004F0C1FE052CEEDB00BF20
:1052E000052C01DB0020D2E700240AE0601C84B218
:1052F0003A4631461F48FFF73DF90546002D00D0DC
:1053000001E00A2CF2DB00BF052C01DB0020BEE728
:1053100000240EE0601C84B27D20C00004F09EFEDC
:105320003A4631461448FFF725F90546002D00D0CE
:1053300001E03C2CEEDB00BF3C2C04DB04200F49D9
:1053400088700020A3E702200C498870FEF734FD26
:105350000B49087001209AE7980100204CBF000813
:10536000ACBF00088CBF00080CC20008CCC000080D
:105370006CC000088CC00008ACC0000832000020DF
:105380004501002070B5164C2046C06D15490968CE
:105390000D1A08223021144804F057FB002012494E
:1053A000C871052229461048801DFFF7A7FC42213D
:1053B000085BFFF78BFC064631460B48FFF7CAF93E
:1053C0006320094908702020487000BF074804F096
:1053D000C9FA00BFFFF796F9034804F067FA70BDF9
:1053E00024390020500100205F0000200000FFFF52
:1053F000F8B52D4840682D49096846182A48C03834
:1054000041883046FAF745FF064629480068851B63
:1054100008220021274804F018FB2349C039C88915
:10542000FFF754FC0746002D0ADB072229462148D6
:10543000801DFFF763FC39461E48FFF78BF921E01A
:10544000694207221B48801DFFF758FC394619485E
:10545000FFF780F9002407E01648005D202800D0FF
:1054600004E000BF601C84B2BC42F5DB00BF002C2E
:1054700004D111A10F4804F0D4FA03E02D21601EDD
:105480000C4A115400BF0E4804F06CFA00BFFFF73D
:1054900011F90021084604F0F3F901F0A7FA0548D4
:1054A00004F004FAF8BD0000243A00208001002036
:1054B000680100205F0000202D3939393939390061
:1054C0000000FFFFF8B5264F264805680822002196
:1054D000254804F0BAFA4221C85BFFF7F7FB0646FD
:1054E000002D0ADB072229461F48801DFFF706FC16
:1054F00031461D48FFF72EF921E0694207221A487C
:10550000801DFFF7FBFB31461748FFF723F9002406
:1055100007E01548005D202800D004E000BF601CB3
:1055200084B2B442F5DB00BF002C04D10FA10E48B9
:1055300004F077FA03E02D21601E0B4A115400BFDE
:105540000C4804F00FFA00BFFFF7DCF8002101203F
:1055500004F096F901F04AFA034804F0A7F9F8BDFF
:10556000243900206C0100205F0000202D393939DA
:10557000393939000000FFFFF8B5144D14480668AA
:1055800008220021134804F060FA0722314611482E
:10559000801DFFF7B3FB4E21485BFFF797FB0746E3
:1055A00039460C48FFF7D6F800BF0B4804F0DAF98B
:1055B00000BF0A480468E007C00F002804D0FFF7C6
:1055C00079F8044804F072F9F8BD0000243900208D
:1055D000840100205F0000200000FFFF1800002071
:1055E00070B50446002520688068042108408008C2
:1055F000002829D020688068084000280BD0206847
:10560000806802210840002805D1206880681021A8
:10561000084321688860FCF745F905460EE0FCF771
:1056200041F9401B0A2809D9A06D10210843A06543
:10563000E06D01210843E065012070BD20688068AD
:10564000042108400028EAD10020F6E72F488069AD
:10565000FF2101310840884205D12D4840690821C9
:1056600008432B49486129488069012149020840C3
:10567000884205D1264840690421084324494861ED
:1056800022488069012189020840884205D12048CA
:105690004069022108431E4948611C488069012174
:1056A000C9020840884205D11948406910210843C1
:1056B000174948611548806901214903084088421B
:1056C00005D11348406901210843114948610F4839
:1056D0008069012149040840884205D10C4840698D
:1056E000202108430A4948610848806901210904CA
:1056F0000840884205D106484069402108430449D2
:105700004861044801498861704700000020024058
:10571000C0330020002F0300024600207047000025
:1057200070B504460D46012005F036F80120014908
:10573000087070BD8A010020F8B5064600270120D8
:1057400005F02AF835460D356979009168460078EC
:105750000007C00F002808D0214800680121090473
:10576000884340181E490860012768460078800772
:10577000C00F00280FD01B490422C86829460831F1
:1057800004F059F91748C0681749C8650846C16D43
:10579000144801610127684600784007C00F0028BF
:1057A00008D0042229460C3110480068983004F0D3
:1057B00042F9012768460078C407E40F0A484030E0
:1057C000C07AA04203D008484030C4720127002F9D
:1057D00002D0012004F0E0FF012005490870F8BD67
:1057E00040010020243A00202439002048010020F4
:1057F0008A01002070B504460D46012004F0CCFF5C
:1058000001200149087070BD8A0100207047000026
:1058100010B503F081FD00BF124800690421084063
:10582000002800D01AE0322004F018FC0D4800696E
:1058300004210840002800D010E00B480068401CFC
:1058400009490860012009490870002008490860DA
:1058500003F0E0F8FEF76CFE00BF00BF00BF03F0EE
:1058600067FD10BD00080050700100207401002089
:105870005800002070B504460D46022C21D1234863
:105880000068E10488432149086008460068210552
:10589000884340181D4908601D4800780006800FA5
:1058A00000280AD1082005F0E5FE19480068C0214B
:1058B000884340301649086027E0092005F0DAFEE9
:1058C00023E0012C0DD111480068210588434018C0
:1058D0000E49086008460068610588430B49086066
:1058E00013E00A4800680121090588430749086058
:1058F00008460068012149058843044908600448B6
:105900000068C02188430249086070BD3C01002046
:105910004001002000E000BFFDE7000010B528486E
:105920000478230002F028FF1045090D1115191DF8
:105930002125292D3135393D414522A003F0B6FFFF
:105940003BE022A003F0B2FF37E022A003F0AEFF5D
:1059500033E022A003F0AAFF2FE022A003F0A6FF6D
:105960002BE022A003F0A2FF27E022A003F09EFF7D
:1059700023E022A003F09AFF1FE022A003F096FF8D
:105980001BE022A003F092FF17E022A003F08EFF9D
:1059900013E022A003F08AFF0FE022A003F086FFAD
:1059A0000BE022A003F082FF07E022A003F07EFFBD
:1059B00003E022A003F07AFF00BF00BF10BD00008B
:1059C0003C01002065722D4F666600006C622D4F11
:1059D0006666000068622D4F666600006E662D4F99
:1059E0006666000073662D4F6666000068662D4F80
:1059F0006666000063662D4F666600006C672D4F7B
:105A0000666600006E672D4F666600006C6E2D4F57
:105A1000666600006E6E2D4F6666000073742D4F33
:105A20006666000065742D4F6666000073652D4F35
:105A3000666600007473744F6666000020707265BD
:105A40007373000070B506460D46002411E00A4845
:105A5000015D23462A46304602F063FC064A204692
:105A60001830115C23462A1D304602F05AFC601C97
:105A7000C4B2182CEBDB70BD2AC9000810B504466F
:105A80002068006840218843216808606920005D23
:105A9000322803D122216920015502E00121692029
:105AA00001552046FDF722FD002010BDF8B5044643
:105AB0000F4626460D361C480068C030C08F63284C
:105AC00003DB0620194908702BE01948C07E0A281C
:105AD00024DA1748C07E401CC1B21548C1760222A4
