:020000040800F2
:1000000040400020ED010008993900085B390008E4
:1000100000000000000000000000000000000000E0
:10002000000000000000000000000000F9010008CE
:100030000000000000000000AB010008A93A000821
:10004000FF010008FF010008913A0008FF010008C5
:10005000FF010008D10E0008E10E0008F10E0008B3
:10006000FF010008FF010008FF010008FF01000870
:10007000B10E0008FF010008614100082DC800080A
:10008000FF010008FF010008FF0100080000000058
:10009000FF010008FF010008FF010008FF01000840
:1000A000FF010008FF010008FF01000849410008A6
:1000B000FF010008FF010008FF010008FF01000820
:1000C00000F002F800F030F80CA030C8083824180E
:1000D0002D18A246671EAB4654465D46AC4201D180
:1000E00000F022F87E460F3E0FCCB6460126334282
:1000F00000D0FB1AA246AB46334318473008010034
:10010000500801000023002400250026103A01D3E6
:1001100078C1FBD8520700D330C100D50B607047BF
:100120001FB51FBD10B510BD00F065FE1146FFF7ED
:10013000F7FF0CF02FFC00F07DFE03B4FFF7F2FF99
:1001400003BC00F083FE000070B505460C46164661
:1001500002E00FCC0FC5103E102EFAD2082E02D3AB
:1001600003CC03C5083E042E07D301CC01C5361FBE
:1001700003E021782970641C6D1C761EF9D270BDD5
:10018000194B19680868203080F30988022080F331
:1001900014883FBCAE4662B600BD0000EFF310808D
:1001A00072B6704780F310887047EFF309800E4BEA
:1001B0001A6820381060F0C044464D4656465F46E7
:1001C000F0C008B572B60EF017F962B60CBC116833
:1001D00008681030F0C8A046A946B246BB4680F376
:1001E00009882038F0C81847A8000020094880472F
:1001F00009480047FEE7FEE7FEE7FEE7FEE7FEE709
:10020000016808467047000004480549054A064B46
:1002100070470000BD3A0008C1000008403C0020C3
:1002200040400020403E0020403E0020F8B5042A17
:100230002CD3830712D00B78491C0370401C521E2C
:1002400083070BD00B78491C0370401C521E830798
:1002500004D00B78491C0370401C521E8B079B0F67
:1002600005D0C91ADF002023DE1B08C90AE0FFF70A
:100270006BFFF8BD1D4608C9FD401C46B4402C4329
:1002800010C0121F042AF5D2F308C91A521EF0D466
:100290000B78491C0370401C521EEAD40B78491C91
:1002A0000370401C012AE4D409780170F8BDD2B271
:1002B00010B513029A1813049A1800F00EF810BD26
:1002C00001E004C0091F0429FBD28B0701D502807D
:1002D000801CC90700D00270704700290BD0C307EB
:1002E00002D00270401C491E022904D3830702D5A4
:1002F0000280801C891EE3E70022EEE70022DFE790
:10030000002203098B422CD3030A8B4211D3002312
:100310009C464EE003460B433CD4002243088B42EC
:1003200031D303098B421CD3030A8B4201D3944679
:100330003FE0C3098B4201D3CB01C01A524183096C
:100340008B4201D38B01C01A524143098B4201D326
:100350004B01C01A524103098B4201D30B01C01A51
:100360005241C3088B4201D3CB00C01A52418308CB
:100370008B4201D38B00C01A524143088B4201D3F8
:100380004B00C01A5241411A00D201465241104658
:1003900070475DE0CA0F00D04942031000D34042CD
:1003A000534000229C4603098B422DD3030A8B4203
:1003B00012D3FC22890112BA030A8B420CD38901A1
:1003C00092118B4208D3890192118B4204D3890187
:1003D0003AD0921100E08909C3098B4201D3CB01C5
:1003E000C01A524183098B4201D38B01C01A52417A
:1003F00043098B4201D34B01C01A524103098B427E
:1004000001D30B01C01A5241C3088B4201D3CB0068
:10041000C01A524183088B4201D38B00C01A52414B
:10042000D9D243088B4201D34B00C01A5241411A22
:1004300000D20146634652415B10104601D3404250
:10044000002B00D54942704763465B1000D3404201
:1004500001B50020C046C04602BD704770477047D6
:10046000F0B5F94D0C091E092C402E402F468BB0DB
:10047000A7437DD0B543FCD0002E7AD0002CFCD011
:100480000D465D40ED0F2543AC1BFF25AD046419FF
:100490000894C502440DC9022143500DDC020443F7
:1004A0000120C00701430443D2020191200C110C2A
:1004B00000958C46010423468B430A91614609044A
:1004C000E24D8A430991010A7D444919803909782E
:1004D00005464D4301266D18F605751B6943C90C89
:1004E000640B891C4C436418B5012C1B250C2E048D
:1004F000B4434C434D43210C691889090591009D73
:10050000E90701D00121C90704912C460199670828
:10051000CD072F434C08059DE10B4D432D0C29467B
:100520006646754302950D4645432E46029D7D1B4A
:10053000B44100950D465D4301942C0C2F040D46EB
:100540005543AE462D0C3D43029503947546049CDD
:100550002D04641B049406D2029C039D641C002697
:1005600075410395029401AC70CC009F7D1B01E0A6
:100570003EE162E1B44109040095079101940599B7
:10058000A4086143090C0C464443650BE7040C4680
:1005900066467443A646640B3C4303950294744636
:1005A000049DE4042C1B049406D2029C039D641C4D
:1005B000002675410395029401AC70CC009F7D1B11
:1005C000B44101940C465C430095650FE7000C466E
:1005D0005443A646640F3C43039502947446049D1D
:1005E000E4002C1B049406D2029C039D641C00268C
:1005F00075410395029401AC70CC009F7D1BB44102
:10060000AE09AF06049DC900AD092F43049DA406A1
:10061000AD060495079D344369180791059DE10BCC
:100620004D432D0C29466646754302950D464543BC
:100630002E46029D7D1BB44100950D465D430194FD
:100640002C0C2F040D465543AE462D0C3D43029510
:1006500003947546049C2D04641B049406D2029CEA
:10066000039D641C002675410395029401AC70CC77
:10067000009F7D1BB44101948C050694079C890A58
:10068000611800950791019C0599A4086143090C24
:100690000D464543680BEF040D46644665436C0BFD
:1006A0003C43049FED047D1BAC4602D20025641C34
:1006B0006841009E019D371B8541084658430195BE
:1006C0000C46460FC5005443600F28436546E400BE
:1006D0002C1B02D20025401C6E41019D3F1AB541E2
:1006E0002846BD09800628438446A009BF064E025D
:1006F0000699A40676180743079D002068410A99C9
:10070000079019430020099B00906046FF1913438E
:100710004041E20F64003A43A4460446D71A8C4194
:10072000A04203D90120009020463A46C70F9418F2
:1007300040416246D20F2243644664000494009C08
:10074000BE466400D71AA446044602978C417746F9
:10075000002F01D1A04204D96046401C8446029A71
:100760002046C40FA64694184041049A0546D20F6D
:10077000224364466400D31A8D417146002901D199
:10078000A84202D928461A46641C104301220028B8
:1007900000D0164361020020079B891904465C4182
:1007A0000223002C02DB491813466441089DCE0A3F
:1007B0002D145D194B056705E10A2C050D190899E3
:1007C0003E43C9076940002B08D0934006D300225E
:1007D000761C5141002B01D1760876001C4A002D71
:1007E00043DB154241D0AA433FD030460BB0F0BDA9
:1007F00006180D464D41174C7642AC411AD3951858
:100800001C465C41134A6D42A24113D3012252059A
:100810004C00D4420AD15C00D4420BD04B4002D5EC
:1008200092021143E2E749004908DFE75940C90F46
:10083000C90718E000200849D8E7054801420DD152
:100840000342F7D0F2E700000000FF07B6FE000009
:100850000000F07F0000E0FF0000F87F11485940E1
:100860000143C01241400020C0E70123089A9B06C3
:100870009A4205DC032252078918C90FC907B5E758
:10088000052252078918074A1143D2125140ADE799
:1008900070B515461C4602460B4628462146FFF712
:1008A000DFFD70BDFFFFFF7F0346CA02400D10B59C
:1008B00010430A1504D00124E4072043002A05DB75
:1008C0000A4CA21A04D4D040FF2A00DD002010BD3B
:1008D0004A00002B01D0012000E000201018012266
:1008E0005205D042F2D8C817C04310BD1E04000004
:1008F00010B50B1E01D0202301E0011E2BD00C0CE3
:1009000001D10904103B0C0E01D10902083B0C0F68
:1009100001D109011B1F8C0F01D189009B1E0029E9
:1009200001DB49005B1E0446DC4021431C05A41882
:100930002022D21A90404B05C20AC90A1A4309194B
:10094000830501D1430818401623984002D30020A4
:10095000521C4141104610BDCA0FD20703D00B46AE
:10096000002140429941024B1A43C1E7004ABFE7C8
:100970000000D041F0B58B4C0F09254689B0BD432E
:100980007BD01D092646AE43FAD00E465E40274076
:10099000F60F3E43254071D024012142FBD0FF24B5
:1009A000AD19A4042D1B039501252D05DB02DB0ADF
:1009B000C9022B43C90A29431E010901040F130F61
:1009C000050121431701880B820391432D098C46B1
:1009D000A90B1E438A039543B30B9A0396433F0921
:1009E000BA0B9403A74302962E467E430497B6465D
:1009F0004E19D7190C460196544305977E43371B71
:100A00007646BF1B3601B646BE0B361900967646B3
:100A1000BC043719009C01D3641C00946400002FAF
:100A200001D001263443029E049F754366467E43EF
:100A30000496760034196E0034190094029C019ECD
:100A40001C196643751BAE46069465464519059C00
:100A500005956C43594375460891691A0191049EA6
:100A600001465143A41B0491611A009C0791E106C1
:100A700005D061090122114302E072E06EE06109D4
:100A8000089D00272C0A2D066918049D7C412A0A1E
:100A90002D066918019D6241AC0DAD026D185441DF
:100AA000079A910D920255196141029A6446584382
:100AB0005443069B059A5A43121A131B9A0E9B0124
:100AC0005B187A41010B0005C3185141220A200628
:100AD00044195A419A4200D2491C012040028142E5
:100AE00003D315230226F64302E014230326F6431C
:100AF0002020C51AA9401746AF40DA400A432046D5
:100B00000399D8400914731819055118039A3843EA
:100B1000D2075140AC4009D00122944006D30022B4
:100B2000401C5141002C01D1400840001E4A934214
:100B300012D3012203989206904207DB052040075A
:100B400009181A480143C012414004E0032040073D
:100B50000818C10FC907002009B0F0BD0020F10737
:100B6000FAE705180C464C4111486D42A04115D3D7
:100B700094181A465A410E48644290410ED30120FF
:100B80004A004005824209D35A00824206D35940A6
:100B9000C90F084AC90700201143DDE700200649B4
:100BA000DAE700000000FF07FE070000FFFFFF7FFD
:100BB0000000E0FF0000F07F0000F87FF0B5FF25A7
:100BC0002D04C609C209FF2704462E400137CB0970
:100BD0003E4348402A402B400746002A6BD0002B5A
:100BE00069D0AA4267D0AB4265D0002800DA32460D
:100BF0000125ED0529432C4309022002090AD21AD6
:100C00004B0C7F24E31A434C000A7C44E35C7D24B4
:100C10002404121914145B00A218884201D3521C38
:100C200000E0400049420C465C4324115C43DB0178
:100C30006415E318040A5C43C502200D0C464443C6
:100C40006419250A5D432303EC0C0D46654300033C
:100C50000019EB184C42A34201D35B18401CD40589
:100C60002018002B07D05B00C91804D3401C0029B2
:100C700001D1400840003F2189048A4209D3002A5B
:100C800008DC1106090F04D0032149074018C00FE2
:100C9000C007F0BD01224100120689187F225206CA
:100CA0009142F6D205214907C84201D59010F0BD06
:100CB000FF20C005F0BD002F00DA32461648AA42D8
:100CC00007D2AB4205D21902090E17D0F80FC007A0
:100CD000F0BDFF2563002D06AB42F9D84900A942BB
:100CE000F6D8AB4201D1A942F2D0A94201D10021EC
:100CF00001E061004908D0050843F0BD1102090E6A
:100D0000FBD0FF200243D005F0BD0A460146104645
:100D100054E70000F4F700000000C07F10B5014662
:100D20009E240002CA15A307002A02D01843002AF5
:100D300004DBA21A002A0CDDD04010BD1206120EF0
:100D400001D140004008A21A03D4D04040420028FC
:100D5000F3DDFF2248001206904201D9002010BDA9
:100D6000C817C043584010BD0102C21504D001236A
:100D7000DB071943002A0ADB9E239A1A02D408468D
:100D8000D0407047FF2241001206914201D9002055
:100D90007047C017C04370471F22030C02D10F22B7
:100DA00000041CD0030E01D10002083A030F01D148
:100DB0000001121F830F01D18000921E002801DB69
:100DC0004000521ED20551180212511819229040AB
:100DD00004D3491C002801D149084900084670473E
:100DE000C10FC90700D04042012292071143D3E747
:100DF00001218907D0E7754600F024F8AE460500CA
:100E000069465346C008C000854618B020B5FFF7B4
:100E1000FBF960BC00274908B6460026C0C5C0C51E
:100E2000C0C5C0C5C0C5C0C5C0C5C0C5403D4900DE
:100E30008D46704710B50446C046C0462046FFF7B1
:100E40007CF910BD00487047E03B002001491820A4
:100E5000ABBEFEE726000200704770B58C1805781F
:100E6000401C6B075B0F01D10378401C2A1106D18F
:100E70000278401C03E00678401C0E70491C5B1E83
:100E8000F9D12B0705D40023521E0DD40B70491C39
:100E9000FAE70378401CCB1A921C03E01D780D7012
:100EA000491C5B1C521EF9D5A142D8D3002070BD4D
:100EB00010B50CF0B5FF044800F070FB034800F0DB
:100EC000E2F80CF0BBFF10BD0C34002024370020EA
:100ED00010B50CF0A5FF08F0F3F80CF0AFFF10BD53
:100EE00010B50CF09DFF08F01BF90CF0A7FF10BD2A
:100EF00010B50CF095FF08F0D1FA0CF09FFF10BD73
:100F000070B5044600F044FD05460BE0601C002867
:100F100008D0002C04D000F03BFD401BA04201D9BA
:100F2000032070BD24488069C007C00F01214840DC
:100F300048400028EAD12048806902210840022860
:100F400001D11D4988611C488069FF210131084099
:100F5000000A002829D11848806949000840400A41
:100F6000002822D11448806949000840800A0028DE
:100F70001BD11148806949000840C00A002814D1DB
:100F80000D48806989000840400B00280DD10A48AF
:100F9000806909010840400C002806D10648806994
:100FA00049100840000C002803D005F049F9012041
:100FB000B7E70020B5E7000000200240F8B504467E
:100FC0000F460025002600BF5420005D012801D1F6
:100FD0000220F8BD01215420015500BF206880681F
:100FE0008007800F012806D120680068084000288B
:100FF00001D0012000E0002000282FD1A06DFF21AA
:101000000131884302210843A06520688068890770
:1010100008432168886000F0BBFC064611E000F040
:10102000B7FC801B0A280CD9A06D0221884310212F
:101030000843A06500BF00215420015500BF0120D6
:10104000C7E720688068C00FC0070028E7D1A06DFF
:101050000221884301210843A06504E0A06D2021FE
:101060000843A065012500BF00215420015500BFA1
:101070002846AEE7704770470146886D70470146C5
:101080000868006C704710B50446206800680421A9
:101090000840042804D120684068084004280AD089
:1010A0002068006808210840082840D1206840686E
:1010B000084008283BD1A06D10210840002803D12A
:1010C000A06D49010843A0652068C068032189021A
:1010D0000840002825D1A06A002822D12068006895
:1010E0000821084008281CD1206880680421084095
:1010F000800800280DD1206840680C2188432168B1
:101100004860A06DFF210131884301210843A0659B
:1011100007E0A06D20210843A065E06D0121084390
:10112000E0652046FFF7A6FF0C20216808602068D4
:1011300000688021084080280ED12068406808405F
:10114000802809D1A06D49020843A065204600F01F
:101150003FF980202168086020680068102108405D
:1011600010281AD1206840680840102815D1206C3A
:10117000002805D02068C068C007C00F002809D02B
:10118000E06D02210843E0651020216808602046D8
:10119000FFF771FF10202168086010BD10B50446EC
:1011A000002C01D1012010BDA06D002806D1E06502
:1011B000002154200155204600F00CF9A06D1021AB
:1011C0000840002806D12068806804210840800873
:1011D00000280AD0A06D10210843A06500BF00219F
:1011E0005420015500BF0120DDE7A06DFF21013132
:1011F000884302210843A065206880688007800F2B
:10120000012807D120680068C007C00F002801D05E
:10121000012000E0002000283AD100BF0321890707
:101220006069884207D049426069884203D049001A
:10123000606988420CD120680069800080082168BC
:10124000086120680069616908432168086112E04B
:10125000206800698000800821680861594880681A
:101260000F2189048843574988600846806861696E
:1012700008435449886000BF2068C068182188432B
:101280002168C8602068C068A16908432168C860F7
:101290004C4880680121490688434A4988600846CD
:1012A0008068A16C490608434649886020688068C8
:1012B000012109070840002804D1206880680843FC
:1012C000216888602068C0683F4908402168C8607C
:1012D000216A606A022901D1042100E0002108434B
:1012E000A16A49030843A16B49000843216C0843E4
:1012F000616C89030843E16CC90308432168C9682C
:1013000008432168C860FF21C231206B884207D0A2
:10131000616B206B08432168C96808432168C86075
:10132000E06A012812D1A06A002807D12068C068AD
:101330000121090408432168C86007E0A06D20214D
:101340000843A065E06D01210843E065606801285D
:1013500016D1206800691D49084021680861A1680C
:10136000E068084321690843216809690843216846
:1013700008612068006901210843216808610BE0C9
:1013800020680069C007C00F002805D020680069E8
:10139000400840002168086120684069C008C0001A
:1013A0002168486120684069E16908432168486113
:1013B0000020E065A06D0221884301210843A0655B
:1013C0000020F0E6002701401902FEFF03FCFF7F2A
:1013D0007047000010B504460448406B01214902E3
:1013E00008430249486306F0DBF910BD00100240D3
:1013F000F8B504460D46E06B082801D1082711E036
:101400002068C068C007C00F00280AD0A06D202146
:101410000843A06500BF00215420015500BF0120F2
:10142000F8BD0C2700F0B4FA064614E0681C00284A
:1014300011D0002D04D000F0ABFA801BA8420AD9CD
:10144000A06D04210843A06500BF00215420015570
:1014500000BF0320E4E72068006838400028E5D09A
:10146000A06D012149020843A0652068C0680321DE
:1014700089020840002825D1A06A002822D12068CE
:1014800000680821084008281CD1206880680421D1
:101490000840800800280DD1206840680C2188434E
:1014A00021684860A06DFF21013188430121084374
:1014B000A06507E0A06D20210843A065E06D012133
:1014C0000843E065606C002802D10C2021680860A8
:1014D0000020A5E770B50446002520688068042137
:1014E0000840800800282BD100BF5420005D01284F
:1014F00001D1022070BD01215420015500BFE06CD4
:10150000012803D0204602F037FE0546002D18D1F1
:10151000A06D0D490840FF2101310843A06500205E
:10152000E06500BF00215420015500BF1C20216848
:10153000086020688068042108432168886000E012
:1015400002252846D6E70000FEF1FFFF70B50446ED
:10155000002500BF5420005D012801D1022070BD8C
:1015600001215420015500BF204604F033FE0546FA
:10157000002D0CD1204602F015FF0546002D06D1A6
:10158000A06DFF210131884301210843A06500BF00
:1015900000215420015500BF2846E0E770B50446FD
:1015A00015492068884202D10120400501E0012050
:1015B000800505460120400585420BD10F48406952
:1015C00029460840002805D008460C4948612046B5
:1015D00000F016F80120800585420BD107484069CC
:1015E00029460840002805D008460449486120469D
:1015F00000F006F870BD0000180001400004014032
:1016000070470000034840680221084301494860D0
:1016100000207047002002400D4840680221084029
:10162000002810D00A484068C007C00F002804D026
:1016300008480749C8600848C86008480449086164
:101640000748086101E0012070470020FCE7000026
:1016500000200240EFCDAB8905040302BFAE9D8C94
:1016600016151413F0B50B4600210022002479E072
:1016700001258D401D402A46002A72D005684F0082
:101680000326BE40B5430560CD08AE0005462035B3
:10169000AD594E07F70E0F26BE40B543CE08B60033
:1016A00007462037BD5185684F000326BE40B5432D
:1016B0008560456801268E40B5434560C5684F008A
:1016C0000326BE40B543C560294D8E08B600AC590F
:1016D0008D072E0F0F25B5402C4005252D07A8425C
:1016E00001D1002519E0234DA84201D1012514E0C4
:1016F000214DA84201D102250FE0204DA84201D181
:1017000003250AE01E4DA84201D1042505E01D4D28
:10171000A84201D1052500E006258E07360FB54009
:10172000A5421ED18D072E0F0F25B5402C46104D1A
:101730008E08B600AD59A5430D4E8F08BF00F55178
:10174000114D2D689543104E356035466D689543B3
:1017500075603546AD689543B5603546ED6895438F
:10176000F560491C1D46CD40002D81D1F0BD000023
:10177000080001400004005000080050000C005018
:1017800000100050001C00500004014070B50346DA
:10179000002200240020DFE0012696400D6835403D
:1017A0002C46002C77D04D68022D02D04D68122DAA
:1017B00015D1D508AE001D462035A8595507EE0EA7
:1017C0000F25B5400646AE4330465607F60E0D6966
:1017D000B5402843D508AD001E46203670514D68EF
:1017E000012D08D04D68022D05D04D68112D02D075
:1017F0004D68122D18D1986856000325B54006464D
:10180000AE4330465600CD68B540284398605868CE
:10181000012595400646AE43304610264D683540BA
:101820002D09954028435860186856000325B54097
:101830000646AE4330460D79AD07AD0F5600B540B4
:1018400028431860D86856000325B5400646AE43C5
:10185000304656008D68B5402843D86001263607CB
:101860004D683540B54276D13E4D6D6B012635430E
:101870003C4E75633C4D9608B600A85995072E0F4F
:101880000F25B5400646AE43304605252D07AB4231
:1018900002D100251AE05EE0344DAB4201D10125B2
:1018A00014E0334DAB4201D102250FE0314DAB4284
:1018B00001D103250AE0304DAB4201D1042505E0FA
:1018C0002E4DAB4201D1052500E006259607360FC7
:1018D000B5402843244D9608B600A851284D2868E5
:1018E0000546A5432846012636044D683540B542D5
:1018F00002D1054625432846214D286068680546E3
:10190000A5432846012676044D683540B54202D1EC
:101910000546254328461A4D6860A8680546A54334
:101920002846012636054D683540B54202D10546A8
:1019300025432846124DA860E8680546A543284679
:10194000012676054D683540B54202D1054625434E
:1019500028460B4DE860521C0D68D540002D00D084
:101960001AE770BD0010024008000140000400505A
:1019700000080050000C005000100050001C0050E7
:1019800000040140002A01D0816100E081627047BB
:1019900001480068704700000C0100200248006800
:1019A000401C0149086070470C01002070B50446D6
:1019B00000F024FC05467D21C900FEF7A1FC401E75
:1019C000054948610720086100222146501E00F0A9
:1019D00087F9002070BD000000E000E070B504460B
:1019E000002600253520005D012803D03520005D4C
:1019F000022837D100BF3420005D012801D1022028
:101A000070BD01213420015500BF02213520015550
:101A1000FFF7BEFF06460FE0FFF7BAFF801B7D21F0
:101A2000C900884208D90220A06300BF00213420E9
:101A3000015500BF0320E3E72068806804210840C7
:101A400080080028E8D1002505E000212068143036
:101A5000AA0081506D1C0F2DF7D9204600F0AAF87E
:101A60000020CDE70120CBE770B504460026002515
:101A7000002C01D1012070BD3520005D002807D168
:101A800000BF00213420015500BF204600F07EF841
:101A90000221352001552068006840084000216877
:101AA0000860002506E0002120681430AA0081505B
:101AB000681CC5B20F2DF6D9206880680421084340
:101AC00021688860A16860680843A16A0843E16AE8
:101AD0000843E1690843216A0843A1690843616A30
:101AE000084321684968284A114008432168486032
:101AF000204601F036FF2169E06808436169084328
:101B0000216B084321680968FE229143084321683C
:101B10000860206800680121084321680860FFF719
:101B200037FF06460AE0FFF733FF801B7D21C9001F
:101B3000884203D90820A06303209CE720688068BE
:101B4000C007C00F0121484048400028EBD0FFF7F4
:101B50001FFF06460AE0FFF71BFF801B7D21C9001F
:101B6000884203D91020A063032084E7206880689E
:101B70001021084000090028EDD00020A0630121B9
:101B800035200155002076E70F0000FC10B5044613
:101B900004F072F90548806B0121490208430349AA
:101BA000886301200249088010BD00000010024037
:101BB0006201002070B50446002508202168C86035
:101BC000206880680421084321688860FFF7E0FEF0
:101BD00005460FE0FFF7DCFE401B7D21C90088426F
:101BE00008D90420A06300BF00213420015500BFA4
:101BF000032070BD2068806808210840C0080028C4
:101C0000E8D001213520015500BF002134200155C5
:101C100000BF0020EDE7F8B504460D4616461F4606
:101C2000002000903520005D012803D03520005DA4
:101C300002283AD13520005D012829D100BF342087
:101C4000005D012801D10220F8BD01213420015599
:101C500000BF022135200155FFF79AFE009010E0E9
:101C6000FFF796FE0099401A7D21C900884208D9E5
:101C70000220A06300BF00213420015500BF0320D3
:101C8000E2E7206880680421084080080028E7D146
:101C900020681430A9004058F14388433843216834
:101CA0001431AA0088500020CEE70120CCE70000C4
:101CB00000BFC206D20E01219140024A116000BF4E
:101CC0007047000080E100E000BFC206D20E012193
:101CD0009140024A116000BF7047000000E100E03F
:101CE00070B504460D4616462946204603F05EFEB2
:101CF00070BD0000034800680121890208430149C2
:101D000008607047007000400348006801214902E4
:101D100008430149086070470070004003480068AC
:101D2000FF210131084301490860704700700040FD
:101D300010B5024600200B4B18688008800003464F
:101D400013431846074B1860074B1B690424A34331
:101D5000054C2361012901D130BF02E040BF20BF03
:101D600020BF10BD0070004000ED00E010B502463D
:101D700000200E4B18688008800003461343184665
:101D80000A4B18600A4B1B6904242343084C236147
:101D9000012901D130BF02E040BF20BF20BF044B6A
:101DA0001B690424A343024C236110BD0070004052
:101DB00000ED00E070B504460025002620212068D3
:101DC0000840202804D0890120680840884277D143
:101DD0009148006803210905084003221205A16902
:101DE0001140884207D18C48006811460840E169DB
:101DF000114088420ED003210904A069084088429E
:101E000008D185480068012149040840002801D014
:101E1000012070BD8048806B0121090708437E497D
:101E200088637E480068891508437C490860FFF78D
:101E3000AFFD054606E0FFF7ABFD401B642801D966
:101E40000320E6E775480068FF21013108400028BB
:101E5000F1D0714840300069032109040840032291
:101E60001204A1691140884208D16B4840300069D2
:101E700011460840E169114088425CD06648403014
:101E8000006903210904884306466348403000691D
:101E90000121C904084360494031086108460069CE
:101EA0000121C90488435C49403108610846066144
:101EB00040153040002815D0FFF76AFD054608E0C0
:101EC00039E0FFF765FD401B5549884201D90320E1
:101ED0009FE7514840300069012149020840400A0B
:101EE0000028EED000BF03210904A0690840884201
:101EF0000BD1494800680901884303221205A169F2
:101F0000114008434449086006E043480068032143
:101F100009058843404908603F4840300069032173
:101F20000904884303221204A169114008433A4975
:101F30004031086100BF2078C007C00F002809D0D9
:101F400035484030C06880088000616808433249E5
:101F50004031C860022120680840022809D12E487B
:101F60004030C0680C218843A16808432A494031A9
:101F7000C86004212068084004280AD1264840305F
:101F8000C068032189028843E1680843224940313F
:101F9000C86008212068084008280AD11E4840303F
:101FA000C068032109038843216908431A49403165
:101FB000C860FF2101312068084088420AD11648D4
:101FC0004030C0680321090488436169084312490D
:101FD0004031C860402120680840402809D10E489F
:101FE0004030C06809058843216A08430A494031E6
:101FF000C86080212068084080280AD10648403007
:10200000C068032189048843616A0843024940315A
:10201000C8600020FDE60000001002400070004093
:102020008813000070B504460D460026704800680D
:10203000C007C00FA8420ED26D480068400840009B
:1020400028436B49086008460068C007C00FA842D3
:1020500001D0012070BD022120680840022807D16C
:102060006448C068F0218843A16808436149C8609A
:102070002078C007C00F00284CD06068022809D122
:102080005C480068012149040840400C002824D124
:102090000120DFE76068002809D156480068012167
:1020A00049020840400A002817D10120D2E76068A1
:1020B000032809D14F480068012149060840400E15
:1020C00000280AD10120C5E74A48006804210840D9
:1020D0008008002801D10120BCE74648C06880087C
:1020E0008000616808434349C860FFF751FC064619
:1020F000606802280FD107E0FFF74AFC801B3E49C9
:10210000884201D90320A5E73A48C0680C2108405D
:102110000828F1D134E0606803280FD107E0FFF709
:1021200037FC801B3449884201D9032092E73148AB
:10213000C0680C2108400C28F1D121E0606800281B
:102140000FD107E0FFF724FC801B2B49884201D9FF
:1021500003207FE72748C0680C2108400028F1D100
:102160000EE007E0FFF714FC801B2349884201D9E9
:1021700003206FE71F48C0680C2108400428F1D1F4
:102180001B480068C007C00FA8420ED3184800685B
:102190004008400028431649086008460068C00708
:1021A000C00FA84201D0012054E704212068084054
:1021B000042808D10F48C068072109028843E16854
:1021C00008430C49C860082120680840082809D144
:1021D0000848C0680721C90288432169C90008432B
:1021E0000449C8600020FFF7E1FB002032E700004F
:1021F00000200240001002408813000010B500F0DB
:1022000037F80649C968F02211400909044A515CAF
:10221000C840044908600846006810BD001002402C
:10222000D2FA00080801002010B5FFF7E7FF0549C2
:10223000C968072212021140090A034A515CC840CA
:1022400010BD000000100240D2FA000810B5FFF7E0
:10225000D5FF0549C9680722D2021140C90A034ABD
:10226000515CC84010BD000000100240D2FA0008C6
:10227000F8B50024002600200090002700253248F1
:102280004068072149030840470B2F48C0680C21CC
:102290000840002806D0042809D0082811D00C28AE
:1022A00049D110E0781C01218140CD0348E0264847
:1022B000006810210840002801D0244D00E0244D82
:1022C0003EE0244D3CE02048C0680F2189040840CE
:1022D00004461D48C0680321890508400646A00C35
:1022E0001D490C5CB00D461C1748C068012109044B
:1022F000084000900098002815D11348006810216C
:102300000840002807D01149614308463146FDF7CF
:10231000F7FF05460EE00E49614308463146FDF7DA
:10232000EFFF054606E00B49614308463146FDF7DD
:10233000E7FF054604E0781C01218140CD0300BF82
:1023400000BF2846F8BD00000010024000093D0013
:102350000024F40000127A00C9FA0008F8B5044617
:1023600000252078C007C00F00286FD0F948C0684A
:102370000C21084008280BD0F648C06808400C28FB
:1023800013D1F448C06801210904084088420CD1E7
:10239000F0480068012149040840400C002869D039
:1023A0006068002866D10120F8BD00BF0121090442
:1023B0006068884205D1E74800680843E54908603D
:1023C0002DE0052109046068884215D1E1480068C4
:1023D000012109048843DF4908600846006801219B
:1023E00089040843DB4908600846006801210904A4
:1023F0000843D849086012E0D64800680121090462
:102400008843D4490860084600680121090408404F
:102410000090D048006889008843CE49086000BF1A
:102420006068002813D0FFF7B3FA054606E0FFF70F
:10243000AFFA401B642801D90320B5E7C5480068FE
:10244000012149040840400C0028F0D012E0FFF7B9
:102450009FFA054606E0FFF79BFA401B642801D966
:102460000320A1E7BB480068012149040840400C53
:102470000028F0D102212068084002286AD1B5481E
:10248000C0680C21084004280BD0B248C06808403E
:102490000C281DD1AF48C06801210904084000285C
:1024A00016D1AC480068042108408008002804D0F8
:1024B000E068012801D0012076E7A64840681F2186
:1024C00009028843216909020843A249486041E0A2
:1024D000E068002824D09F48006809218843E1680B
:1024E00008439C490860FFF753FA054606E0FFF7EA
:1024F0004FFA401B022801D9032055E79548006890
:102500000421084080080028F1D0924840681F212B
:10251000090288432169090208438E49486019E08D
:102520008C48006809218843E168084389490860AC
:10253000FFF72EFA054606E0FFF72AFA401B0228AD
:1025400001D9032030E7834800680421084080084F
:102550000028F1D1102120680840102872D17D4850
:10256000C0680C210840002822D17A480068012167
:1025700049020840400A002804D0E069002801D13F
:10258000012011E773484068072149038843616AC5
:10259000084370494860084640680002000A218CE0
:1025A000090608436B4948600020FFF7FFF949E03E
:1025B000E06900282CD067480068FF2101310843FA
:1025C00064490860FFF7E4F9054606E0FFF7E0F923
:1025D000401B022801D90320E6E65E48006801217D
:1025E00049020840400A0028F0D05A4840680721B4
:1025F00049038843616A0843564948600846406871
:102600000002000A218C090608435249486019E07B
:1026100050480068FF21013188434E490860FFF7A8
:10262000B7F9054606E0FFF7B3F9401B022801D9C8
:102630000320B9E647480068012149020840400AE2
:102640000028F0D1082120680840082839D16069A5
:1026500000281BD03F4840300069012108433D4914
:1026600040310861FFF794F9054606E0FFF790F95D
:10267000401B022801D9032096E636484030006905
:102680000221084040080028F0D01AE031484030CC
:102690000069400840002F4940310861FFF778F990
:1026A000054606E0FFF774F9401B022801D9032014
:1026B0007AE6284840300069022108404008002896
:1026C000F0D1202120680840202850D1A06900289E
:1026D00026D000BF1F488068012108431D4988603B
:1026E0000846406B012108431A4948631A48006AAA
:1026F000491408431849086200BFFFF749F9054625
:1027000006E0FFF745F9401B022801D903204BE6FC
:10271000104880680221084040080028F1D026E0D7
:1027200000BF0C488068400840000A4988600A4899
:10273000006A0A4908400849086200BFFFF728F903
:1027400005460DE0FFF724F9401B022808D90320B5
:102750002AE600000010024000000140FEDFFFFFFB
:102760009B4880680221084040080028EAD10421E3
:102770002068084004287DD1002600279448806BFB
:1027800089060840002805D19148806B084390498C
:10279000886301268F480068FF2101310840002826
:1027A00017D18C48006808438A4908600127FFF761
:1027B000EFF8054606E0FFF7EBF8401B642801D967
:1027C0000320F1E583480068FF210131084000281B
:1027D000F1D000BFFF210131A068884207D17C48B9
:1027E0004030006908437A494031086140E0A06800
:1027F000002810D1764840300069FF21013188431C
:1028000073494031086108460069091588437049D9
:10281000403108612CE005210902A068884217D1E7
:102820006B4840300069FF210131884368494031DD
:102830000861084600690915084365494031086187
:1028400008460069891508436149403108610FE075
:102850005F4840300069FF21013188435C494031C5
:1028600008610846006909158843594940310861E3
:1028700000BF00E03EE0A068002815D0FFF788F810
:10288000054607E0FFF784F8401B5349884201D909
:10289000032089E54E484030006901214902084083
:1028A000400A0028EED014E0FFF772F8054607E072
:1028B000FFF76EF8401B4849884201D9032073E5B1
:1028C000434840300069012149020840400A00287D
:1028D000EED1012F05D13F480068390288433D49B8
:1028E0000860012E05D13A48806B3107884338498A
:1028F000886300BFA06A002867D03548C0680C21F3
:1029000008400C285FD0A06A022841D130480068F6
:102910000121090688432E490860FFF739F805466A
:1029200006E0FFF735F8401B022801D903203BE5FC
:1029300027480068012149060840400E0028F0D1D0
:10294000616B206B0843E16A08432149C968FD2295
:102950001204914308431E49C860084600680121DB
:10296000090608431A490860FFF712F8054606E011
:10297000FFF70EF8401B022801D9032014E5144884
:102980000068012149060840400E0028F0D01CE0F4
:102990000F4800680121090688430D490860FEF7C9
:1029A000F7FF054606E0FEF7F3FF401B022801D9BA
:1029B0000320F9E406480068012149060840400E5A
:1029C0000028F0D101E00120EEE40020ECE400005A
:1029D00000100240007000408813000010B504464B
:1029E000002C01D1012010BD206800680C21884313
:1029F0002168086020684068602188432168486039
:102A0000204600F06BF80020607100BF207100BF0D
:102A100000BFE8E7F8B504460D460026002700BFD2
:102A20002079012801D10220F8BD0120207100BFCA
:102A30006079012825D102206071FEF7A9FF0646C2
:102A40000EE0FEF7A5FF801B7D21C900884207D953
:102A50000420607100BF0020207100BF0320E3E765
:102A600020684068C007C00F012148404840002846
:102A7000E7D020688068A060A068286001206071AD
:102A800000E0012700BF0020207100BF3846CBE7DF
:102A900010B50446002C01D1012010BD00BF2079E3
:102AA000012801D10220F8E70120207100BF6079E0
:102AB000002803D12071204600F052F802206071F6
:102AC00020680068042108432168086001206071C3
:102AD00000BF0020207100BF00BFDEE710B598B036
:102AE00004461E48006B0121090508431B49086381
:102AF00038210AA8FDF702FC28216846FDF7FEFBF5
:102B000020200A900020149010900AA8FFF726FCBD
:102B1000002801D000BFFEE740200090000508908B
:102B20006846FFF747F9002801D000BFFEE70B48D1
:102B3000006B012109058843084908630846006ABB
:102B4000012109050843054908620846006A012178
:102B5000090588430149086218B010BD0010024001
:102B600010B598B0044638210AA8FDF7C7FB282104
:102B70006846FDF7C3FB20200A9000201490012036
:102B800010900AA8FFF7EAFB002801D000BFFEE77B
:102B900040200090000508906846FFF70BF90028D8
:102BA00001D000BFFEE70448006B0121090508437E
:102BB0000149086318B010BD0010024070B504460A
:102BC000002500BF2020005D012801D1022070BD3A
:102BD00001212020015500BF02212120015500BF05
:102BE000CA202168486253202168486200BF2068DB
:102BF0008068012189028843216888602068806894
:102C000001218903884321688860FEF7C1FE0546DB
:102C100015E0FEF7BDFE401B7D21C90088420ED99C
:102C200000BFFF202168486200BF03212120015519
:102C300000BF00212020015500BF0320C7E7206806
:102C4000C0680421084080080028E2D000BFFF20AF
:102C50002168486200BF01212120015500BF0021E9
:102C60002020015500BF0020B1E70000F8B5044660
:102C70000D461646002700BF2020005D012801D127
:102C80000220F8BD01212020015500BF0221212092
:102C9000015500BFCA20216848625320216848625C
:102CA00000BF20688068012189020840002820D0E8
:102CB000FEF76EFE074615E0FEF76AFEC01B7D219B
:102CC000C90088420ED900BFFF202168486200BFBA
:102CD00003212120015500BF00212020015500BF04
:102CE0000320CEE72068C06804210840800800283F
:102CF000E2D12068806801218902884321688860C8
:102D0000FEF746FE074615E0FEF742FEC01B7D219A
:102D1000C90088420ED900BFFF202168486200BF69
:102D200003212120015500BF00212020015500BFB3
:102D30000320A6E72068C068042108408008002816
:102D4000E2D02068456120688068C008C000216822
:102D50008860206880683043216888601548006872
:102D600001210905084313490860084680680121CC
:102D7000090508430F49886020688068012189039C
:102D8000084321688860206880680121890208431F
:102D90002168886000BFFF202168486200BF0121D0
:102DA0002120015500BF00212020015500BF002037
:102DB00067E700000004014010B504460D480068B4
:102DC000042108430B4908600B480088401C0A494D
:102DD000088008460088782801DB09F00FFE0748C4
:102DE0000068002804D008210448006809F09EFE0D
:102DF00010BD0000007000401201002018000020EB
:102E000010B504462068C068012189020840800A84
:102E100000280AD02046FFF7CFFF2068C068802135
:102E20000840064908432168C8600120000504499C
:102E3000486101212120015510BD00007FFBFFFFEB
:102E40000004014010B50446002C01D1012010BD42
:102E50002120005D002805D10021202001552046B9
:102E600000F054F802212120015500BFCA2021683A
:102E7000486253202168486200BF204600F0E6FD0A
:102E8000002809D000BFFF202168486200BF04214C
:102E9000212001550120DAE7206880681A4908409E
:102EA00021688860216960680843A1690843216836
:102EB00089680843216888602168E06808612068A3
:102EC0000069218909040843216808612068C068F5
:102ED000802188432168C8602068C06C8008800019
:102EE0002168C8646169E06908432168C96C0843C6
:102EF0002168C86400BFFF202168486200BF01212B
:102F0000212001550020A2E7BFFF8FFF10B598B028
:102F100004461B48806B0121090708431849886350
:102F2000FEF7FCFE0C200A9000201490FF200130D8
:102F30000C9000200F900AA8FFF710FA002801D08B
:102F400003F051FB20200090C00206906846FEF777
:102F500031FF002801D003F046FB094840300069EA
:102F600001218904084306494031086100221146C5
:102F70000220FEF7B5FE0220FEF7A6FE18B010BD37
:102F800000100240F8B504460D461646002700BF63
:102F90002020005D012801D10220F8BD0121202060
:102FA000015500BF022121200155002E09D168786A
:102FB00010210840102804D16878EF2108400A3019
:102FC0006870002E11D1E87800F033FD03046878B2
:102FD00000F02FFD00020343A87800F02AFD034310
:102FE0002878400303431F4612E0687800F014FD80
:102FF0000746A87800F010FD0746E87800046978D5
:1030000009020843A9780843297849030843074679
:1030100000BFCA202168486253202168486200BF6F
:10302000204600F013FD00280ED000BFFF202168CD
:10303000486200BF04212120015500BF002120204B
:10304000015500BF0120A8E71948384021684860B1
:103050002068C068802188432168C8602068806833
:1030600020210840002813D1204600F0CDF8002888
:103070000ED000BFFF202168486200BF042121203C
:10308000015500BF00212020015500BF012084E729
:1030900000BFFF202168486200BF012121200155A7
:1030A00000BF00212020015500BF002075E700006F
:1030B0003FFFFF00F8B504460D461646002700BF47
:1030C0002020005D012801D10220F8BD012120202F
:1030D000015500BF022121200155002E1BD120687F
:1030E000806840210840002800D002E00020E870FD
:1030F00000BF287800F09DFC0304687800F099FC7C
:1031000000020343A87800F094FC0343E87800042D
:1031100003431F4618E020688068402108400028CB
:1031200004D0287800F078FC074602E00020E87020
:1031300000BF28780004697809020843A978084389
:10314000E97809040843074600BFCA20216848629D
:1031500053202168486200BF204600F077FC002819
:103160000ED000BFFF202168486200BF042121204B
:10317000015500BF00212020015500BF0120A4E718
:10318000204838402168086020688068012189044F
:103190008843216888602969E8680843216889684C
:1031A0000843216888602068C068802188432168BE
:1031B000C8602068806820210840002813D120467C
:1031C00000F022F800280ED000BFFF2021684862DE
:1031D00000BF04212120015500BF002120200155FE
:1031E00000BF012071E700BFFF202168486200BFD7
:1031F00001212120015500BF00212020015500BFE1
:10320000002062E77F7F7F0070B5044600252068BC
:10321000C068A02188432168C860FEF7B9FB054655
:1032200008E0FEF7B5FB401B7D21C900884201D9AB
:10323000032070BD2068C068202108400028F0D01D
:103240000020F6E710B50446002C01D1012010BD86
:103250003520005D002805D100213420015520468D
:1032600000F00CF8022135200155211D206803F0E3
:103270004DF80121352001550020E8E710B504463E
:103280000748806B01210843054988630022032118
:103290000F20FEF725FD0F20FEF716FD10BD0000E4
:1032A0000010024001460868C068012210430A6805
:1032B000D06008680068012210430A68106000208E
:1032C0007047000001460868C068400840000A686E
:1032D000D06000BF0868006A064A1040002805D187
:1032E00008680068400840000A68106000BF0020BD
:1032F0007047000011110000704710B504462068A7
:10330000006902210840400800281CD02068C068DD
:1033100008404008002816D0481F21680861012095
:103320002075206880698007800F002803D0204620
:10333000FFF7E2FF05E0204600F09DF8204600F090
:103340009BF800202075206800690421084080084F
:1033500000281DD02068C06808408008002817D0C9
:10336000C843216808610220207520688069032114
:1033700009020840002803D02046FFF7BDFF05E002
:10338000204600F078F8204600F076F800202075FE
:103390002068006908210840C00800281CD0206867
:1033A000C0680840C008002816D0C84321680861DA
:1033B000042020752068C0698007800F002803D092
:1033C0002046FFF799FF05E0204600F054F820461C
:1033D00000F052F800202075206800691021084094
:1033E000000900281DD02068C06808400009002896
:1033F00017D0C84321680861082020752068C0697B
:10340000032109020840002803D02046FFF774FF7B
:1034100005E0204600F02FF8204600F02DF80020AF
:10342000207520680069C007C00F0121484048404E
:1034300000280CD02068C068084048404840002858
:1034400005D0C81E21680861204600F017F82068E2
:10345000006940210840800900280BD02068C0681E
:1034600008408009002805D0C8432168086120462B
:1034700000F098F810BD70477047000070B5054621
:10348000002401204149086041480088401C40490F
:10349000088008460088012808D13E4800690821B4
:1034A0000840002870D13C4908706DE03848008819
:1034B00013282DDA36480078C007C00F002863D0E3
:1034C00035480078401034490870324800690821B6
:1034D0000840044601F0EEFE2E480069082108402D
:1034E000044301F0E7FE2B4800690821084004432B
:1034F00001F0E0FE27480069082108400443002C41
:1035000042D02548007880210843234908703BE0D9
:103510001F480088142837D109F090F908F0C4FD3D
:103520001C48006908210840044601F0C3FE194800
:10353000006908210840044301F0BCFE15480069F9
:1035400008210840044301F0B5FE12480069082133
:1035500008400443002C12D010480088202805DAC7
:103560000D4800780E490D4A128888540B4800888F
:10357000401C0A49088000200549088000E000BF7F
:1035800000200549087000BF70BD00006C010020DC
:10359000660100200008005068010020640100203E
:1035A000BC3700207047000000BF04490968096863
:1035B00020221143014A1268116070476C360020C6
:1035C00010B50446002C01D1012010BD0221692054
:1035D000015520680068400840002168086000200C
:1035E000216808602168486021688860204600F0F2
:1035F0000BF90020E06600216920015500BF68201A
:10360000015500BF0020E0E770B50446206805685A
:103610006D086D00206805607D26F60000E0761ECE
:10362000002EFCD101200543206805600548006894
:10363000002804D004210348006809F077FA00BF8D
:1036400070BD00004000002010B504462068C0692D
:10365000C007C00F00280FD020680068FF2101318B
:103660000840002808D0012021680862E06E01218E
:103670000843E066692001552068C06902210840BE
:1036800000280FD020688068C007C00F002809D02C
:10369000022021680862E06E04210843E0660121EF
:1036A000692001552068C0690421084000280FD016
:1036B00020688068C007C00F002809D00420216856
:1036C0000862E06E02210843E0660121692001558D
:1036D0002068C0690821084000280FD02068806851
:1036E000C007C00F002809D0082021680862E06EDA
:1036F00008210843E066012169200155E06E002899
:1037000002D02046FFF780FF2068C069012109052B
:10371000084000280ED020688068890008400028F2
:1037200008D08810216808620121692001552046CF
:10373000FFF73AFF2068C06920210840002807D021
:10374000206800680840002802D0204601F010FFE1
:103750002068C06980210840002807D020680068E0
:103760000840002802D0204602F0ACF92068C06969
:1037700040210840002807D0206800680840002841
:1037800002D0204603F086F810BD10B50446002C88
:1037900001D1012010BDA069002800D000E000BFC9
:1037A0006920005D002805D10021682001552046D0
:1037B00000F048F80221692001552068006840089F
:1037C000400021680860204600F054FA606A002832
:1037D00002D0204600F0A6F9206840680921C902FD
:1037E000884321684860206880682A2188432168CE
:1037F000886020680068012108432168086020462D
:1038000000F008FAC6E7000010B504460B48806ACD
:103810000121C9040843094988620846806A0121D8
:10382000C904884305498862032189020448FDF7D9
:1038300019FF0E20FEF73CFA10BD000000100240F8
:103840000008005010B5044603F03CFB0748806BAD
:103850000121C904084305498863012203210E2080
:10386000FEF73EFA0E20FEF72FFA10BD00100240C0
:1038700010B503466920C05C012803D06920C05CF4
:10388000122865D1002901D0002A01D1012010BDE4
:1038900000BF6820C05C012801D10220F7E70124A5
:1038A0006820C45400BF00BF24039868A0420AD116
:1038B0001869002803D1274C5C20C45220E0FF2463
:1038C0005C20C4521CE0986800280AD118690028BE
:1038D00003D1FF245C20C45212E07F245C20C45238
:1038E0000EE0012424079868A04209D11869002835
:1038F00003D17F245C20C45202E03F245C20C452E8
:1039000000BF0020D8666920C05C122803D1322491
:103910006920C45402E022246920C4541868006855
:10392000FF24013420431C6820601868806801244B
:1039300020431C68A06000BF00246820C45400BF5E
:1039400018680068202420431C68206000209EE73F
:1039500002209CE7FF010000704709F04FF800BF0C
:10396000FEE770B504460025FEF712F805460AE0AA
:10397000FEF70EF8401B7D21C900884203D90120C3
:10398000A063032070BD20688068202108404009A2
:103990000028EDD00020F5E709F030F800BFFEE781
:1039A00008B50021C9431B4AD16200BF1146C96A4C
:1039B00001221143174AD1621146C96AC907C90FCA
:1039C000009100BF00BF1146C96A02221143114A8B
:1039D000D1621146C96A02221140009100BF00BFA6
:1039E0000C49C96A042211430A4AD1621146C96AC4
:1039F00004221140009100BF00BF0649C96A082295
:103A00001143044AD1621146C96A0822114000914B
:103A100000BF08BD00100240014600BFF020084072
:103A200000110A23584302460807000F8018C0B24D
:103A300070470146002203E0521C08460A38C1B212
:103A40000A29F9DA1007000E0843704770B50446DA
:103A500000252068C06840210840002815D1401E7C
:103A60002168C860FDF794FF054608E0FDF790FF68
:103A7000401B7D21C900884201D9032070BD206808
:103A8000C068402108400028F0D00020F6E7000080
:103A900010B50AF0C5F90348FFF7B2F90AF0CEF9FC
:103AA00010BD00004834002010B5FDF777FF09F085
:103AB00017FE07F085FD09F09BF810BD154800685A
:103AC000FF2101310843134908600846C0681249C4
:103AD00008401049C86008460068104908400D4970
:103AE0000860084680684008400088600846006812
:103AF000012189048843074908600846C068FD2100
:103B0000090488430349C86000200861C8030449C8
:103B100088607047001002400C40FF88F6FFF6FEF8
:103B200000ED00E0818CC907C90F002908D00168A9
:103B30004968012252049143826A1143026851602C
:103B40000222416A1140002907D001684968D20366
:103B50009143C26A1143026851600422416A1140D4
:103B6000002907D00168496812049143026B114390
:103B7000026851600822416A1140002907D001689B
:103B8000496812039143426B11430268516010224D
:103B9000416A1140002907D00168896812029143E7
:103BA000826B1143026891602022416A1140002912
:103BB00007D00168896812029143C26B1143026801
:103BC00091604022416A1140002915D0016849687E
:103BD00092039143026C1143026851600122120565
:103BE000016C914208D10168496803225205914352
:103BF000426C1143026851608022416A11400029E1
:103C000007D00168496812039143826C114302682E
:103C10005160704710B504462068006808210840CC
:103C2000082809D1124B00228104204600F00CFA2A
:103C3000002801D0032010BD20680068042108403E
:103C4000042809D10A4B00220105204600F0FCF9A6
:103C5000002801D00320EEE700BF002168200155B5
:103C600000BF0020E0660121692001550020E2E745
:103C7000F0550000F0B58BB0044600260025002763
:103C800000200A90E2492068884201D1012000E02A
:103C90000020002800D000E000BF2169A068084390
:103CA00061690843E1690843064620680068D9490C
:103CB00008403043216808602068406803210903F8
:103CC0008843E168084321684860A669D0492068B4
:103CD000884201D1012000E00020002801D1206AA3
:103CE0000643206880680B2109028843304321681D
:103CF000886000BFC8492068884216D1C748C0689C
:103D00008007800F002806D0012808D0022804D0A0
:103D1000032808D105E0012506E0022504E004257A
:103D200002E0082500E000BF38E0BD492068884275
:103D300016D1BA48C0680C210840002806D00428D3
:103D400008D0082804D00C2808D105E0002506E09A
:103D5000022504E0042502E0082500E000BF1DE084
:103D6000AB492068884219D1AC48C0680321890258
:103D70000840002808D001218902401A08D0401AC2
:103D800004D0401A08D105E0002506E0022504E031
:103D9000042502E0082500E000BF00BF00BF9C49E9
:103DA0002068884201D1012000E0002000287AD05C
:103DB000002D06D0022D25D0042D53D0082D73D10F
:103DC00073E0626810460021FCF7D0FD0791069071
:103DD000FEF72AFA002101910090FCF7C7FD0022AE
:103DE000904B03910290FCF7C5FD05910490079B51
:103DF000069AFCF735FB09910890FCF755FD216800
:103E0000C86067E085484038006810210840000914
:103E1000002813D0626810460021FCF7A7FD024677
:103E20000B460791069000207F49FCF719FB09918A
:103E30000890FCF739FD2168C86012E062681046FE
:103E40000021FCF793FD02460B46079106900020E7
:103E50007649FCF705FB09910890FCF725FD2168E0
:103E6000C86037E0626810460021FCF77FFD0791CB
:103E70000690FEF7FDF9002101910090FCF776FD18
:103E80000022684B03910290FCF774FD05910490A9
:103E9000079B069AFCF7E4FA09910890FCF704FDE9
:103EA0002168C86016E016E013E062681046002141
:103EB000FCF75CFD02460B460791069000205C492A
:103EC000FCF7CEFA09910890FCF7EEFC2168C86077
:103ED00000E000BF9AE00121C903E069884251D1A6
:103EE0002B0006F0EBFC0906101A42304242423A1F
:103EF0004200FEF799F9400009906168FCF700FA6A
:103F000080B20A9032E0FEF7A1F9400009906168A2
:103F1000FCF7F6F980B20A9028E040484038006883
:103F2000102108400009002806D042486168FCF7CB
:103F3000E7F980B20A9005E03F486168FCF7E0F9D4
:103F400080B20A9012E0FEF793F940000990616890
:103F5000FCF7D6F980B20A9008E0012000046168FD
:103F6000FCF7CEF980B20A9000E000BF00BF3349F1
:103F70000A98084007460A980007400F0743206840
:103F8000C76043E02B0006F099FC09060F183F2E8E
:103F90003F3F3F373F00FEF747F909906168FCF764
:103FA000AFF92168C86030E0FEF750F90990616808
:103FB000FCF7A6F92168C86027E018484038006877
:103FC000102108400009002806D01D486168FCF750
:103FD00097F92168C86005E01A486168FCF790F914
:103FE0002168C86011E0FEF743F909906168FCF7A9
:103FF00087F92168C86008E00120C0036168FCF708
:104000007FF92168C86000E000BF00BF0BB0F0BDC1
:1040100000480040F369FFEF0038014040100240C3
:1040200000440040000070408084CE418084EE4116
:104030000000604100127A000048E801F0FF000033
:1040400000093D000024F400FFB581B004460E468F
:104050001D460027FDF79CFC07460398002839D130
:104060002DE0681C00282AD0002D04D0FDF790FC1C
:10407000C01BA84223D9206800688021884321689A
:104080000860206800682021884321680860206853
:104090000068FF210131884321680860206880683A
:1040A000400840002168886001216920015500BF57
:1040B00000216820015500BF032005B0F0BD206835
:1040C000C0693040B04201D1012000E0002000284A
:1040D000C7D037E02CE0681C002829D0002D04D080
:1040E000FDF756FCC01BA84222D920680068802139
:1040F000884321680860206800682021884321687F
:10410000086020680068FF21013188432168086049
:10411000206880684008400021688860012169208B
:10412000015500BF00216820015500BF0320C4E7EE
:104130002068C0693040B04201D1012000E0002079
:104140000028C8D10020B8E710B509F069FE03487F
:10415000FFF77AFA09F072FE10BD00006C360020FD
:1041600010B509F05DFE0348FFF76EFA09F066FE30
:1041700010BD00006C36002070B504460025206894
:1041800080688007800F012807D120680068C00779
:10419000C00F002801D0012000E00020002839D104
:1041A000206880681C490840002801D1012000E0F7
:1041B0000020002809D1A06D10210843A065E06D02
:1041C00001210843E065012070BD2068806801215D
:1041D000084321688860012002F052FEFDF7D8FBF9
:1041E00005460EE0FDF7D4FB401B0A2809D9A06D57
:1041F00010210843A065E06D01210843E06501201E
:10420000E2E720680068C007C00F0121484048402D
:104210000028E7D00020D7E717000080FCB507464C
:104220000D466E4633462A4606480168384606F073
:10423000A3FA002403E0305D2855601CC4B2082CAA
:10424000F9DBFCBD70010020F8B5234EFF270137D4
:104250003A463146214800F0ADFC44B200BF002C84
:1042600000D12CE06A461EA1304608F07AFA44B22A
:10427000002C00D123E068460021415E7018451DE6
:104280000021009113E0684600880A21484301B2EA
:1042900000912978303968460088081801B20091E9
:1042A0006D1C68460021415E642900DD02E028782B
:1042B0002C28E8D100BF6846008844B200BF00BF88
:1042C000002C05DB1F2C03DC6000713844B201E0D8
:1042D0007E24E4432046F8BDD0010020F8F6000813
:1042E0002B4353513A00000086B0642008F0A2FB33
:1042F00007F0BEFA08F0A2FC04F000FB0AF0E2F8B6
:1043000004F024FB09F086FA07F0DEFF08F0BAF8A3
:10431000012008F0BFF808F075FA08F04BFA08F031
:104320005DFA1D4804781D48057834E00022D24328
:104330000F21684608F024FC684607C803AB07C392
:10434000082104980840002810D013480478134826
:10435000057800201049087006201049087006F002
:1043600017FC00200D4908700D49087004210498BD
:10437000084000280FD00848047808480578002035
:104380000549087005200549087006F0C3FB02487E
:10439000047002480570C9E78500002086000020EF
:1043A000BC01002070B504460025206880688007A5
:1043B000800F012807D120680068C007C00F0028BF
:1043C00001D0012000E00020002837D0206880685C
:1043D00005210840012800D100E0002000280AD073
:1043E00000BF20688068022108432168886003209C
:1043F0002168086009E0A06D10210843A065E06D08
:1044000001210843E065012070BDFDF7C1FA0546B2
:104410000EE0FDF7BDFA401B0A2809D9A06D102156
:104420000843A065E06D01210843E0650120EBE74A
:1044300020688068C007C00F0028EAD10020E3E7A9
:10444000F8B50025244EFF2701373A463146234868
:1044500000F0B0FB45B200BF002D00D133E06A464A
:104460001FA1304608F07DF945B2002D00D12AE0A9
:1044700068460021415E7018841D0021009120785B
:10448000482811D16078422803D1012016490870CC
:1044900017E06078432803D102201349087010E028
:1044A0000020114908700CE020784A2806D1607875
:1044B000422803D103200C49087002E000200A4979
:1044C0000870012500BF00BF002D02D0064800780B
:1044D000F8BD0020FCE70000D0010020B8F400087F
:1044E00042433935423500005700002030B50323E0
:1044F0001B0317484407640F002C05D0C01DC008DB
:10450000C000134C041B1B1B0246124C22600024EB
:10451000104D6C60D0180838C008C0000E4C2060E8
:1045200000240D4D2D686C600B4D2D682C601146DC
:10453000441A4C60084C24680C60084D4C682C6090
:10454000074D4C682C600124E407064D2C6030BDFB
:104550000C040020F0000020F800002000010020E2
:10456000FC0000200401002000BF05F089FD134875
:104570000068012801D909F0DBFD03F063FE044661
:10458000022C1AD309F030FF0D4800680D49096864
:10459000884201D3012000E00020002803D10A490D
:1045A0000AA009F0F7FB03F04DFE0446022C02D3EB
:1045B000204609F0BDFC0AF069FED6E71C03002086
:1045C000D8000020BC000020AB0A00002E2E5C6F3B
:1045D000732D6B65726E656C5C6B65726E656C5C81
:1045E0007461736B732E630010B500BF264807F02B
:1045F0004BFE00BF2548847A012C00D102242448B8
:1046000000880004000F052813DA2148007800070D
:10461000000FA04201DB002C0BD11D480068C00335
:10462000C00F002805D11A4800688003C00F002879
:1046300026D0174800780007000FA04204DB002CAA
:1046400002D014A007F0C4FD114800880004000F38
:10465000052802DB11A007F0BBFD0D480068C00370
:10466000C00F002802D00FA007F0B2FD0848006874
:104670008003C00F002805D00CA007F0A9FD01E0C1
:1046800002F050F810BD00000000FFFF2C3A00209F
:10469000780100206E662D6C6F63200073742D6CA2
:1046A0006F63200073652D6C6F63200073662D6C43
:1046B0006F63200010B508220021294807F057FE3B
:1046C00000BF284807F0E0FD00BF27484479204696
:1046D000E117090F09180911244A515C204A117089
:1046E000E117090F091809110901611A1F4A515CE4
:1046F0001B4A51702D20114688700A21032007F0B3
:104700004FFD194804792046E117090F09180911CE
:10471000164A515C124AD170E117090F09180911A4
:104720000901611A114A515C0D4A11710E48C47891
:104730002046E117090F091809110C4A515C084A73
:104740005171E117090F091809110901611A074A86
:10475000515C034A9171104607F03AFD10BD00000C
:10476000870000200000FFFF14010020A8FA0008C5
:1047700088B00020079006F05BFF07F0DFF806F036
:10478000F9FD04F0ADF83F48408E622802DB0020BE
:1047900006F0D2FD08F05BF9079072E008F057F9D7
:1047A0000799401A079000BF0022D243FF2101A8B9
:1047B00008F0E6F901A807C804AB07C308F047F9F9
:1047C00007900598C007C00F002804D000202E498C
:1047D000086003F0CDF908210598084000280ED0A4
:1047E00002F07CFE07F0F2F801F0A0FA02F074F992
:1047F00005F03EF802F000FA07F0F4FE00BF0221D7
:1048000005980840002803D005F044FA01F08EFA1C
:10481000402105980840002801D002F05DF90421EC
:1048200005980840002817D006F0B6FA00F0A0F965
:104830001648007800280FD115480068C001C00F45
:10484000002809D00120114908700E48408E6228C6
:1048500002DB002006F070FD1021059808400028BA
:1048600001D002F023FB202105980840002801D048
:1048700004F0CEF9802105980840002801D004F00A
:1048800091FB8BE7EC3A002024000020BC010020C3
:104890007401002002460D20014B18700120704762
:1048A000BF010020F3B587B000200090012008F080
:1048B00041FD884C0021C9438748006808F0FEF894
:1048C00000BF002085490860FF22F5328449204658
:1048D00007F043FD079806460D36FF203330005B96
:1048E000622804DC06207F4908700125E9E04C209D
:1048F000005B012804D10D207A4908700125E0E011
:10490000FF203D30005B81B202910222B11D01A85F
:1049100007F023FD684681880089814204DC02207B
:10492000704908700125CCE0684681880089081A22
:10493000032804DD04206B4908700125C1E06846A6
:1049400081880089081A81B2019104223146103110
:1049500003A807F002FD03980490042231460C31AD
:1049600003A807F0FAFC03980590042231460831A9
:1049700003A807F0F2FC0398069000200090684618
:10498000818802911AE068460089800004A90958CC
:10499000009882002046FF3081308058814204D048
:1049A00004205049087001250CE00098401C80B29A
:1049B000009068460089401C81B2029168460089D7
:1049C0000328E0DB00BF47480078042800D178E0E6
:1049D000002045490860FF20353007596846818826
:1049E00002911DE068460089401E800004A9085815
:1049F000039003983F183C480068039940183A49CF
:104A0000086005212046FF30813006F0C6FDFF20FA
:104A100081300399015168460089401E81B202919C
:104A2000684600890028DDDCFF205D3000592E49F2
:104A300009684118FF205D3001512C48874207DD8D
:104A4000002029490860032026490870012538E024
:104A5000FF20353007510222B11D01A807F07DFC6F
:104A600068468188FF203D300151022231461431D1
:104A700002A807F072FC684600890390184840308D
:104A80004088039948430390F02003990151012085
:104A900014490870FF22F5322146114807F05DFCE9
:104AA0000D48006807F0E4FF012008F043FC0021F6
:104AB000C9430948006808F001F80D480749086033
:104AC00000BF00BF0448006807F0D2FF284609B0C5
:104AD000F0BD0000EC370020100000202400002072
:104AE000EC390020BF010020B8010020002D310169
:104AF0008051010010B507F09BF800BF164800690F
:104B000004210840002800D022E072B61348006853
:104B1000401C1249086062B601201149087000204B
:104B20001049086000BF10480078022808D10F48DB
:104B3000006801210906884340180C49086006E016
:104B40000A4800680121090688430849086000BF37
:104B500000BF07F079F810BD00080050A401002044
:104B6000A8010020800000207C01002074010020AA
:104B700010B50D480068C002C00F002812D00B48C5
:104B800000780006800F002809D1094800688007D6
:104B9000800F002806D10A2000F0A6FB02E00A20C0
:104BA00000F0A2FB10BD000074010020780100207D
:104BB000A0010020F7B582B004460E460020019007
:104BC00000270025002C01D105B0F0BD002E01D139
:104BD0000020F9E705F04EFA642007F02BFF0021D2
:104BE0003046049A07F0C3FB206807F0BBFE00259F
:104BF00012E000272A480078002800D1E4E77D2150
:104C0000C9003046049A02F0A9F90746022F00DCD9
:104C100000E003E0681C85B2062DEADB00BFA07F40
:104C2000002803D11F49C8703846CDE70020F05551
:104C3000A07F002801D1019710E0E068002805D08E
:104C40003046E16807F064FD019007E02069002824
:104C500004D03046216907F05BFD0190657F032D8C
:104C600000DD03250BE00E480078002800D1ABE7FB
:104C70000D493046049A02F071F9681E85B2002D84
:104C8000F1D100BF0198002804D1207F0549C870E8
:104C9000002099E700200349C870384694E70000D7
:104CA000900000203A000020B80B0000F0B589B059
:104CB000202101A8FBF722FB1D4EFF27013704240A
:104CC00020221C4901A807F048FB1B4801900BE07B
:104CD000601E84B200BF3A46314601A8FFF76AFF62
:104CE0000546002D00D001E0002CF1D100BF002CC2
:104CF00002D1204609B0F0BD04240BE0601E84B24E
:104D000000BF3A4631460D48FFF754FF0546002DD7
:104D100000D001E0002CF1D100BF002C03D0032013
:104D20000749887002E00520054988702046E1E7C0
:104D3000D001002098F700089C3B0020B8F700083D
:104D40003A00002010B501F019F90446204610BDC4
:104D500010B50446206B09F095F8204609F092F84A
:104D600010BD000010B51248C489012C08D00A2CCF
:104D700007D0642C0AD07D20C000201A10D10AE090
:104D800013E00C21032007F00BFA0EE00A210320A8
:104D900007F006FA09E00821032007F001FA04E011
:104DA0000A21032007F0FCF900BF00BF10BD00007E
:104DB0002C3A002010B512484488012C08D00A2C47
:104DC00007D0642C0AD07D20C000201A10D10AE040
:104DD00013E00C21032007F0E3F90EE00A21032081
:104DE00007F0DEF909E00821032007F0D9F904E013
:104DF0000A21032007F0D4F900BF00BF10BD000056
:104E00002C3A002007E00278302A03D120220270D9
:104E1000401C00E004E00A464B1E99B2002AF2D181
:104E200000BF7047A8B000260020049043E1002096
:104E3000A1490870421E0A2101A807F0A1FE01A89D
:104E400007C825AB07C301209B4908700821269895
:104E50000840002811D099480078002800D12AE1A4
:104E600007F01AFDC82007F0E5FD07F035FD01F059
:104E7000F7FB0020914908701DE1022126980840A7
:104E800000286FD08E48007801280FDA8B48007810
:104E900000280BD007F000FD642007F0CBFD07F0E1
:104EA0001BFD01F0DDFB002084490870002602F0A4
:104EB00035FF002800D1FEE000F078FEFF20814998
:104EC000087000208049087080490870002604900E
:104ED00000BF05F0CFF87D48007800280ED10321EF
:104EE0007B4808F075F80546794948191422794934
:104EF00007F033FA2846143085B20EE07348007884
:104F0000012805D10721724808F062F8054604E03F
:104F100003216F4807F094FF05467D20C00007F08D
:104F200089FD0498042804DB322001F0C9FA00202E
:104F30000490FFF707FF002800D182E005F012F887
:104F4000802D00D980252A46614905A807F005FA79
:104F500029465F4800F012FC0446002C03D1574953
:104F600008706EE0A6E0701C86B20498401C80B207
:104F7000049056480078012803D102205349087054
:104F80005EE0012051490870002700BF01F082FE59
:104F90000446012F00DB18E0002C14D11A204749E9
:104FA000087005F067F87D20400107F043FD2A46B0
:104FB00005A9474807F0D1F92946454800F0DEFB2E
:104FC000781C87B200E000E0E0E700BF002C03D1CE
:104FD0001A203A49087034E0224605A93E4804F0F8
:104FE0006FFB0446802C00D98024224605A93A484C
:104FF00007F0B3F92146384807F094FF0446002C27
:1050000007D031480078002803D02F480078602866
:1050100000D116E02C480078012803D02A480078F7
:10502000022801D100BF02E0132E00DA1326152E4C
:1050300000DB06E022480078002800D101E000BF34
:1050400047E700BF00202049087000BF1B480078D8
:10505000002802D101F004FB03E002F03BFE00F067
:105060004FFF164800781A2804D100201349087011
:1050700001F0F6FA11480078002802D018200F49F4
:1050800008701648408E612803D106F08BF900287D
:105090000ED01248C0388089012803D1072010495A
:1050A000087002E003200E49087000200D490870C6
:1050B00006F06EF800BFBAE6580000205500002048
:1050C00090000020BD010020BF010020C001002091
:1050D0006C340020F0020020D0010020EC3A0020C7
:1050E000850000208600002070B506460D4600248D
:1050F00011E00A48015D23462A46304605F08AFA47
:10510000064A20461C30115C23462A1D304605F015
:1051100081FA601CC4B21C2CEBDB70BD02010108DB
:1051200070B502460B460020002114E0565C3602A2
:10513000704000240BE00126F60305463540460486
:10514000300C002D01D0054E7040661CB4B2082C06
:10515000F1DB4E1CB1B29942E8DB70BD21100000BA
:1051600000BFEFF30580002801D001207047002028
:10517000FCE7000070B5044CFF2501352A462146A6
:105180000248FFF717FD70BDD001002098F5000818
:105190007047000070B500BF0E4807F075F800BFFB
:1051A00000200D49C8710D48C46F04220CA10A48A3
:1051B00007F0D3F80C492046FBF7A2F80546032276
:1051C00029460548801D00F0ADFB034807F000F8B4
:1051D00070BD00000000FFFF870000206C3A002037
:1051E0006964683A000000008096980070B500BFBE
:1051F0000B4807F049F800BF00200A49C8710A4867
:10520000C46F0A492046FBF77BF80D460722054884
:10521000801D00F087FB034806F0DAFF70BD000038
:105220000000FFFF870000206C3A00208096980065
:1052300070B5134C2046856D08220021114807F0F7
:1052400096F8072229460F48801D00F06BFB4E217F
:10525000085B00F04FFB064631460A48FFF7D2FDD7
:1052600000BF094807F010F800BFFFF77BFD0221DF
:10527000032006F095FF034806F0AAFF70BD00006A
:10528000EC390020870000200000FFFF70B50646C3
:105290000D46002408E00648015D23462A463046B4
:1052A00005F0B8F9601CC4B2202CF4DB70BD00001E
:1052B000B2FE0008002002E000BF00BF401C3C28F6
:1052C000FAD370470146002007E04200054B9A5A86
:1052D0008A4200D103E0421CD0B20928F5D300BFB6
:1052E000704700007003010810B5044606F01EFA6E
:1052F00006F04EFA204607F09DFB06F03FFA10BD7F
:10530000F0B503460E4614460025002000BF19786C
:10531000B14200D12AE00A274743B8B2002200BFB9
:10532000302906DB392904DC0F46303F1743BAB277
:1053300012E0412906DB462904DC0F46373F1743BC
:10534000BAB209E0612906DB662904DC0F46573F43
:105350001743BAB200E000BF00BF8718B8B25B1CA9
:105360006F1CBDB2042D00DB00E0D0E700BF002CB5
:1053700000D02580F0BD70B5054608F051FDA86B42
:10538000E96B884201D1012400E0002408F056FDB9
:10539000204670BD10B5044608F042FD14E0606A76
:1053A000002801D1012000E00020002808D120467B
:1053B000243009F015FF002803D008F003FF00E0B7
:1053C00005E0A06C401EA064A06C0028E7DC00BFD4
:1053D0000020C043A06408F031FD08F021FD14E076
:1053E0002069002801D1012000E0002000280BD115
:1053F0002046103009F0F4FE002801D008F0E2FE4B
:10540000606C401E606400E002E0606C0028E7DC35
:1054100000BF0020C043606408F010FD10BD000014
:1054200010B5044616480078030005F047FA09064F
:10543000090D1511191D2521250003F0B5FA1CE0F1
:10544000204603F011F818E0204604F063FD14E054
:10545000204601F0DDFD10E0204603F06DFC0CE07D
:10546000204603F025F808E0204602F023FA04E085
:10547000204603F039FF00E000BF00BF10BD000070
:105480008600002010B5044616480078030005F099
:1054900015FA09060A0E16121A1E262226002046A2
:1054A00001F0B0FC1CE0204602F0DEFF18E02046D0
:1054B00004F030FD14E0204601F0AAFD10E0204683
:1054C00003F03AFC0CE0204602F0F2FF08E0204630
:1054D00002F0F0F904E0204603F006FF00E000BF10
:1054E00000BF10BD8600002010B503F08FFA10BD7C
:1054F00088B00020079019E00022D243012101A8C2
:1055000007F03EFB01A807C804AB07C30598C00716
:10551000C00F00280AD0FFF7EDFA05480068002800
:1055200004D004210248006807F000FBE4E7000013
:105530001800002010B5002400200A4908700A480D
:10554000007802280BD10120087003F0F1FE044618
:10555000002C04D010210548006807F0E7FAE0B2FB
:1055600010BD0000280000207C0100201800002051
:1055700010B504460F48C36920201840002816D0F3
:1055800008F0C6F80B48406AC2B2104607F0E8F9C6
:1055900009480088FF2808DC084807490988425460
:1055A00005480088401C04490880002010BD0220E6
:1055B000FCE70000004C0040520100206C35002048
:1055C000F0B585B006460F46012007F0B3FE34461D
:1055D0000D3404222146083104A806F0BEFE4E48D0
:1055E0000068FF300130408E612805D006204B490D
:1055F0000870002005B0F0BD47480499006880306D
:10560000C167617902916846007A4006C00F0028A0
:1056100014D06846007A8006050F072D01D90020B6
:10562000E8E768003E49085A3B4909688887681CD2
:1056300040003B49085A38490968C887002004904F
:1056400003222146153104A806F087FE3549049847
:10565000884209D2304804990068FF300130016463
:105660002D4904980968C865207E002804D0214689
:1056700018312D4806F067FE3020005D002805D067
:10568000214630312848203006F05DFE012007F029
:1056900051FE022221460C3103A806F05EFE684648
:1056A00080897D210901401AC1B268464171A07B01
:1056B000401CC1B268460171E07C401CC1B2684622
:1056C000C170217C8170617C4170A17C0170C078C7
:1056D000992801DD632003E06846C078134B185C0D
:1056E000024668460079992801DD632003E0684698
:1056F00000790E4B185C01466846808900B205F0BF
:10570000B3FD05466846857107F034FF0120034963
:10571000087000BF6EE7000080010020BF0100207C
:1057200070030108FFFFFF009C3B002052FD0008B2
:1057300070B506460D46144600BF1E2D01DA002046
:1057400070BD0F2231460831204606F006FE0020CB
:10575000E0730120F4E770B506460D46144600BF1D
:10576000132D01DA002070BD0F22B11C204606F077
:10577000F4FD0020E0730120F5E7000070B5044659
:105780000D460A480078002800D170BD0020084965
:105790000870042007490870002008F0FBF8002278
:1057A0002946204601F08AFAEFE700009000002029
:1057B000850000208600002070B5054608F030FB0B
:1057C000A86B002801D1012400E0002408F036FB7A
:1057D000204670BDF8B505460F460095009D687AD5
:1057E0000609009D287B002813D1330005F066F8D8
:1057F000050406080A0C0E00002409E0164C07E018
:10580000164C05E0164C03E0164C01E0144C00BFAA
:1058100017E0330005F052F8050406080B0E1100DE
:1058200000240DE0104C0BE00F4C083408E00E4C47
:10583000103C05E00C4C083C02E00B4C103C00BF57
:1058400000BF002C05D008222146384606F085FD11
:105850003C462046F8BD000076FE00087EFE0008AB
:1058600066FE00086EFE0008043B002070B504468A
:1058700004250E48C689012E08D00A2E07D0642EB2
:1058800007D07D20C000301A07D104E007E00625CC
:1058900005E0052503E0042501E0052500BF00BF64
:1058A0002919C8B206F018FD70BD00002C3A00207E
:1058B00070B5044604250E484688012E08D00A2EED
:1058C00007D0642E07D07D20C000301A07D104E035
:1058D00007E0062505E0052503E0042501E0052590
:1058E00000BF00BF2919C8B206F0F6FC70BD000069
:1058F0002C3A00200146042001290BD00A2907D0A8
:10590000642909D07D22D2008A1A06D1032006E03C
:10591000052004E0062002E000BF042000BF00BF15
:1059200070470000F8B506460F461546002D00D119
:10593000F8BD29460A2006F0F5FC0446601EB84270
:1059400000DC671E0DE00A213846FAF7E3FC0C463E
:105950000748005D3070761E0A213846FAF7DAFCF7
:1059600007462846691E8DB20028ECD100BFDFE74C
:10597000A8FA000870B506460D46002411E00A4852
:10598000015D23462A46304604F044FE064A20467E
:105990001830115C23462A1D304604F03BFE601C83
:1059A000C4B2182CEBDB70BDD200010810B5002882
:1059B00019DA1A4A03071B0F083B9B089B00D258B1
:1059C0008307DC0EFF23A3409A438B071B0E84073B
:1059D000E40EA3401A43114B0407240F083CA4080B
:1059E000A4001A5118E00E4A03231B02D2188308A0
:1059F0009B00D2588307DC0EFF23A3409A438B07FA
:105A00001B0E8407E40EA3401A43054B0324240213
:105A10001B198408A4001A5110BD00001CED00E001
:105A200000E100E0F3B584B00A46002515600023CC
:105A300042E0049D2D680095049D2D1D04950021D4
:105A400036E006250E466E43009DF5400095002089
:105A50002AE00C2506466E43009DF540ECB29D0001
:105A60006D184600AD19EDB20295202525402D1187
:105A7000E607F60FAD1901951E2525406D1003951B
:105A8000029DAD010E4EAE19019D2D017619039DAB
:105A9000755D1E018F00F619C700F619B54016682E
:105AA00035431560451CE8B20228D2DB4D1CE9B233
:105AB0000229C6DB5D1CEBB2022BBADB06B0F0BDDF
:105AC000D2FE000801466920405C122803D06920FC
:105AD000405C322831D15220405A00280DD108684C
